{
  "contractName": "kittyContract",
  "abi": [
    {
      "anonymous": false,
      "inputs": [
        {
          "indexed": true,
          "internalType": "address",
          "name": "owner",
          "type": "address"
        },
        {
          "indexed": true,
          "internalType": "address",
          "name": "approved",
          "type": "address"
        },
        {
          "indexed": true,
          "internalType": "uint256",
          "name": "tokenId",
          "type": "uint256"
        }
      ],
      "name": "Approval",
      "type": "event"
    },
    {
      "anonymous": false,
      "inputs": [
        {
          "indexed": true,
          "internalType": "address",
          "name": "owner",
          "type": "address"
        },
        {
          "indexed": true,
          "internalType": "address",
          "name": "operator",
          "type": "address"
        },
        {
          "indexed": false,
          "internalType": "bool",
          "name": "approved",
          "type": "bool"
        }
      ],
      "name": "ApprovalForAll",
      "type": "event"
    },
    {
      "anonymous": false,
      "inputs": [
        {
          "indexed": false,
          "internalType": "address",
          "name": "owner",
          "type": "address"
        },
        {
          "indexed": false,
          "internalType": "uint256",
          "name": "newKittenId",
          "type": "uint256"
        },
        {
          "indexed": false,
          "internalType": "uint256",
          "name": "mumId",
          "type": "uint256"
        },
        {
          "indexed": false,
          "internalType": "uint256",
          "name": "dadId",
          "type": "uint256"
        },
        {
          "indexed": false,
          "internalType": "uint256",
          "name": "genes",
          "type": "uint256"
        }
      ],
      "name": "Birth",
      "type": "event"
    },
    {
      "anonymous": false,
      "inputs": [
        {
          "indexed": true,
          "internalType": "address",
          "name": "from",
          "type": "address"
        },
        {
          "indexed": true,
          "internalType": "address",
          "name": "to",
          "type": "address"
        },
        {
          "indexed": true,
          "internalType": "uint256",
          "name": "tokenId",
          "type": "uint256"
        }
      ],
      "name": "Transfer",
      "type": "event"
    },
    {
      "inputs": [],
      "name": "CREATION_LIMIT_GEN0",
      "outputs": [
        {
          "internalType": "uint256",
          "name": "",
          "type": "uint256"
        }
      ],
      "stateMutability": "view",
      "type": "function",
      "constant": true
    },
    {
      "inputs": [],
      "name": "gen0Counter",
      "outputs": [
        {
          "internalType": "uint256",
          "name": "",
          "type": "uint256"
        }
      ],
      "stateMutability": "view",
      "type": "function",
      "constant": true
    },
    {
      "inputs": [
        {
          "internalType": "uint256",
          "name": "",
          "type": "uint256"
        }
      ],
      "name": "kittyIndexToApproved",
      "outputs": [
        {
          "internalType": "address",
          "name": "",
          "type": "address"
        }
      ],
      "stateMutability": "view",
      "type": "function",
      "constant": true
    },
    {
      "inputs": [
        {
          "internalType": "uint256",
          "name": "",
          "type": "uint256"
        }
      ],
      "name": "kittyIndexToOwner",
      "outputs": [
        {
          "internalType": "address",
          "name": "",
          "type": "address"
        }
      ],
      "stateMutability": "view",
      "type": "function",
      "constant": true
    },
    {
      "inputs": [],
      "name": "owner",
      "outputs": [
        {
          "internalType": "address",
          "name": "",
          "type": "address"
        }
      ],
      "stateMutability": "view",
      "type": "function",
      "constant": true
    },
    {
      "inputs": [],
      "name": "tokenName",
      "outputs": [
        {
          "internalType": "string",
          "name": "",
          "type": "string"
        }
      ],
      "stateMutability": "view",
      "type": "function",
      "constant": true
    },
    {
      "inputs": [],
      "name": "tokenSymbol",
      "outputs": [
        {
          "internalType": "string",
          "name": "",
          "type": "string"
        }
      ],
      "stateMutability": "view",
      "type": "function",
      "constant": true
    },
    {
      "inputs": [
        {
          "internalType": "bytes4",
          "name": "_interfaceId",
          "type": "bytes4"
        }
      ],
      "name": "supportsInterface",
      "outputs": [
        {
          "internalType": "bool",
          "name": "",
          "type": "bool"
        }
      ],
      "stateMutability": "pure",
      "type": "function",
      "constant": true
    },
    {
      "inputs": [
        {
          "internalType": "uint256",
          "name": "_mumId",
          "type": "uint256"
        },
        {
          "internalType": "uint256",
          "name": "_dadId",
          "type": "uint256"
        }
      ],
      "name": "breed",
      "outputs": [],
      "stateMutability": "nonpayable",
      "type": "function"
    },
    {
      "inputs": [
        {
          "internalType": "uint256",
          "name": "_genes",
          "type": "uint256"
        }
      ],
      "name": "createKittyGen0",
      "outputs": [
        {
          "internalType": "uint256",
          "name": "",
          "type": "uint256"
        }
      ],
      "stateMutability": "nonpayable",
      "type": "function"
    },
    {
      "inputs": [
        {
          "internalType": "uint256",
          "name": "_tokenId",
          "type": "uint256"
        }
      ],
      "name": "getKitty",
      "outputs": [
        {
          "internalType": "uint256",
          "name": "genes",
          "type": "uint256"
        },
        {
          "internalType": "uint256",
          "name": "birthTime",
          "type": "uint256"
        },
        {
          "internalType": "uint256",
          "name": "mumId",
          "type": "uint256"
        },
        {
          "internalType": "uint256",
          "name": "dadId",
          "type": "uint256"
        },
        {
          "internalType": "uint256",
          "name": "generation",
          "type": "uint256"
        }
      ],
      "stateMutability": "view",
      "type": "function",
      "constant": true
    },
    {
      "inputs": [
        {
          "internalType": "address",
          "name": "owner",
          "type": "address"
        }
      ],
      "name": "balanceOf",
      "outputs": [
        {
          "internalType": "uint256",
          "name": "",
          "type": "uint256"
        }
      ],
      "stateMutability": "view",
      "type": "function",
      "constant": true
    },
    {
      "inputs": [],
      "name": "totalSupply",
      "outputs": [
        {
          "internalType": "uint256",
          "name": "",
          "type": "uint256"
        }
      ],
      "stateMutability": "view",
      "type": "function",
      "constant": true
    },
    {
      "inputs": [],
      "name": "name",
      "outputs": [
        {
          "internalType": "string",
          "name": "",
          "type": "string"
        }
      ],
      "stateMutability": "pure",
      "type": "function",
      "constant": true
    },
    {
      "inputs": [],
      "name": "symbol",
      "outputs": [
        {
          "internalType": "string",
          "name": "",
          "type": "string"
        }
      ],
      "stateMutability": "pure",
      "type": "function",
      "constant": true
    },
    {
      "inputs": [
        {
          "internalType": "uint256",
          "name": "_tokenId",
          "type": "uint256"
        }
      ],
      "name": "ownerOf",
      "outputs": [
        {
          "internalType": "address",
          "name": "",
          "type": "address"
        }
      ],
      "stateMutability": "view",
      "type": "function",
      "constant": true
    },
    {
      "inputs": [
        {
          "internalType": "address",
          "name": "_from",
          "type": "address"
        },
        {
          "internalType": "address",
          "name": "_to",
          "type": "address"
        },
        {
          "internalType": "uint256",
          "name": "_tokenId",
          "type": "uint256"
        }
      ],
      "name": "safeTransferFrom",
      "outputs": [],
      "stateMutability": "nonpayable",
      "type": "function"
    },
    {
      "inputs": [
        {
          "internalType": "address",
          "name": "_from",
          "type": "address"
        },
        {
          "internalType": "address",
          "name": "_to",
          "type": "address"
        },
        {
          "internalType": "uint256",
          "name": "_tokenId",
          "type": "uint256"
        },
        {
          "internalType": "bytes",
          "name": "_data",
          "type": "bytes"
        }
      ],
      "name": "safeTransferFrom",
      "outputs": [],
      "stateMutability": "nonpayable",
      "type": "function"
    },
    {
      "inputs": [
        {
          "internalType": "address",
          "name": "_from",
          "type": "address"
        },
        {
          "internalType": "address",
          "name": "_to",
          "type": "address"
        },
        {
          "internalType": "uint256",
          "name": "_tokenId",
          "type": "uint256"
        }
      ],
      "name": "transferFrom",
      "outputs": [],
      "stateMutability": "nonpayable",
      "type": "function"
    },
    {
      "inputs": [
        {
          "internalType": "address",
          "name": "_to",
          "type": "address"
        },
        {
          "internalType": "uint256",
          "name": "_tokenId",
          "type": "uint256"
        }
      ],
      "name": "transfer",
      "outputs": [],
      "stateMutability": "nonpayable",
      "type": "function"
    },
    {
      "inputs": [
        {
          "internalType": "address",
          "name": "_approved",
          "type": "address"
        },
        {
          "internalType": "uint256",
          "name": "_tokenId",
          "type": "uint256"
        }
      ],
      "name": "approve",
      "outputs": [],
      "stateMutability": "nonpayable",
      "type": "function"
    },
    {
      "inputs": [
        {
          "internalType": "address",
          "name": "_operator",
          "type": "address"
        },
        {
          "internalType": "bool",
          "name": "approved",
          "type": "bool"
        }
      ],
      "name": "setApprovalForAll",
      "outputs": [],
      "stateMutability": "nonpayable",
      "type": "function"
    },
    {
      "inputs": [
        {
          "internalType": "uint256",
          "name": "_tokenId",
          "type": "uint256"
        }
      ],
      "name": "getApproved",
      "outputs": [
        {
          "internalType": "address",
          "name": "",
          "type": "address"
        }
      ],
      "stateMutability": "view",
      "type": "function",
      "constant": true
    },
    {
      "inputs": [
        {
          "internalType": "address",
          "name": "_owner",
          "type": "address"
        },
        {
          "internalType": "address",
          "name": "_operator",
          "type": "address"
        }
      ],
      "name": "isApprovedForAll",
      "outputs": [
        {
          "internalType": "bool",
          "name": "",
          "type": "bool"
        }
      ],
      "stateMutability": "view",
      "type": "function",
      "constant": true
    }
  ],
  "bytecode": "0x608060405234801561001057600080fd5b50336000806101000a81548173ffffffffffffffffffffffffffffffffffffffff021916908373ffffffffffffffffffffffffffffffffffffffff16021790555061211b806100606000396000f3fe608060405234801561001057600080fd5b50600436106101585760003560e01c80638da5cb5b116100c3578063b88d4fde1161007c578063b88d4fde146103db578063d5a776ca146103f7578063d9ecad7b14610427578063e985e9c514610443578063e98b7f4d14610473578063ef5e94aa146104a757610158565b80638da5cb5b1461031957806395d89b4114610337578063a22cb46514610355578063a45f4bfc14610371578063a9059cbb146103a1578063b4834330146103bd57610158565b806342842e0e1161011557806342842e0e14610231578063481af3d31461024d5780636352211e1461027d5780636c02a931146102ad57806370a08231146102cb5780637b61c320146102fb57610158565b806301ffc9a71461015d57806306fdde031461018d578063081812fc146101ab578063095ea7b3146101db57806318160ddd146101f757806323b872dd14610215575b600080fd5b610177600480360381019061017291906118cb565b6104c5565b6040516101849190611b67565b60405180910390f35b610195610565565b6040516101a29190611b82565b60405180910390f35b6101c560048036038101906101c0919061191d565b6105a2565b6040516101d29190611aad565b60405180910390f35b6101f560048036038101906101f0919061188f565b6105f0565b005b6101ff6106a2565b60405161020c9190611c24565b60405180910390f35b61022f600480360381019061022a9190611784565b6106af565b005b61024b60048036038101906102469190611784565b610777565b005b6102676004803603810190610262919061191d565b610797565b6040516102749190611aad565b60405180910390f35b6102976004803603810190610292919061191d565b6107ca565b6040516102a49190611aad565b60405180910390f35b6102b5610807565b6040516102c29190611b82565b60405180910390f35b6102e560048036038101906102e0919061171f565b610840565b6040516102f29190611c24565b60405180910390f35b610303610889565b6040516103109190611b82565b60405180910390f35b6103216108c2565b60405161032e9190611aad565b60405180910390f35b61033f6108e6565b60405161034c9190611b82565b60405180910390f35b61036f600480360381019061036a9190611853565b610923565b005b61038b6004803603810190610386919061191d565b6109cf565b6040516103989190611aad565b60405180910390f35b6103bb60048036038101906103b6919061188f565b610a02565b005b6103c5610b39565b6040516103d29190611c24565b60405180910390f35b6103f560048036038101906103f091906117d3565b610b3e565b005b610411600480360381019061040c919061191d565b610c4d565b60405161041e9190611c24565b60405180910390f35b610441600480360381019061043c9190611946565b610ce5565b005b61045d60048036038101906104589190611748565b610e2c565b60405161046a9190611b67565b60405180910390f35b61048d6004803603810190610488919061191d565b610ec0565b60405161049e959493929190611c3f565b60405180910390f35b6104af610f9c565b6040516104bc9190611c24565b60405180910390f35b60006301ffc9a760e01b7bffffffffffffffffffffffffffffffffffffffffffffffffffffffff1916827bffffffffffffffffffffffffffffffffffffffffffffffffffffffff1916148061055e57506380ac58cd60e01b7bffffffffffffffffffffffffffffffffffffffffffffffffffffffff1916827bffffffffffffffffffffffffffffffffffffffffffffffffffffffff1916145b9050919050565b60606040518060400160405280601081526020017f4d61726761726974614b69747469657300000000000000000000000000000000815250905090565b600060028054905082106105b557600080fd5b6005600083815260200190815260200160002060009054906101000a900473ffffffffffffffffffffffffffffffffffffffff169050919050565b6105fa3382610fa2565b610639576040517f08c379a000000000000000000000000000000000000000000000000000000000815260040161063090611bc4565b60405180910390fd5b610643828261100e565b808273ffffffffffffffffffffffffffffffffffffffff163373ffffffffffffffffffffffffffffffffffffffff167f8c5be1e5ebec7d5bd14f71427d1e84f3dd0314c0f7b2291e5b200ac8c7c3b92560405160405180910390a45050565b6000600280549050905090565b6106b98382610fa2565b6106c257600080fd5b600073ffffffffffffffffffffffffffffffffffffffff168273ffffffffffffffffffffffffffffffffffffffff1614156106fc57600080fd5b600280549050811061070d57600080fd5b8273ffffffffffffffffffffffffffffffffffffffff163373ffffffffffffffffffffffffffffffffffffffff16148061074d575061074c3382611064565b5b8061075e575061075d8333610e2c565b5b61076757600080fd5b6107723383836110d0565b505050565b61079283838360405180602001604052806000815250611297565b505050565b60056020528060005260406000206000915054906101000a900473ffffffffffffffffffffffffffffffffffffffff1681565b60006004600083815260200190815260200160002060009054906101000a900473ffffffffffffffffffffffffffffffffffffffff169050919050565b6040518060400160405280601081526020017f4d61726761726974614b6974746965730000000000000000000000000000000081525081565b6000600360008373ffffffffffffffffffffffffffffffffffffffff1673ffffffffffffffffffffffffffffffffffffffff168152602001908152602001600020549050919050565b6040518060400160405280600281526020017f4d4b00000000000000000000000000000000000000000000000000000000000081525081565b60008054906101000a900473ffffffffffffffffffffffffffffffffffffffff1681565b60606040518060400160405280600281526020017f4d4b000000000000000000000000000000000000000000000000000000000000815250905090565b3373ffffffffffffffffffffffffffffffffffffffff168273ffffffffffffffffffffffffffffffffffffffff16141561095c57600080fd5b61096682826112bd565b8173ffffffffffffffffffffffffffffffffffffffff163373ffffffffffffffffffffffffffffffffffffffff167f17307eab39ab6107e8899845ad3d59bd9653f200f220920489ca2b5937696c31836040516109c39190611b67565b60405180910390a35050565b60046020528060005260406000206000915054906101000a900473ffffffffffffffffffffffffffffffffffffffff1681565b600073ffffffffffffffffffffffffffffffffffffffff168273ffffffffffffffffffffffffffffffffffffffff161415610a72576040517f08c379a0000000000000000000000000000000000000000000000000000000008152600401610a6990611be4565b60405180910390fd5b3073ffffffffffffffffffffffffffffffffffffffff168273ffffffffffffffffffffffffffffffffffffffff161415610ae1576040517f08c379a0000000000000000000000000000000000000000000000000000000008152600401610ad890611ba4565b60405180910390fd5b610aeb3382610fa2565b610b2a576040517f08c379a0000000000000000000000000000000000000000000000000000000008152600401610b2190611bc4565b60405180910390fd5b610b353383836110d0565b5050565b600a81565b610b488584610fa2565b610b5157600080fd5b600073ffffffffffffffffffffffffffffffffffffffff168473ffffffffffffffffffffffffffffffffffffffff161415610b8b57600080fd5b6002805490508310610b9c57600080fd5b8473ffffffffffffffffffffffffffffffffffffffff163373ffffffffffffffffffffffffffffffffffffffff161480610bdc5750610bdb3384611064565b5b80610bed5750610bec8533610e2c565b5b610bf657600080fd5b610c4685858585858080601f016020809104026020016040519081016040528093929190818152602001838380828437600081840152601f19601f82011690508083019250505050505050611297565b5050505050565b60008060009054906101000a900473ffffffffffffffffffffffffffffffffffffffff1673ffffffffffffffffffffffffffffffffffffffff163373ffffffffffffffffffffffffffffffffffffffff1614610ca857600080fd5b600a60015410610cb757600080fd5b60016000815480929190610cca90611eb0565b9190505550610cde60008084600033611355565b9050919050565b610cef3383610fa2565b610d2e576040517f08c379a0000000000000000000000000000000000000000000000000000000008152600401610d2590611c04565b60405180910390fd5b610d383382610fa2565b610d77576040517f08c379a0000000000000000000000000000000000000000000000000000000008152600401610d6e90611c04565b60405180910390fd5b600080610d8383610ec0565b94505050509150600080610d9686610ec0565b945050505091506000610da985846114e2565b9050600082851015610dd857600183610dc29190611cca565b9050600281610dd19190611d20565b9050610e14565b82851115610e0357600185610ded9190611cca565b9050600281610dfc9190611d20565b9050610e13565b600183610e109190611cca565b90505b5b610e218888838533611355565b505050505050505050565b6000600660008473ffffffffffffffffffffffffffffffffffffffff1673ffffffffffffffffffffffffffffffffffffffff16815260200190815260200160002060008373ffffffffffffffffffffffffffffffffffffffff1673ffffffffffffffffffffffffffffffffffffffff16815260200190815260200160002060009054906101000a900460ff16905092915050565b60008060008060008060028781548110610f03577f4e487b7100000000000000000000000000000000000000000000000000000000600052603260045260246000fd5b906000526020600020906002020190508060010160009054906101000a900467ffffffffffffffff1667ffffffffffffffff1694508060010160089054906101000a900463ffffffff1663ffffffff16935080600101600c9054906101000a900463ffffffff1663ffffffff1692508060010160109054906101000a900461ffff1661ffff169150806000015495505091939590929450565b60015481565b60008273ffffffffffffffffffffffffffffffffffffffff166004600084815260200190815260200160002060009054906101000a900473ffffffffffffffffffffffffffffffffffffffff1673ffffffffffffffffffffffffffffffffffffffff1614905092915050565b816005600083815260200190815260200160002060006101000a81548173ffffffffffffffffffffffffffffffffffffffff021916908373ffffffffffffffffffffffffffffffffffffffff1602179055505050565b60008273ffffffffffffffffffffffffffffffffffffffff166005600084815260200190815260200160002060009054906101000a900473ffffffffffffffffffffffffffffffffffffffff1673ffffffffffffffffffffffffffffffffffffffff1614905092915050565b600360008373ffffffffffffffffffffffffffffffffffffffff1673ffffffffffffffffffffffffffffffffffffffff168152602001908152602001600020600081548092919061112090611eb0565b9190505550816004600083815260200190815260200160002060006101000a81548173ffffffffffffffffffffffffffffffffffffffff021916908373ffffffffffffffffffffffffffffffffffffffff160217905550600073ffffffffffffffffffffffffffffffffffffffff168373ffffffffffffffffffffffffffffffffffffffff161461123757600360008473ffffffffffffffffffffffffffffffffffffffff1673ffffffffffffffffffffffffffffffffffffffff16815260200190815260200160002060008154809291906111fb90611e86565b91905055506005600082815260200190815260200160002060006101000a81549073ffffffffffffffffffffffffffffffffffffffff02191690555b808273ffffffffffffffffffffffffffffffffffffffff168473ffffffffffffffffffffffffffffffffffffffff167fddf252ad1be2c89b69c2b068fc378daa952ba7f163c4a11628f55a4df523b3ef60405160405180910390a4505050565b6112a28484846110d0565b6112ae84848484611539565b6112b757600080fd5b50505050565b80600660003373ffffffffffffffffffffffffffffffffffffffff1673ffffffffffffffffffffffffffffffffffffffff16815260200190815260200160002060008473ffffffffffffffffffffffffffffffffffffffff1673ffffffffffffffffffffffffffffffffffffffff16815260200190815260200160002060006101000a81548160ff0219169083151502179055505050565b6000806040518060a001604052808681526020014267ffffffffffffffff1681526020018863ffffffff1681526020018763ffffffff1681526020018561ffff16815250905060028190806001815401808255809150506001900390600052602060002090600202016000909190919091506000820151816000015560208201518160010160006101000a81548167ffffffffffffffff021916908367ffffffffffffffff16021790555060408201518160010160086101000a81548163ffffffff021916908363ffffffff160217905550606082015181600101600c6101000a81548163ffffffff021916908363ffffffff16021790555060808201518160010160106101000a81548161ffff021916908361ffff1602179055505050600060016002805490506114879190611dab565b90507f0a5311bd2a6608f08a180df2ee7c5946819a649b204b554bb8e39825b2c50ad584828a8a8a6040516114c0959493929190611b14565b60405180910390a16114d4600085836110d0565b809250505095945050505050565b6000806305f5e100846114f59190611d20565b905060006305f5e100846115099190611ef9565b905060006305f5e1008361151d9190611d51565b9050818161152b9190611cca565b905080935050505092915050565b600061154484611653565b611551576001905061164b565b60008473ffffffffffffffffffffffffffffffffffffffff1663150b7a02338887876040518563ffffffff1660e01b81526004016115929493929190611ac8565b602060405180830381600087803b1580156115ac57600080fd5b505af11580156115c0573d6000803e3d6000fd5b505050506040513d601f19601f820116820180604052508101906115e491906118f4565b90507f150b7a023d4804d13e8c85fb27262cb750cf6ba9f9dd3bb30d90f482ceeb4b1f7bffffffffffffffffffffffffffffffffffffffffffffffffffffffff1916817bffffffffffffffffffffffffffffffffffffffffffffffffffffffff1916149150505b949350505050565b600080823b905060008163ffffffff1611915050919050565b60008135905061167b81612089565b92915050565b600081359050611690816120a0565b92915050565b6000813590506116a5816120b7565b92915050565b6000815190506116ba816120b7565b92915050565b60008083601f8401126116d257600080fd5b8235905067ffffffffffffffff8111156116eb57600080fd5b60208301915083600182028301111561170357600080fd5b9250929050565b600081359050611719816120ce565b92915050565b60006020828403121561173157600080fd5b600061173f8482850161166c565b91505092915050565b6000806040838503121561175b57600080fd5b60006117698582860161166c565b925050602061177a8582860161166c565b9150509250929050565b60008060006060848603121561179957600080fd5b60006117a78682870161166c565b93505060206117b88682870161166c565b92505060406117c98682870161170a565b9150509250925092565b6000806000806000608086880312156117eb57600080fd5b60006117f98882890161166c565b955050602061180a8882890161166c565b945050604061181b8882890161170a565b935050606086013567ffffffffffffffff81111561183857600080fd5b611844888289016116c0565b92509250509295509295909350565b6000806040838503121561186657600080fd5b60006118748582860161166c565b925050602061188585828601611681565b9150509250929050565b600080604083850312156118a257600080fd5b60006118b08582860161166c565b92505060206118c18582860161170a565b9150509250929050565b6000602082840312156118dd57600080fd5b60006118eb84828501611696565b91505092915050565b60006020828403121561190657600080fd5b6000611914848285016116ab565b91505092915050565b60006020828403121561192f57600080fd5b600061193d8482850161170a565b91505092915050565b6000806040838503121561195957600080fd5b60006119678582860161170a565b92505060206119788582860161170a565b9150509250929050565b61198b81611ddf565b82525050565b61199a81611df1565b82525050565b60006119ab82611c92565b6119b58185611ca8565b93506119c5818560208601611e53565b6119ce81611f88565b840191505092915050565b60006119e482611c9d565b6119ee8185611cb9565b93506119fe818560208601611e53565b611a0781611f88565b840191505092915050565b6000611a1f602383611cb9565b9150611a2a82611f99565b604082019050919050565b6000611a42602183611cb9565b9150611a4d82611fe8565b604082019050919050565b6000611a65601783611cb9565b9150611a7082612037565b602082019050919050565b6000611a88601f83611cb9565b9150611a9382612060565b602082019050919050565b611aa781611e49565b82525050565b6000602082019050611ac26000830184611982565b92915050565b6000608082019050611add6000830187611982565b611aea6020830186611982565b611af76040830185611a9e565b8181036060830152611b0981846119a0565b905095945050505050565b600060a082019050611b296000830188611982565b611b366020830187611a9e565b611b436040830186611a9e565b611b506060830185611a9e565b611b5d6080830184611a9e565b9695505050505050565b6000602082019050611b7c6000830184611991565b92915050565b60006020820190508181036000830152611b9c81846119d9565b905092915050565b60006020820190508181036000830152611bbd81611a12565b9050919050565b60006020820190508181036000830152611bdd81611a35565b9050919050565b60006020820190508181036000830152611bfd81611a58565b9050919050565b60006020820190508181036000830152611c1d81611a7b565b9050919050565b6000602082019050611c396000830184611a9e565b92915050565b600060a082019050611c546000830188611a9e565b611c616020830187611a9e565b611c6e6040830186611a9e565b611c7b6060830185611a9e565b611c886080830184611a9e565b9695505050505050565b600081519050919050565b600081519050919050565b600082825260208201905092915050565b600082825260208201905092915050565b6000611cd582611e49565b9150611ce083611e49565b9250827fffffffffffffffffffffffffffffffffffffffffffffffffffffffffffffffff03821115611d1557611d14611f2a565b5b828201905092915050565b6000611d2b82611e49565b9150611d3683611e49565b925082611d4657611d45611f59565b5b828204905092915050565b6000611d5c82611e49565b9150611d6783611e49565b9250817fffffffffffffffffffffffffffffffffffffffffffffffffffffffffffffffff0483118215151615611da057611d9f611f2a565b5b828202905092915050565b6000611db682611e49565b9150611dc183611e49565b925082821015611dd457611dd3611f2a565b5b828203905092915050565b6000611dea82611e29565b9050919050565b60008115159050919050565b60007fffffffff0000000000000000000000000000000000000000000000000000000082169050919050565b600073ffffffffffffffffffffffffffffffffffffffff82169050919050565b6000819050919050565b60005b83811015611e71578082015181840152602081019050611e56565b83811115611e80576000848401525b50505050565b6000611e9182611e49565b91506000821415611ea557611ea4611f2a565b5b600182039050919050565b6000611ebb82611e49565b91507fffffffffffffffffffffffffffffffffffffffffffffffffffffffffffffffff821415611eee57611eed611f2a565b5b600182019050919050565b6000611f0482611e49565b9150611f0f83611e49565b925082611f1f57611f1e611f59565b5b828206905092915050565b7f4e487b7100000000000000000000000000000000000000000000000000000000600052601160045260246000fd5b7f4e487b7100000000000000000000000000000000000000000000000000000000600052601260045260246000fd5b6000601f19601f8301169050919050565b7f4552433732313a2063616e6e6f74207472616e7366657220746f20796f75727360008201527f656c660000000000000000000000000000000000000000000000000000000000602082015250565b7f4552433732313a20796f7520646f206e6f74206f776e207468697320746f6b6560008201527f6e00000000000000000000000000000000000000000000000000000000000000602082015250565b7f4552433732313a20696e76616c69642061646472657373000000000000000000600082015250565b7f546865207573657220646f6573206e6f74206f776e2074686520746f6b656e00600082015250565b61209281611ddf565b811461209d57600080fd5b50565b6120a981611df1565b81146120b457600080fd5b50565b6120c081611dfd565b81146120cb57600080fd5b50565b6120d781611e49565b81146120e257600080fd5b5056fea2646970667358221220283c9392c0aaad756d4aa0d4b467410beed63b1894412c4442e3a544cd216e1a64736f6c63430008030033",
  "immutableReferences": {},
  "source": "// SPDX-License-Identifier: MIT\n\npragma solidity ^0.8.3;\n\nimport \"./Ownable.sol\";\nimport \"./IERC721.sol\";\nimport \"./IERC721Receiver.sol\";\n\ncontract kittyContract is IERC721, Ownable {\n    \n    uint256 public constant CREATION_LIMIT_GEN0=10;\n    string public constant tokenName = \"MargaritaKitties\";\n    string public constant tokenSymbol = \"MK\";\n\n    bytes4 internal constant MAGIC_ERC721_RECEIVED = bytes4(keccak256(\"onERC721Received(address,address,uint256,bytes)\"));\n    bytes4 private constant __INTERFACE_TO_ERC721 = 0x80ac58cd;\n    bytes4 private constant __INTERFACE_TO_ERC165 = 0x01ffc9a7;\n\n\n    uint256 public gen0Counter;\n    \n    event Birth(\n        address owner,\n        uint256 newKittenId,\n        uint256 mumId,\n        uint256 dadId,\n        uint256 genes\n    );\n    \n    struct Kitty{\n        uint256 genes;\n        uint64 birthTime;\n        uint32 mumId;\n        uint32 dadId;\n        uint16 generation;\n    }\n\n    Kitty[] kitties;\n\n\n    mapping (address => uint256) ownershipTokenCount;\n    mapping (uint256 => address) public kittyIndexToOwner;\n    mapping (uint256 => address) public kittyIndexToApproved;\n    mapping (address => mapping(address => bool)) private _operatorApprovals;\n\nfunction supportsInterface( bytes4 _interfaceId) external pure returns (bool){\n    return (_interfaceId == __INTERFACE_TO_ERC165 || _interfaceId == __INTERFACE_TO_ERC721);\n}\n\nfunction breed(uint256 _mumId, uint256 _dadId) public {\n    require(_owns(msg.sender, _mumId), \"The user does not own the token\");\n    require(_owns(msg.sender, _dadId), \"The user does not own the token\");\n\n    (uint256 dadDna,,,,uint256 DadGeneration) = getKitty(_dadId);\n    (uint256 mumDna,,,,uint256 MumGeneration) = getKitty(_mumId);\n    uint256 newDna = _mixDna(dadDna, mumDna);\n\n    uint256 kidGen = 0;\n\n    if (DadGeneration < MumGeneration){\n        kidGen = MumGeneration + 1;\n        kidGen /=2;\n    } else if (DadGeneration > MumGeneration){\n        kidGen = DadGeneration + 1;\n        kidGen /=2;\n    } else{\n        kidGen = MumGeneration + 1;\n    }\n\n    _createKitty(_mumId, _dadId, kidGen, newDna, msg.sender);\n}\n\nfunction createKittyGen0(uint256 _genes) public onlyOwner returns(uint256){\n    require(gen0Counter< CREATION_LIMIT_GEN0);\n\n    gen0Counter++;\n\n    return _createKitty(0, 0, _genes, 0, msg.sender);\n\n}\n\nfunction getKitty(uint256 _tokenId) public view returns(\n        uint256 genes, \n        uint256 birthTime, \n        uint256 mumId, \n        uint256 dadId, \n        uint256 generation){\n\n            Kitty storage kitty = kitties[_tokenId];\n\n        birthTime = uint256(kitty.birthTime);\n        mumId = uint256(kitty.mumId);\n        dadId = uint256(kitty.dadId);\n        generation = uint256(kitty.generation);\n        genes = kitty.genes;\n}\n\nfunction _createKitty(\n    uint256 _mumId,\n    uint256 _dadId,\n    uint256 _genes,\n    uint256 _generation,\n    address _owner\n) private returns (uint256){\n    Kitty memory _kitty = Kitty({\n        genes: _genes,\n        birthTime: uint64(block.timestamp),\n        mumId: uint32(_mumId),\n        dadId: uint32(_dadId),\n        generation: uint16(_generation)\n    });\n\n    kitties.push(_kitty);\n\n    uint256 newKittenId = kitties.length -1;\n\n    emit Birth(_owner, newKittenId, _mumId, _dadId, _genes);\n\n    _transfer(address(0), _owner, newKittenId);\n\n    return newKittenId;\n}\n\n\nfunction balanceOf(address owner) external view override returns (uint256){\n    return ownershipTokenCount[owner];\n}\n\nfunction totalSupply() external view override returns (uint256){\n    return kitties.length;\n}\n\nfunction name() external pure override returns (string memory){\n    return tokenName;\n}\n\nfunction symbol() external pure override returns (string memory){\n    return tokenSymbol;\n}\n\nfunction ownerOf(uint256 _tokenId) external view override returns (address){\n    return kittyIndexToOwner[_tokenId];\n}\n\nfunction _safeTransfer(address _from, address _to, uint256 _tokenId, bytes memory _data) internal{\n    _transfer(_from, _to, _tokenId);\n    require(_checkERC721Support(_from, _to, _tokenId, _data));\n\n}\n\nfunction safeTransferFrom(address _from, address _to, uint256 _tokenId, bytes calldata _data) override external{\n    require(_owns(_from, _tokenId));\n    require(_to != address(0));\n    require(_tokenId < kitties.length);\n    require(msg.sender == _from || _approvedFor(msg.sender, _tokenId) || isApprovedForAll(_from, msg.sender));\n\n    _safeTransfer(_from, _to, _tokenId, _data );\n}\n\nfunction safeTransferFrom(address _from, address _to, uint256 _tokenId) override external{\n    _safeTransfer(_from, _to, _tokenId, \"\");\n}\n\n\nfunction transferFrom(address _from, address _to, uint256 _tokenId) override public {\n    require(_owns(_from, _tokenId));\n    require(_to != address(0));\n    require(_tokenId < kitties.length);\n    require(msg.sender == _from || _approvedFor(msg.sender, _tokenId) || isApprovedForAll(_from, msg.sender));\n\n    _transfer(msg.sender, _to, _tokenId);\n}\n\n\nfunction transfer(address _to, uint256 _tokenId) public override {\n    require (_to != address(0), \"ERC721: invalid address\");\n    require (_to != address(this), \"ERC721: cannot transfer to yourself\");\n    require (_owns(msg.sender,_tokenId), \"ERC721: you do not own this token\");\n\n    _transfer(msg.sender, _to, _tokenId);\n}\n\nfunction _transfer(address _from, address _to, uint256 _tokenId) internal {\n    ownershipTokenCount[_to]++;\n    kittyIndexToOwner[_tokenId] = _to;\n\n    if(_from != address(0)){\n        ownershipTokenCount[_from]--;\n        delete kittyIndexToApproved[_tokenId];\n    }\n\nemit Transfer(_from, _to, _tokenId);\n}\n\nfunction approve(address _approved, uint256 _tokenId) override public {\n    require (_owns(msg.sender, _tokenId), \"ERC721: you do not own this token\");\n    \n    _approve(_approved, _tokenId);\n    emit Approval(msg.sender, _approved, _tokenId);\n}\n\nfunction setApprovalForAll(address _operator, bool approved) override external{\n    require (_operator != msg.sender);\n\n    _setApprovalForAll(_operator, approved);\n    emit ApprovalForAll(msg.sender, _operator, approved);\n}\n\nfunction _setApprovalForAll(address _operator, bool approved) internal{\n_operatorApprovals[msg.sender][_operator] = approved;\n}\n\nfunction getApproved(uint256 _tokenId) external view override returns (address){\n    require (_tokenId < kitties.length); //Token must exist;\n\n    return kittyIndexToApproved[_tokenId];\n}\n\nfunction isApprovedForAll(address _owner, address _operator) public view override returns (bool){\n    return _operatorApprovals[_owner][_operator];\n}\n\nfunction _approve(address _approved, uint256 _tokenId) internal{\n    kittyIndexToApproved[_tokenId] = _approved;\n}\n\nfunction _owns(address _claimant, uint256 _tokenId) internal view returns(bool){\n    return kittyIndexToOwner[_tokenId]==_claimant;\n}\nfunction _approvedFor(address _claimant, uint256 _tokenId) internal view returns(bool){\n    return kittyIndexToApproved[_tokenId]==_claimant;\n    }\n\nfunction _checkERC721Support(address _from, address _to, uint256 _tokenId, bytes memory _data) internal returns(bool){\n    if(!_isContract(_to)){\n        return true;\n    }\n    bytes4 returnData = IERC721Receiver(_to).onERC721Received(msg.sender, _from, _tokenId, _data);\n    return returnData == MAGIC_ERC721_RECEIVED;\n}\n\nfunction _isContract(address _to) view internal returns(bool){\n    uint32 size;\n    assembly{\n        size := extcodesize(_to)\n    }\n    return size > 0;\n}\n\nfunction _mixDna(uint256 _mumId, uint256 _dadId) internal pure returns(uint256){\n    uint256 firstHalf = _mumId / 100000000;\n    uint256 secondHalf = _dadId % 100000000;\n\n    uint256 newDna = firstHalf * 100000000;\n    newDna = newDna + secondHalf;\n\n    return newDna;\n}\n\n}\n",
  "sourcePath": "/Users/margaritagyorgiev/Desktop/IOT/Ethereum course advanced/CryptoKitties_Clone/academy-kitties-template/contracts/kittyContract.sol",
  "compiler": {
    "name": "solc",
    "version": "0.8.3+commit.8d00100c.Emscripten.clang"
  },
  "schemaVersion": "3.3.4",
  "updatedAt": "2021-06-20T23:31:38.333Z",
  "networkType": "ethereum",
  "devdoc": {
    "kind": "dev",
    "methods": {
      "approve(address,uint256)": {
        "details": "The zero address indicates there is no approved address.  Throws unless `msg.sender` is the current NFT owner, or an authorized  operator of the current owner.",
        "params": {
          "_approved": "The new approved NFT controller",
          "_tokenId": "The NFT to approve"
        }
      },
      "balanceOf(address)": {
        "details": "Returns the number of tokens in ``owner``'s account."
      },
      "getApproved(uint256)": {
        "details": "Throws if `_tokenId` is not a valid NFT.",
        "params": {
          "_tokenId": "The NFT to find the approved address for"
        },
        "returns": {
          "_0": "The approved address for this NFT, or the zero address if there is none"
        }
      },
      "isApprovedForAll(address,address)": {
        "params": {
          "_operator": "The address that acts on behalf of the owner",
          "_owner": "The address that owns the NFTs"
        },
        "returns": {
          "_0": "True if `_operator` is an approved operator for `_owner`, false otherwise"
        }
      },
      "safeTransferFrom(address,address,uint256)": {
        "details": "This works identically to the other function with an extra data parameter,  except this function just sets data to \"\".",
        "params": {
          "_from": "The current owner of the NFT",
          "_to": "The new owner",
          "_tokenId": "The NFT to transfer"
        }
      },
      "transferFrom(address,address,uint256)": {
        "details": "Throws unless `msg.sender` is the current owner, an authorized  operator, or the approved address for this NFT. Throws if `_from` is  not the current owner. Throws if `_to` is the zero address. Throws if  `_tokenId` is not a valid NFT.",
        "params": {
          "_from": "The current owner of the NFT",
          "_to": "The new owner",
          "_tokenId": "The NFT to transfer"
        }
      }
    },
    "version": 1
  },
  "userdoc": {
    "kind": "user",
    "methods": {
      "approve(address,uint256)": {
        "notice": "Change or reaffirm the approved address for an NFT"
      },
      "getApproved(uint256)": {
        "notice": "Get the approved address for a single NFT"
      },
      "isApprovedForAll(address,address)": {
        "notice": "Query if an address is an authorized operator for another address"
      },
      "safeTransferFrom(address,address,uint256)": {
        "notice": "Transfers the ownership of an NFT from one address to another address"
      },
      "transferFrom(address,address,uint256)": {
        "notice": "Transfer ownership of an NFT -- THE CALLER IS RESPONSIBLE  TO CONFIRM THAT `_to` IS CAPABLE OF RECEIVING NFTS OR ELSE  THEY MAY BE PERMANENTLY LOST"
      }
    },
    "version": 1
  }
}