{
  "contractName": "kittyContract",
  "abi": [
    {
      "anonymous": false,
      "inputs": [
        {
          "indexed": true,
          "internalType": "address",
          "name": "owner",
          "type": "address"
        },
        {
          "indexed": true,
          "internalType": "address",
          "name": "approved",
          "type": "address"
        },
        {
          "indexed": true,
          "internalType": "uint256",
          "name": "tokenId",
          "type": "uint256"
        }
      ],
      "name": "Approval",
      "type": "event"
    },
    {
      "anonymous": false,
      "inputs": [
        {
          "indexed": true,
          "internalType": "address",
          "name": "owner",
          "type": "address"
        },
        {
          "indexed": true,
          "internalType": "address",
          "name": "operator",
          "type": "address"
        },
        {
          "indexed": false,
          "internalType": "bool",
          "name": "approved",
          "type": "bool"
        }
      ],
      "name": "ApprovalForAll",
      "type": "event"
    },
    {
      "anonymous": false,
      "inputs": [
        {
          "indexed": false,
          "internalType": "address",
          "name": "owner",
          "type": "address"
        },
        {
          "indexed": false,
          "internalType": "uint256",
          "name": "newKittenId",
          "type": "uint256"
        },
        {
          "indexed": false,
          "internalType": "uint256",
          "name": "mumId",
          "type": "uint256"
        },
        {
          "indexed": false,
          "internalType": "uint256",
          "name": "dadId",
          "type": "uint256"
        },
        {
          "indexed": false,
          "internalType": "uint256",
          "name": "genes",
          "type": "uint256"
        }
      ],
      "name": "Birth",
      "type": "event"
    },
    {
      "anonymous": false,
      "inputs": [
        {
          "indexed": true,
          "internalType": "address",
          "name": "from",
          "type": "address"
        },
        {
          "indexed": true,
          "internalType": "address",
          "name": "to",
          "type": "address"
        },
        {
          "indexed": true,
          "internalType": "uint256",
          "name": "tokenId",
          "type": "uint256"
        }
      ],
      "name": "Transfer",
      "type": "event"
    },
    {
      "inputs": [],
      "name": "CREATION_LIMIT_GEN0",
      "outputs": [
        {
          "internalType": "uint256",
          "name": "",
          "type": "uint256"
        }
      ],
      "stateMutability": "view",
      "type": "function",
      "constant": true
    },
    {
      "inputs": [],
      "name": "gen0Counter",
      "outputs": [
        {
          "internalType": "uint256",
          "name": "",
          "type": "uint256"
        }
      ],
      "stateMutability": "view",
      "type": "function",
      "constant": true
    },
    {
      "inputs": [
        {
          "internalType": "uint256",
          "name": "",
          "type": "uint256"
        }
      ],
      "name": "kittyIndexToApproved",
      "outputs": [
        {
          "internalType": "address",
          "name": "",
          "type": "address"
        }
      ],
      "stateMutability": "view",
      "type": "function",
      "constant": true
    },
    {
      "inputs": [
        {
          "internalType": "uint256",
          "name": "",
          "type": "uint256"
        }
      ],
      "name": "kittyIndexToOwner",
      "outputs": [
        {
          "internalType": "address",
          "name": "",
          "type": "address"
        }
      ],
      "stateMutability": "view",
      "type": "function",
      "constant": true
    },
    {
      "inputs": [],
      "name": "owner",
      "outputs": [
        {
          "internalType": "address",
          "name": "",
          "type": "address"
        }
      ],
      "stateMutability": "view",
      "type": "function",
      "constant": true
    },
    {
      "inputs": [],
      "name": "tokenName",
      "outputs": [
        {
          "internalType": "string",
          "name": "",
          "type": "string"
        }
      ],
      "stateMutability": "view",
      "type": "function",
      "constant": true
    },
    {
      "inputs": [],
      "name": "tokenSymbol",
      "outputs": [
        {
          "internalType": "string",
          "name": "",
          "type": "string"
        }
      ],
      "stateMutability": "view",
      "type": "function",
      "constant": true
    },
    {
      "inputs": [
        {
          "internalType": "bytes4",
          "name": "_interfaceId",
          "type": "bytes4"
        }
      ],
      "name": "supportsInterface",
      "outputs": [
        {
          "internalType": "bool",
          "name": "",
          "type": "bool"
        }
      ],
      "stateMutability": "pure",
      "type": "function",
      "constant": true
    },
    {
      "inputs": [
        {
          "internalType": "uint256",
          "name": "_mumId",
          "type": "uint256"
        },
        {
          "internalType": "uint256",
          "name": "_dadId",
          "type": "uint256"
        }
      ],
      "name": "breed",
      "outputs": [],
      "stateMutability": "nonpayable",
      "type": "function"
    },
    {
      "inputs": [
        {
          "internalType": "uint256",
          "name": "_genes",
          "type": "uint256"
        }
      ],
      "name": "createKittyGen0",
      "outputs": [
        {
          "internalType": "uint256",
          "name": "",
          "type": "uint256"
        }
      ],
      "stateMutability": "nonpayable",
      "type": "function"
    },
    {
      "inputs": [
        {
          "internalType": "uint256",
          "name": "_tokenId",
          "type": "uint256"
        }
      ],
      "name": "getKitty",
      "outputs": [
        {
          "internalType": "uint256",
          "name": "genes",
          "type": "uint256"
        },
        {
          "internalType": "uint256",
          "name": "birthTime",
          "type": "uint256"
        },
        {
          "internalType": "uint256",
          "name": "mumId",
          "type": "uint256"
        },
        {
          "internalType": "uint256",
          "name": "dadId",
          "type": "uint256"
        },
        {
          "internalType": "uint256",
          "name": "generation",
          "type": "uint256"
        }
      ],
      "stateMutability": "view",
      "type": "function",
      "constant": true
    },
    {
      "inputs": [
        {
          "internalType": "address",
          "name": "owner",
          "type": "address"
        }
      ],
      "name": "balanceOf",
      "outputs": [
        {
          "internalType": "uint256",
          "name": "",
          "type": "uint256"
        }
      ],
      "stateMutability": "view",
      "type": "function",
      "constant": true
    },
    {
      "inputs": [],
      "name": "totalSupply",
      "outputs": [
        {
          "internalType": "uint256",
          "name": "",
          "type": "uint256"
        }
      ],
      "stateMutability": "view",
      "type": "function",
      "constant": true
    },
    {
      "inputs": [],
      "name": "name",
      "outputs": [
        {
          "internalType": "string",
          "name": "",
          "type": "string"
        }
      ],
      "stateMutability": "pure",
      "type": "function",
      "constant": true
    },
    {
      "inputs": [],
      "name": "symbol",
      "outputs": [
        {
          "internalType": "string",
          "name": "",
          "type": "string"
        }
      ],
      "stateMutability": "pure",
      "type": "function",
      "constant": true
    },
    {
      "inputs": [
        {
          "internalType": "uint256",
          "name": "_tokenId",
          "type": "uint256"
        }
      ],
      "name": "ownerOf",
      "outputs": [
        {
          "internalType": "address",
          "name": "",
          "type": "address"
        }
      ],
      "stateMutability": "view",
      "type": "function",
      "constant": true
    },
    {
      "inputs": [
        {
          "internalType": "address",
          "name": "_from",
          "type": "address"
        },
        {
          "internalType": "address",
          "name": "_to",
          "type": "address"
        },
        {
          "internalType": "uint256",
          "name": "_tokenId",
          "type": "uint256"
        }
      ],
      "name": "safeTransferFrom",
      "outputs": [],
      "stateMutability": "nonpayable",
      "type": "function"
    },
    {
      "inputs": [
        {
          "internalType": "address",
          "name": "_from",
          "type": "address"
        },
        {
          "internalType": "address",
          "name": "_to",
          "type": "address"
        },
        {
          "internalType": "uint256",
          "name": "_tokenId",
          "type": "uint256"
        },
        {
          "internalType": "bytes",
          "name": "_data",
          "type": "bytes"
        }
      ],
      "name": "safeTransferFrom",
      "outputs": [],
      "stateMutability": "nonpayable",
      "type": "function"
    },
    {
      "inputs": [
        {
          "internalType": "address",
          "name": "_from",
          "type": "address"
        },
        {
          "internalType": "address",
          "name": "_to",
          "type": "address"
        },
        {
          "internalType": "uint256",
          "name": "_tokenId",
          "type": "uint256"
        }
      ],
      "name": "transferFrom",
      "outputs": [],
      "stateMutability": "nonpayable",
      "type": "function"
    },
    {
      "inputs": [
        {
          "internalType": "address",
          "name": "_to",
          "type": "address"
        },
        {
          "internalType": "uint256",
          "name": "_tokenId",
          "type": "uint256"
        }
      ],
      "name": "transfer",
      "outputs": [],
      "stateMutability": "nonpayable",
      "type": "function"
    },
    {
      "inputs": [
        {
          "internalType": "address",
          "name": "_approved",
          "type": "address"
        },
        {
          "internalType": "uint256",
          "name": "_tokenId",
          "type": "uint256"
        }
      ],
      "name": "approve",
      "outputs": [],
      "stateMutability": "nonpayable",
      "type": "function"
    },
    {
      "inputs": [
        {
          "internalType": "address",
          "name": "_operator",
          "type": "address"
        },
        {
          "internalType": "bool",
          "name": "approved",
          "type": "bool"
        }
      ],
      "name": "setApprovalForAll",
      "outputs": [],
      "stateMutability": "nonpayable",
      "type": "function"
    },
    {
      "inputs": [
        {
          "internalType": "uint256",
          "name": "_tokenId",
          "type": "uint256"
        }
      ],
      "name": "getApproved",
      "outputs": [
        {
          "internalType": "address",
          "name": "",
          "type": "address"
        }
      ],
      "stateMutability": "view",
      "type": "function",
      "constant": true
    },
    {
      "inputs": [
        {
          "internalType": "address",
          "name": "_owner",
          "type": "address"
        },
        {
          "internalType": "address",
          "name": "_operator",
          "type": "address"
        }
      ],
      "name": "isApprovedForAll",
      "outputs": [
        {
          "internalType": "bool",
          "name": "",
          "type": "bool"
        }
      ],
      "stateMutability": "view",
      "type": "function",
      "constant": true
    },
    {
      "inputs": [
        {
          "internalType": "address",
          "name": "_owner",
          "type": "address"
        }
      ],
      "name": "tokensOfOwner",
      "outputs": [
        {
          "internalType": "uint256[]",
          "name": "ownerTokens",
          "type": "uint256[]"
        }
      ],
      "stateMutability": "view",
      "type": "function",
      "constant": true
    }
  ],
  "bytecode": "0x608060405234801561001057600080fd5b50336000806101000a81548173ffffffffffffffffffffffffffffffffffffffff021916908373ffffffffffffffffffffffffffffffffffffffff160217905550612458806100606000396000f3fe608060405234801561001057600080fd5b50600436106101735760003560e01c80638462151c116100de578063b483433011610097578063d9ecad7b11610071578063d9ecad7b14610472578063e985e9c51461048e578063e98b7f4d146104be578063ef5e94aa146104f257610173565b8063b483433014610408578063b88d4fde14610426578063d5a776ca1461044257610173565b80638462151c146103345780638da5cb5b1461036457806395d89b4114610382578063a22cb465146103a0578063a45f4bfc146103bc578063a9059cbb146103ec57610173565b806342842e0e1161013057806342842e0e1461024c578063481af3d3146102685780636352211e146102985780636c02a931146102c857806370a08231146102e65780637b61c3201461031657610173565b806301ffc9a71461017857806306fdde03146101a8578063081812fc146101c6578063095ea7b3146101f657806318160ddd1461021257806323b872dd14610230575b600080fd5b610192600480360381019061018d9190611aa1565b610510565b60405161019f9190611df4565b60405180910390f35b6101b06105b0565b6040516101bd9190611e0f565b60405180910390f35b6101e060048036038101906101db9190611afb565b6105ed565b6040516101ed9190611d18565b60405180910390f35b610210600480360381019061020b9190611a61565b61063b565b005b61021a6106ed565b6040516102279190611eb1565b60405180910390f35b61024a60048036038101906102459190611946565b6106fa565b005b61026660048036038101906102619190611946565b6107c2565b005b610282600480360381019061027d9190611afb565b6107e2565b60405161028f9190611d18565b60405180910390f35b6102b260048036038101906102ad9190611afb565b610815565b6040516102bf9190611d18565b60405180910390f35b6102d0610852565b6040516102dd9190611e0f565b60405180910390f35b61030060048036038101906102fb91906118d9565b61088b565b60405161030d9190611eb1565b60405180910390f35b61031e6108d4565b60405161032b9190611e0f565b60405180910390f35b61034e600480360381019061034991906118d9565b61090d565b60405161035b9190611dd2565b60405180910390f35b61036c610a96565b6040516103799190611d18565b60405180910390f35b61038a610aba565b6040516103979190611e0f565b60405180910390f35b6103ba60048036038101906103b59190611a21565b610af7565b005b6103d660048036038101906103d19190611afb565b610ba3565b6040516103e39190611d18565b60405180910390f35b61040660048036038101906104019190611a61565b610bd6565b005b610410610d0d565b60405161041d9190611eb1565b60405180910390f35b610440600480360381019061043b9190611999565b610d12565b005b61045c60048036038101906104579190611afb565b610e21565b6040516104699190611eb1565b60405180910390f35b61048c60048036038101906104879190611b28565b610eb9565b005b6104a860048036038101906104a39190611906565b611000565b6040516104b59190611df4565b60405180910390f35b6104d860048036038101906104d39190611afb565b611094565b6040516104e9959493929190611ecc565b60405180910390f35b6104fa61114a565b6040516105079190611eb1565b60405180910390f35b60006301ffc9a760e01b7bffffffffffffffffffffffffffffffffffffffffffffffffffffffff1916827bffffffffffffffffffffffffffffffffffffffffffffffffffffffff191614806105a957506380ac58cd60e01b7bffffffffffffffffffffffffffffffffffffffffffffffffffffffff1916827bffffffffffffffffffffffffffffffffffffffffffffffffffffffff1916145b9050919050565b60606040518060400160405280601081526020017f4d61726761726974614b69747469657300000000000000000000000000000000815250905090565b6000600280549050821061060057600080fd5b6005600083815260200190815260200160002060009054906101000a900473ffffffffffffffffffffffffffffffffffffffff169050919050565b6106453382611150565b610684576040517f08c379a000000000000000000000000000000000000000000000000000000000815260040161067b90611e51565b60405180910390fd5b61068e82826111bc565b808273ffffffffffffffffffffffffffffffffffffffff163373ffffffffffffffffffffffffffffffffffffffff167f8c5be1e5ebec7d5bd14f71427d1e84f3dd0314c0f7b2291e5b200ac8c7c3b92560405160405180910390a45050565b6000600280549050905090565b6107048382611150565b61070d57600080fd5b600073ffffffffffffffffffffffffffffffffffffffff168273ffffffffffffffffffffffffffffffffffffffff16141561074757600080fd5b600280549050811061075857600080fd5b8273ffffffffffffffffffffffffffffffffffffffff163373ffffffffffffffffffffffffffffffffffffffff16148061079857506107973382611212565b5b806107a957506107a88333611000565b5b6107b257600080fd5b6107bd33838361127e565b505050565b6107dd83838360405180602001604052806000815250611445565b505050565b60056020528060005260406000206000915054906101000a900473ffffffffffffffffffffffffffffffffffffffff1681565b60006004600083815260200190815260200160002060009054906101000a900473ffffffffffffffffffffffffffffffffffffffff169050919050565b6040518060400160405280601081526020017f4d61726761726974614b6974746965730000000000000000000000000000000081525081565b6000600360008373ffffffffffffffffffffffffffffffffffffffff1673ffffffffffffffffffffffffffffffffffffffff168152602001908152602001600020549050919050565b6040518060400160405280600281526020017f4d4b00000000000000000000000000000000000000000000000000000000000081525081565b6060600061091a8361088b565b9050600081141561097757600067ffffffffffffffff8111156109405761093f61227d565b5b60405190808252806020026020018201604052801561096e5781602001602082028036833780820191505090505b50915050610a91565b60008167ffffffffffffffff8111156109935761099261227d565b5b6040519080825280602002602001820160405280156109c15781602001602082028036833780820191505090505b50905060006109ce6106ed565b9050600080600190505b828111610a88578673ffffffffffffffffffffffffffffffffffffffff166004600083815260200190815260200160002060009054906101000a900473ffffffffffffffffffffffffffffffffffffffff1673ffffffffffffffffffffffffffffffffffffffff161415610a755780848381518110610a5a57610a5961224e565b5b6020026020010181815250508180610a7190612176565b9250505b8080610a8090612176565b9150506109d8565b83955050505050505b919050565b60008054906101000a900473ffffffffffffffffffffffffffffffffffffffff1681565b60606040518060400160405280600281526020017f4d4b000000000000000000000000000000000000000000000000000000000000815250905090565b3373ffffffffffffffffffffffffffffffffffffffff168273ffffffffffffffffffffffffffffffffffffffff161415610b3057600080fd5b610b3a828261146b565b8173ffffffffffffffffffffffffffffffffffffffff163373ffffffffffffffffffffffffffffffffffffffff167f17307eab39ab6107e8899845ad3d59bd9653f200f220920489ca2b5937696c3183604051610b979190611df4565b60405180910390a35050565b60046020528060005260406000206000915054906101000a900473ffffffffffffffffffffffffffffffffffffffff1681565b600073ffffffffffffffffffffffffffffffffffffffff168273ffffffffffffffffffffffffffffffffffffffff161415610c46576040517f08c379a0000000000000000000000000000000000000000000000000000000008152600401610c3d90611e71565b60405180910390fd5b3073ffffffffffffffffffffffffffffffffffffffff168273ffffffffffffffffffffffffffffffffffffffff161415610cb5576040517f08c379a0000000000000000000000000000000000000000000000000000000008152600401610cac90611e31565b60405180910390fd5b610cbf3382611150565b610cfe576040517f08c379a0000000000000000000000000000000000000000000000000000000008152600401610cf590611e51565b60405180910390fd5b610d0933838361127e565b5050565b600a81565b610d1c8584611150565b610d2557600080fd5b600073ffffffffffffffffffffffffffffffffffffffff168473ffffffffffffffffffffffffffffffffffffffff161415610d5f57600080fd5b6002805490508310610d7057600080fd5b8473ffffffffffffffffffffffffffffffffffffffff163373ffffffffffffffffffffffffffffffffffffffff161480610db05750610daf3384611212565b5b80610dc15750610dc08533611000565b5b610dca57600080fd5b610e1a85858585858080601f016020809104026020016040519081016040528093929190818152602001838380828437600081840152601f19601f82011690508083019250505050505050611445565b5050505050565b60008060009054906101000a900473ffffffffffffffffffffffffffffffffffffffff1673ffffffffffffffffffffffffffffffffffffffff163373ffffffffffffffffffffffffffffffffffffffff1614610e7c57600080fd5b600a60015410610e8b57600080fd5b60016000815480929190610e9e90612176565b9190505550610eb260008084600033611503565b9050919050565b610ec33383611150565b610f02576040517f08c379a0000000000000000000000000000000000000000000000000000000008152600401610ef990611e91565b60405180910390fd5b610f0c3382611150565b610f4b576040517f08c379a0000000000000000000000000000000000000000000000000000000008152600401610f4290611e91565b60405180910390fd5b600080610f5783611094565b94505050509150600080610f6a86611094565b945050505091506000610f7d8584611690565b9050600082851015610fac57600183610f969190611f90565b9050600281610fa59190611fe6565b9050610fe8565b82851115610fd757600185610fc19190611f90565b9050600281610fd09190611fe6565b9050610fe7565b600183610fe49190611f90565b90505b5b610ff58888838533611503565b505050505050505050565b6000600660008473ffffffffffffffffffffffffffffffffffffffff1673ffffffffffffffffffffffffffffffffffffffff16815260200190815260200160002060008373ffffffffffffffffffffffffffffffffffffffff1673ffffffffffffffffffffffffffffffffffffffff16815260200190815260200160002060009054906101000a900460ff16905092915050565b600080600080600080600287815481106110b1576110b061224e565b5b906000526020600020906002020190508060010160009054906101000a900467ffffffffffffffff1667ffffffffffffffff1694508060010160089054906101000a900463ffffffff1663ffffffff16935080600101600c9054906101000a900463ffffffff1663ffffffff1692508060010160109054906101000a900461ffff1661ffff169150806000015495505091939590929450565b60015481565b60008273ffffffffffffffffffffffffffffffffffffffff166004600084815260200190815260200160002060009054906101000a900473ffffffffffffffffffffffffffffffffffffffff1673ffffffffffffffffffffffffffffffffffffffff1614905092915050565b816005600083815260200190815260200160002060006101000a81548173ffffffffffffffffffffffffffffffffffffffff021916908373ffffffffffffffffffffffffffffffffffffffff1602179055505050565b60008273ffffffffffffffffffffffffffffffffffffffff166005600084815260200190815260200160002060009054906101000a900473ffffffffffffffffffffffffffffffffffffffff1673ffffffffffffffffffffffffffffffffffffffff1614905092915050565b600360008373ffffffffffffffffffffffffffffffffffffffff1673ffffffffffffffffffffffffffffffffffffffff16815260200190815260200160002060008154809291906112ce90612176565b9190505550816004600083815260200190815260200160002060006101000a81548173ffffffffffffffffffffffffffffffffffffffff021916908373ffffffffffffffffffffffffffffffffffffffff160217905550600073ffffffffffffffffffffffffffffffffffffffff168373ffffffffffffffffffffffffffffffffffffffff16146113e557600360008473ffffffffffffffffffffffffffffffffffffffff1673ffffffffffffffffffffffffffffffffffffffff16815260200190815260200160002060008154809291906113a99061214c565b91905055506005600082815260200190815260200160002060006101000a81549073ffffffffffffffffffffffffffffffffffffffff02191690555b808273ffffffffffffffffffffffffffffffffffffffff168473ffffffffffffffffffffffffffffffffffffffff167fddf252ad1be2c89b69c2b068fc378daa952ba7f163c4a11628f55a4df523b3ef60405160405180910390a4505050565b61145084848461127e565b61145c848484846116e7565b61146557600080fd5b50505050565b80600660003373ffffffffffffffffffffffffffffffffffffffff1673ffffffffffffffffffffffffffffffffffffffff16815260200190815260200160002060008473ffffffffffffffffffffffffffffffffffffffff1673ffffffffffffffffffffffffffffffffffffffff16815260200190815260200160002060006101000a81548160ff0219169083151502179055505050565b6000806040518060a001604052808681526020014267ffffffffffffffff1681526020018863ffffffff1681526020018763ffffffff1681526020018561ffff16815250905060028190806001815401808255809150506001900390600052602060002090600202016000909190919091506000820151816000015560208201518160010160006101000a81548167ffffffffffffffff021916908367ffffffffffffffff16021790555060408201518160010160086101000a81548163ffffffff021916908363ffffffff160217905550606082015181600101600c6101000a81548163ffffffff021916908363ffffffff16021790555060808201518160010160106101000a81548161ffff021916908361ffff1602179055505050600060016002805490506116359190612071565b90507f0a5311bd2a6608f08a180df2ee7c5946819a649b204b554bb8e39825b2c50ad584828a8a8a60405161166e959493929190611d7f565b60405180910390a16116826000858361127e565b809250505095945050505050565b6000806305f5e100846116a39190611fe6565b905060006305f5e100846116b791906121bf565b905060006305f5e100836116cb9190612017565b905081816116d99190611f90565b905080935050505092915050565b60006116f284611801565b6116ff57600190506117f9565b60008473ffffffffffffffffffffffffffffffffffffffff1663150b7a02338887876040518563ffffffff1660e01b81526004016117409493929190611d33565b602060405180830381600087803b15801561175a57600080fd5b505af115801561176e573d6000803e3d6000fd5b505050506040513d601f19601f820116820180604052508101906117929190611ace565b90507f150b7a023d4804d13e8c85fb27262cb750cf6ba9f9dd3bb30d90f482ceeb4b1f7bffffffffffffffffffffffffffffffffffffffffffffffffffffffff1916817bffffffffffffffffffffffffffffffffffffffffffffffffffffffff1916149150505b949350505050565b600080823b905060008163ffffffff1611915050919050565b600081359050611829816123c6565b92915050565b60008135905061183e816123dd565b92915050565b600081359050611853816123f4565b92915050565b600081519050611868816123f4565b92915050565b60008083601f840112611884576118836122b1565b5b8235905067ffffffffffffffff8111156118a1576118a06122ac565b5b6020830191508360018202830111156118bd576118bc6122b6565b5b9250929050565b6000813590506118d38161240b565b92915050565b6000602082840312156118ef576118ee6122c0565b5b60006118fd8482850161181a565b91505092915050565b6000806040838503121561191d5761191c6122c0565b5b600061192b8582860161181a565b925050602061193c8582860161181a565b9150509250929050565b60008060006060848603121561195f5761195e6122c0565b5b600061196d8682870161181a565b935050602061197e8682870161181a565b925050604061198f868287016118c4565b9150509250925092565b6000806000806000608086880312156119b5576119b46122c0565b5b60006119c38882890161181a565b95505060206119d48882890161181a565b94505060406119e5888289016118c4565b935050606086013567ffffffffffffffff811115611a0657611a056122bb565b5b611a128882890161186e565b92509250509295509295909350565b60008060408385031215611a3857611a376122c0565b5b6000611a468582860161181a565b9250506020611a578582860161182f565b9150509250929050565b60008060408385031215611a7857611a776122c0565b5b6000611a868582860161181a565b9250506020611a97858286016118c4565b9150509250929050565b600060208284031215611ab757611ab66122c0565b5b6000611ac584828501611844565b91505092915050565b600060208284031215611ae457611ae36122c0565b5b6000611af284828501611859565b91505092915050565b600060208284031215611b1157611b106122c0565b5b6000611b1f848285016118c4565b91505092915050565b60008060408385031215611b3f57611b3e6122c0565b5b6000611b4d858286016118c4565b9250506020611b5e858286016118c4565b9150509250929050565b6000611b748383611cfa565b60208301905092915050565b611b89816120a5565b82525050565b6000611b9a82611f2f565b611ba48185611f5d565b9350611baf83611f1f565b8060005b83811015611be0578151611bc78882611b68565b9750611bd283611f50565b925050600181019050611bb3565b5085935050505092915050565b611bf6816120b7565b82525050565b6000611c0782611f3a565b611c118185611f6e565b9350611c21818560208601612119565b611c2a816122c5565b840191505092915050565b6000611c4082611f45565b611c4a8185611f7f565b9350611c5a818560208601612119565b611c63816122c5565b840191505092915050565b6000611c7b602383611f7f565b9150611c86826122d6565b604082019050919050565b6000611c9e602183611f7f565b9150611ca982612325565b604082019050919050565b6000611cc1601783611f7f565b9150611ccc82612374565b602082019050919050565b6000611ce4601f83611f7f565b9150611cef8261239d565b602082019050919050565b611d038161210f565b82525050565b611d128161210f565b82525050565b6000602082019050611d2d6000830184611b80565b92915050565b6000608082019050611d486000830187611b80565b611d556020830186611b80565b611d626040830185611d09565b8181036060830152611d748184611bfc565b905095945050505050565b600060a082019050611d946000830188611b80565b611da16020830187611d09565b611dae6040830186611d09565b611dbb6060830185611d09565b611dc86080830184611d09565b9695505050505050565b60006020820190508181036000830152611dec8184611b8f565b905092915050565b6000602082019050611e096000830184611bed565b92915050565b60006020820190508181036000830152611e298184611c35565b905092915050565b60006020820190508181036000830152611e4a81611c6e565b9050919050565b60006020820190508181036000830152611e6a81611c91565b9050919050565b60006020820190508181036000830152611e8a81611cb4565b9050919050565b60006020820190508181036000830152611eaa81611cd7565b9050919050565b6000602082019050611ec66000830184611d09565b92915050565b600060a082019050611ee16000830188611d09565b611eee6020830187611d09565b611efb6040830186611d09565b611f086060830185611d09565b611f156080830184611d09565b9695505050505050565b6000819050602082019050919050565b600081519050919050565b600081519050919050565b600081519050919050565b6000602082019050919050565b600082825260208201905092915050565b600082825260208201905092915050565b600082825260208201905092915050565b6000611f9b8261210f565b9150611fa68361210f565b9250827fffffffffffffffffffffffffffffffffffffffffffffffffffffffffffffffff03821115611fdb57611fda6121f0565b5b828201905092915050565b6000611ff18261210f565b9150611ffc8361210f565b92508261200c5761200b61221f565b5b828204905092915050565b60006120228261210f565b915061202d8361210f565b9250817fffffffffffffffffffffffffffffffffffffffffffffffffffffffffffffffff0483118215151615612066576120656121f0565b5b828202905092915050565b600061207c8261210f565b91506120878361210f565b92508282101561209a576120996121f0565b5b828203905092915050565b60006120b0826120ef565b9050919050565b60008115159050919050565b60007fffffffff0000000000000000000000000000000000000000000000000000000082169050919050565b600073ffffffffffffffffffffffffffffffffffffffff82169050919050565b6000819050919050565b60005b8381101561213757808201518184015260208101905061211c565b83811115612146576000848401525b50505050565b60006121578261210f565b9150600082141561216b5761216a6121f0565b5b600182039050919050565b60006121818261210f565b91507fffffffffffffffffffffffffffffffffffffffffffffffffffffffffffffffff8214156121b4576121b36121f0565b5b600182019050919050565b60006121ca8261210f565b91506121d58361210f565b9250826121e5576121e461221f565b5b828206905092915050565b7f4e487b7100000000000000000000000000000000000000000000000000000000600052601160045260246000fd5b7f4e487b7100000000000000000000000000000000000000000000000000000000600052601260045260246000fd5b7f4e487b7100000000000000000000000000000000000000000000000000000000600052603260045260246000fd5b7f4e487b7100000000000000000000000000000000000000000000000000000000600052604160045260246000fd5b600080fd5b600080fd5b600080fd5b600080fd5b600080fd5b6000601f19601f8301169050919050565b7f4552433732313a2063616e6e6f74207472616e7366657220746f20796f75727360008201527f656c660000000000000000000000000000000000000000000000000000000000602082015250565b7f4552433732313a20796f7520646f206e6f74206f776e207468697320746f6b6560008201527f6e00000000000000000000000000000000000000000000000000000000000000602082015250565b7f4552433732313a20696e76616c69642061646472657373000000000000000000600082015250565b7f546865207573657220646f6573206e6f74206f776e2074686520746f6b656e00600082015250565b6123cf816120a5565b81146123da57600080fd5b50565b6123e6816120b7565b81146123f157600080fd5b50565b6123fd816120c3565b811461240857600080fd5b50565b6124148161210f565b811461241f57600080fd5b5056fea26469706673582212203b2a139bfa18a01ee90fcd7e2367b114c669bdcd57d827ae057983fef5935b9364736f6c63430008060033",
  "immutableReferences": {},
  "source": "// SPDX-License-Identifier: MIT\n\npragma solidity ^0.8.3;\n\nimport \"./Ownable.sol\";\nimport \"./IERC721.sol\";\nimport \"./IERC721Receiver.sol\";\n\ncontract kittyContract is IERC721, Ownable {\n    \n    uint256 public constant CREATION_LIMIT_GEN0=10;\n    string public constant tokenName = \"MargaritaKitties\";\n    string public constant tokenSymbol = \"MK\";\n\n    bytes4 internal constant MAGIC_ERC721_RECEIVED = bytes4(keccak256(\"onERC721Received(address,address,uint256,bytes)\"));\n    bytes4 private constant __INTERFACE_TO_ERC721 = 0x80ac58cd;\n    bytes4 private constant __INTERFACE_TO_ERC165 = 0x01ffc9a7;\n\n\n    uint256 public gen0Counter;\n    \n    event Birth(\n        address owner,\n        uint256 newKittenId,\n        uint256 mumId,\n        uint256 dadId,\n        uint256 genes\n    );\n    \n    struct Kitty{\n        uint256 genes;\n        uint64 birthTime;\n        uint32 mumId;\n        uint32 dadId;\n        uint16 generation;\n    }\n\n    Kitty[] kitties;\n\n    mapping (address => uint256) ownershipTokenCount;\n    mapping (uint256 => address) public kittyIndexToOwner;\n    mapping (uint256 => address) public kittyIndexToApproved;\n    mapping (address => mapping(address => bool)) private _operatorApprovals;\n\nfunction supportsInterface( bytes4 _interfaceId) external pure returns (bool){\n    return (_interfaceId == __INTERFACE_TO_ERC165 || _interfaceId == __INTERFACE_TO_ERC721);\n}\n\nfunction breed(uint256 _mumId, uint256 _dadId) public {\n    require(_owns(msg.sender, _mumId), \"The user does not own the token\");\n    require(_owns(msg.sender, _dadId), \"The user does not own the token\");\n\n    (uint256 dadDna,,,,uint256 DadGeneration) = getKitty(_dadId);\n    (uint256 mumDna,,,,uint256 MumGeneration) = getKitty(_mumId);\n    uint256 newDna = _mixDna(dadDna, mumDna);\n\n    uint256 kidGen = 0;\n\n    if (DadGeneration < MumGeneration){\n        kidGen = MumGeneration + 1;\n        kidGen /=2;\n    } else if (DadGeneration > MumGeneration){\n        kidGen = DadGeneration + 1;\n        kidGen /=2;\n    } else{\n        kidGen = MumGeneration + 1;\n    }\n\n    _createKitty(_mumId, _dadId, kidGen, newDna, msg.sender);\n}\n\nfunction createKittyGen0(uint256 _genes) public onlyOwner returns(uint256){\n    require(gen0Counter< CREATION_LIMIT_GEN0);\n\n    gen0Counter++;\n\n    return _createKitty(0, 0, _genes, 0, msg.sender);\n\n}\n\nfunction getKitty(uint256 _tokenId) public view returns(\n        uint256 genes, \n        uint256 birthTime, \n        uint256 mumId, \n        uint256 dadId, \n        uint256 generation){\n\n            Kitty storage kitty = kitties[_tokenId];\n\n        birthTime = uint256(kitty.birthTime);\n        mumId = uint256(kitty.mumId);\n        dadId = uint256(kitty.dadId);\n        generation = uint256(kitty.generation);\n        genes = kitty.genes;\n}\n\nfunction _createKitty(\n    uint256 _mumId,\n    uint256 _dadId,\n    uint256 _genes,\n    uint256 _generation,\n    address _owner\n) private returns (uint256){\n    Kitty memory _kitty = Kitty({\n        genes: _genes,\n        birthTime: uint64(block.timestamp),\n        mumId: uint32(_mumId),\n        dadId: uint32(_dadId),\n        generation: uint16(_generation)\n    });\n\n    kitties.push(_kitty);\n\n    uint256 newKittenId = kitties.length -1;\n\n    emit Birth(_owner, newKittenId, _mumId, _dadId, _genes);\n\n    _transfer(address(0), _owner, newKittenId);\n\n    return newKittenId;\n}\n\n\nfunction balanceOf(address owner) public view override returns (uint256){\n    return ownershipTokenCount[owner];\n}\n\nfunction totalSupply() public view override returns (uint256){\n    return kitties.length;\n}\n\nfunction name() external pure override returns (string memory){\n    return tokenName;\n}\n\nfunction symbol() external pure override returns (string memory){\n    return tokenSymbol;\n}\n\nfunction ownerOf(uint256 _tokenId) external view override returns (address){\n    return kittyIndexToOwner[_tokenId];\n}\n\n\nfunction _safeTransfer(address _from, address _to, uint256 _tokenId, bytes memory _data) internal{\n    _transfer(_from, _to, _tokenId);\n    require(_checkERC721Support(_from, _to, _tokenId, _data));\n\n}\n\nfunction safeTransferFrom(address _from, address _to, uint256 _tokenId, bytes calldata _data) override external{\n    require(_owns(_from, _tokenId));\n    require(_to != address(0));\n    require(_tokenId < kitties.length);\n    require(msg.sender == _from || _approvedFor(msg.sender, _tokenId) || isApprovedForAll(_from, msg.sender));\n\n    _safeTransfer(_from, _to, _tokenId, _data );\n}\n\nfunction safeTransferFrom(address _from, address _to, uint256 _tokenId) override external{\n    _safeTransfer(_from, _to, _tokenId, \"\");\n}\n\n\nfunction transferFrom(address _from, address _to, uint256 _tokenId) override public {\n    require(_owns(_from, _tokenId));\n    require(_to != address(0));\n    require(_tokenId < kitties.length);\n    require(msg.sender == _from || _approvedFor(msg.sender, _tokenId) || isApprovedForAll(_from, msg.sender));\n\n    _transfer(msg.sender, _to, _tokenId);\n}\n\n\nfunction transfer(address _to, uint256 _tokenId) public override {\n    require (_to != address(0), \"ERC721: invalid address\");\n    require (_to != address(this), \"ERC721: cannot transfer to yourself\");\n    require (_owns(msg.sender,_tokenId), \"ERC721: you do not own this token\");\n\n    _transfer(msg.sender, _to, _tokenId);\n}\n\nfunction _transfer(address _from, address _to, uint256 _tokenId) internal {\n    ownershipTokenCount[_to]++;\n    kittyIndexToOwner[_tokenId] = _to;\n\n    if(_from != address(0)){\n        ownershipTokenCount[_from]--;\n        delete kittyIndexToApproved[_tokenId];\n    }\n\nemit Transfer(_from, _to, _tokenId);\n}\n\nfunction approve(address _approved, uint256 _tokenId) override public {\n    require (_owns(msg.sender, _tokenId), \"ERC721: you do not own this token\");\n    \n    _approve(_approved, _tokenId);\n    emit Approval(msg.sender, _approved, _tokenId);\n}\n\nfunction setApprovalForAll(address _operator, bool approved) override external{\n    require (_operator != msg.sender);\n\n    _setApprovalForAll(_operator, approved);\n    emit ApprovalForAll(msg.sender, _operator, approved);\n}\n\nfunction _setApprovalForAll(address _operator, bool approved) internal{\n_operatorApprovals[msg.sender][_operator] = approved;\n}\n\nfunction getApproved(uint256 _tokenId) external view override returns (address){\n    require (_tokenId < kitties.length); //Token must exist;\n\n    return kittyIndexToApproved[_tokenId];\n}\n\nfunction isApprovedForAll(address _owner, address _operator) public view override returns (bool){\n    return _operatorApprovals[_owner][_operator];\n}\n\nfunction _approve(address _approved, uint256 _tokenId) internal{\n    kittyIndexToApproved[_tokenId] = _approved;\n}\n\nfunction _owns(address _claimant, uint256 _tokenId) internal view returns(bool){\n    return kittyIndexToOwner[_tokenId]==_claimant;\n}\nfunction _approvedFor(address _claimant, uint256 _tokenId) internal view returns(bool){\n    return kittyIndexToApproved[_tokenId]==_claimant;\n    }\n\nfunction _checkERC721Support(address _from, address _to, uint256 _tokenId, bytes memory _data) internal returns(bool){\n    if(!_isContract(_to)){\n        return true;\n    }\n    bytes4 returnData = IERC721Receiver(_to).onERC721Received(msg.sender, _from, _tokenId, _data);\n    return returnData == MAGIC_ERC721_RECEIVED;\n}\n\nfunction _isContract(address _to) view internal returns(bool){\n    uint32 size;\n    assembly{\n        size := extcodesize(_to)\n    }\n    return size > 0;\n}\n\nfunction _mixDna(uint256 _mumId, uint256 _dadId) internal pure returns(uint256){\n    uint256 firstHalf = _mumId / 100000000;\n    uint256 secondHalf = _dadId % 100000000;\n\n    uint256 newDna = firstHalf * 100000000;\n    newDna = newDna + secondHalf;\n\n    return newDna;\n}\n\nfunction tokensOfOwner(address _owner) public view returns(uint256[] memory ownerTokens) {\n    uint256 tokenCount = balanceOf(_owner);\n\n    if (tokenCount == 0) {\n        return new uint256[](0);\n    } else {\n        uint256[] memory result = new uint256[](tokenCount);\n        uint256 totalCats = totalSupply();\n        uint256 resultIndex = 0;\n\n        uint256 catId;\n\n        for (catId = 1; catId <= totalCats; catId++) {\n            if (kittyIndexToOwner[catId] == _owner) {\n                result[resultIndex] = catId;\n                resultIndex++;\n            }\n        }\n\n        return result;\n    }\n\n}\n}",
  "sourcePath": "/Users/margaritagyorgiev/Desktop/IOT/Ethereum course advanced/CryptoKitties_Clone/academy-kitties-template/contracts/kittyContract.sol",
  "compiler": {
    "name": "solc",
    "version": "0.8.6+commit.11564f7e.Emscripten.clang"
  },
  "schemaVersion": "3.3.4",
  "updatedAt": "2021-07-04T21:29:57.314Z",
  "networkType": "ethereum",
  "devdoc": {
    "kind": "dev",
    "methods": {
      "approve(address,uint256)": {
        "details": "The zero address indicates there is no approved address.  Throws unless `msg.sender` is the current NFT owner, or an authorized  operator of the current owner.",
        "params": {
          "_approved": "The new approved NFT controller",
          "_tokenId": "The NFT to approve"
        }
      },
      "balanceOf(address)": {
        "details": "Returns the number of tokens in ``owner``'s account."
      },
      "getApproved(uint256)": {
        "details": "Throws if `_tokenId` is not a valid NFT.",
        "params": {
          "_tokenId": "The NFT to find the approved address for"
        },
        "returns": {
          "_0": "The approved address for this NFT, or the zero address if there is none"
        }
      },
      "isApprovedForAll(address,address)": {
        "params": {
          "_operator": "The address that acts on behalf of the owner",
          "_owner": "The address that owns the NFTs"
        },
        "returns": {
          "_0": "True if `_operator` is an approved operator for `_owner`, false otherwise"
        }
      },
      "safeTransferFrom(address,address,uint256)": {
        "details": "This works identically to the other function with an extra data parameter,  except this function just sets data to \"\".",
        "params": {
          "_from": "The current owner of the NFT",
          "_to": "The new owner",
          "_tokenId": "The NFT to transfer"
        }
      },
      "transferFrom(address,address,uint256)": {
        "details": "Throws unless `msg.sender` is the current owner, an authorized  operator, or the approved address for this NFT. Throws if `_from` is  not the current owner. Throws if `_to` is the zero address. Throws if  `_tokenId` is not a valid NFT.",
        "params": {
          "_from": "The current owner of the NFT",
          "_to": "The new owner",
          "_tokenId": "The NFT to transfer"
        }
      }
    },
    "version": 1
  },
  "userdoc": {
    "kind": "user",
    "methods": {
      "approve(address,uint256)": {
        "notice": "Change or reaffirm the approved address for an NFT"
      },
      "getApproved(uint256)": {
        "notice": "Get the approved address for a single NFT"
      },
      "isApprovedForAll(address,address)": {
        "notice": "Query if an address is an authorized operator for another address"
      },
      "safeTransferFrom(address,address,uint256)": {
        "notice": "Transfers the ownership of an NFT from one address to another address"
      },
      "transferFrom(address,address,uint256)": {
        "notice": "Transfer ownership of an NFT -- THE CALLER IS RESPONSIBLE  TO CONFIRM THAT `_to` IS CAPABLE OF RECEIVING NFTS OR ELSE  THEY MAY BE PERMANENTLY LOST"
      }
    },
    "version": 1
  }
}