{
  "contractName": "KittyMarketplace",
  "abi": [
    {
      "inputs": [
        {
          "internalType": "address",
          "name": "_kittyContractAddress",
          "type": "address"
        }
      ],
      "stateMutability": "nonpayable",
      "type": "constructor"
    },
    {
      "anonymous": false,
      "inputs": [
        {
          "indexed": false,
          "internalType": "string",
          "name": "TxType",
          "type": "string"
        },
        {
          "indexed": false,
          "internalType": "address",
          "name": "owner",
          "type": "address"
        },
        {
          "indexed": false,
          "internalType": "uint256",
          "name": "tokenId",
          "type": "uint256"
        }
      ],
      "name": "MarketTransaction",
      "type": "event"
    },
    {
      "inputs": [],
      "name": "owner",
      "outputs": [
        {
          "internalType": "address",
          "name": "",
          "type": "address"
        }
      ],
      "stateMutability": "view",
      "type": "function",
      "constant": true
    },
    {
      "inputs": [
        {
          "internalType": "address",
          "name": "_kittyContractAddress",
          "type": "address"
        }
      ],
      "name": "setKittyContract",
      "outputs": [],
      "stateMutability": "nonpayable",
      "type": "function"
    },
    {
      "inputs": [
        {
          "internalType": "uint256",
          "name": "_tokenId",
          "type": "uint256"
        }
      ],
      "name": "getOffer",
      "outputs": [
        {
          "internalType": "address",
          "name": "seller",
          "type": "address"
        },
        {
          "internalType": "uint256",
          "name": "price",
          "type": "uint256"
        },
        {
          "internalType": "uint256",
          "name": "index",
          "type": "uint256"
        },
        {
          "internalType": "uint256",
          "name": "tokenId",
          "type": "uint256"
        },
        {
          "internalType": "bool",
          "name": "active",
          "type": "bool"
        }
      ],
      "stateMutability": "view",
      "type": "function",
      "constant": true
    },
    {
      "inputs": [],
      "name": "getAllTokenOnSale",
      "outputs": [
        {
          "internalType": "uint256[]",
          "name": "listOfOffers",
          "type": "uint256[]"
        }
      ],
      "stateMutability": "view",
      "type": "function",
      "constant": true
    },
    {
      "inputs": [
        {
          "internalType": "uint256",
          "name": "_price",
          "type": "uint256"
        },
        {
          "internalType": "uint256",
          "name": "_tokenId",
          "type": "uint256"
        }
      ],
      "name": "setOffer",
      "outputs": [],
      "stateMutability": "nonpayable",
      "type": "function"
    },
    {
      "inputs": [
        {
          "internalType": "uint256",
          "name": "_tokenId",
          "type": "uint256"
        }
      ],
      "name": "removeOffer",
      "outputs": [],
      "stateMutability": "nonpayable",
      "type": "function"
    },
    {
      "inputs": [
        {
          "internalType": "uint256",
          "name": "_tokenId",
          "type": "uint256"
        }
      ],
      "name": "buyKitty",
      "outputs": [],
      "stateMutability": "payable",
      "type": "function",
      "payable": true
    }
  ],
  "bytecode": "0x60806040523480156200001157600080fd5b5060405162001a2e38038062001a2e833981810160405281019062000037919062000143565b336000806101000a81548173ffffffffffffffffffffffffffffffffffffffff021916908373ffffffffffffffffffffffffffffffffffffffff16021790555062000088816200008f60201b60201c565b50620001bd565b60008054906101000a900473ffffffffffffffffffffffffffffffffffffffff1673ffffffffffffffffffffffffffffffffffffffff163373ffffffffffffffffffffffffffffffffffffffff1614620000e857600080fd5b80600160006101000a81548173ffffffffffffffffffffffffffffffffffffffff021916908373ffffffffffffffffffffffffffffffffffffffff16021790555050565b6000815190506200013d81620001a3565b92915050565b6000602082840312156200015657600080fd5b600062000166848285016200012c565b91505092915050565b60006200017c8262000183565b9050919050565b600073ffffffffffffffffffffffffffffffffffffffff82169050919050565b620001ae816200016f565b8114620001ba57600080fd5b50565b61186180620001cd6000396000f3fe6080604052600436106100705760003560e01c80638da5cb5b1161004e5780638da5cb5b1461010a578063941b055b1461013557806395a0f9c71461015e578063ae5310f61461018757610070565b80634579268a1461007557806349b3709f146100b657806362b7f94e146100e1575b600080fd5b34801561008157600080fd5b5061009c60048036038101906100979190610fbd565b6101a3565b6040516100ad959493929190611299565b60405180910390f35b3480156100c257600080fd5b506100cb61021b565b6040516100d891906112ec565b60405180910390f35b3480156100ed57600080fd5b5061010860048036038101906101039190610f42565b61043a565b005b34801561011657600080fd5b5061011f6104d6565b60405161012c919061121e565b60405180910390f35b34801561014157600080fd5b5061015c60048036038101906101579190610fe6565b6104fa565b005b34801561016a57600080fd5b5061018560048036038101906101809190610fbd565b61086f565b005b6101a1600480360381019061019c9190610fbd565b610aa0565b005b6000806000806000806003600088815260200190815260200160002090508060000160009054906101000a900473ffffffffffffffffffffffffffffffffffffffff168160010154826002015483600301548460040160009054906101000a900460ff16955095509550955095505091939590929450565b60606000600280549050905060008114156102a857600067ffffffffffffffff811115610271577f4e487b7100000000000000000000000000000000000000000000000000000000600052604160045260246000fd5b60405190808252806020026020018201604052801561029f5781602001602082028036833780820191505090505b50915050610437565b60008167ffffffffffffffff8111156102ea577f4e487b7100000000000000000000000000000000000000000000000000000000600052604160045260246000fd5b6040519080825280602002602001820160405280156103185781602001602082028036833780820191505090505b50905060005b82811015610430576001151560028281548110610364577f4e487b7100000000000000000000000000000000000000000000000000000000600052603260045260246000fd5b906000526020600020906005020160040160009054906101000a900460ff161515141561041d57600281815481106103c5577f4e487b7100000000000000000000000000000000000000000000000000000000600052603260045260246000fd5b906000526020600020906005020160030154828281518110610410577f4e487b7100000000000000000000000000000000000000000000000000000000600052603260045260246000fd5b6020026020010181815250505b808061042890611565565b91505061031e565b8193505050505b90565b60008054906101000a900473ffffffffffffffffffffffffffffffffffffffff1673ffffffffffffffffffffffffffffffffffffffff163373ffffffffffffffffffffffffffffffffffffffff161461049257600080fd5b80600160006101000a81548173ffffffffffffffffffffffffffffffffffffffff021916908373ffffffffffffffffffffffffffffffffffffffff16021790555050565b60008054906101000a900473ffffffffffffffffffffffffffffffffffffffff1681565b6105043382610e0b565b610543576040517f08c379a000000000000000000000000000000000000000000000000000000000815260040161053a90611442565b60405180910390fd5b600015156003600083815260200190815260200160002060040160009054906101000a900460ff161515146105ad576040517f08c379a00000000000000000000000000000000000000000000000000000000081526004016105a4906113e6565b60405180910390fd5b600160009054906101000a900473ffffffffffffffffffffffffffffffffffffffff1673ffffffffffffffffffffffffffffffffffffffff1663e985e9c533306040518363ffffffff1660e01b815260040161060a929190611270565b60206040518083038186803b15801561062257600080fd5b505afa158015610636573d6000803e3d6000fd5b505050506040513d601f19601f8201168201806040525081019061065a9190610f94565b610699576040517f08c379a00000000000000000000000000000000000000000000000000000000081526004016106909061134e565b60405180910390fd5b60006040518060a001604052803373ffffffffffffffffffffffffffffffffffffffff1681526020018481526020016002805490508152602001838152602001600115158152509050806003600084815260200190815260200160002060008201518160000160006101000a81548173ffffffffffffffffffffffffffffffffffffffff021916908373ffffffffffffffffffffffffffffffffffffffff16021790555060208201518160010155604082015181600201556060820151816003015560808201518160040160006101000a81548160ff021916908315150217905550905050600281908060018154018082558091505060019003906000526020600020906005020160009091909190915060008201518160000160006101000a81548173ffffffffffffffffffffffffffffffffffffffff021916908373ffffffffffffffffffffffffffffffffffffffff16021790555060208201518160010155604082015181600201556060820151816003015560808201518160040160006101000a81548160ff02191690831515021790555050507fd99e4fad9ad6313b1feb588fa8e605e3a9873172f2024330c35dd2b4041a4386338360405161086292919061136e565b60405180910390a1505050565b6000600360008381526020019081526020016000206040518060a00160405290816000820160009054906101000a900473ffffffffffffffffffffffffffffffffffffffff1673ffffffffffffffffffffffffffffffffffffffff1673ffffffffffffffffffffffffffffffffffffffff1681526020016001820154815260200160028201548152602001600382015481526020016004820160009054906101000a900460ff16151515158152505090503373ffffffffffffffffffffffffffffffffffffffff16816000015173ffffffffffffffffffffffffffffffffffffffff1614610992576040517f08c379a000000000000000000000000000000000000000000000000000000000815260040161098990611462565b60405180910390fd5b60036000838152602001908152602001600020600080820160006101000a81549073ffffffffffffffffffffffffffffffffffffffff02191690556001820160009055600282016000905560038201600090556004820160006101000a81549060ff0219169055505060006002826040015181548110610a3b577f4e487b7100000000000000000000000000000000000000000000000000000000600052603260045260246000fd5b906000526020600020906005020160040160006101000a81548160ff0219169083151502179055507fd99e4fad9ad6313b1feb588fa8e605e3a9873172f2024330c35dd2b4041a43863383604051610a94929190611406565b60405180910390a15050565b6000600360008381526020019081526020016000206040518060a00160405290816000820160009054906101000a900473ffffffffffffffffffffffffffffffffffffffff1673ffffffffffffffffffffffffffffffffffffffff1673ffffffffffffffffffffffffffffffffffffffff1681526020016001820154815260200160028201548152602001600382015481526020016004820160009054906101000a900460ff161515151581525050905080602001513414610b97576040517f08c379a0000000000000000000000000000000000000000000000000000000008152600401610b8e9061132e565b60405180910390fd5b600115156003600084815260200190815260200160002060040160009054906101000a900460ff16151514610c01576040517f08c379a0000000000000000000000000000000000000000000000000000000008152600401610bf89061130e565b60405180910390fd5b60036000838152602001908152602001600020600080820160006101000a81549073ffffffffffffffffffffffffffffffffffffffff02191690556001820160009055600282016000905560038201600090556004820160006101000a81549060ff02191690555050600015156002600360008581526020019081526020016000206002015481548110610cbe577f4e487b7100000000000000000000000000000000000000000000000000000000600052603260045260246000fd5b906000526020600020906005020160040160009054906101000a90505050600081602001511115610d3957806000015173ffffffffffffffffffffffffffffffffffffffff166108fc82602001519081150290604051600060405180830381858888f19350505050158015610d37573d6000803e3d6000fd5b505b600160009054906101000a900473ffffffffffffffffffffffffffffffffffffffff1673ffffffffffffffffffffffffffffffffffffffff166323b872dd826000015133856040518463ffffffff1660e01b8152600401610d9c93929190611239565b600060405180830381600087803b158015610db657600080fd5b505af1158015610dca573d6000803e3d6000fd5b505050507fd99e4fad9ad6313b1feb588fa8e605e3a9873172f2024330c35dd2b4041a43863383604051610dff9291906113aa565b60405180910390a15050565b60008273ffffffffffffffffffffffffffffffffffffffff16600160009054906101000a900473ffffffffffffffffffffffffffffffffffffffff1673ffffffffffffffffffffffffffffffffffffffff16636352211e846040518263ffffffff1660e01b8152600401610e7f9190611482565b60206040518083038186803b158015610e9757600080fd5b505afa158015610eab573d6000803e3d6000fd5b505050506040513d601f19601f82011682018060405250810190610ecf9190610f6b565b73ffffffffffffffffffffffffffffffffffffffff1614905092915050565b600081359050610efd816117e6565b92915050565b600081519050610f12816117e6565b92915050565b600081519050610f27816117fd565b92915050565b600081359050610f3c81611814565b92915050565b600060208284031215610f5457600080fd5b6000610f6284828501610eee565b91505092915050565b600060208284031215610f7d57600080fd5b6000610f8b84828501610f03565b91505092915050565b600060208284031215610fa657600080fd5b6000610fb484828501610f18565b91505092915050565b600060208284031215610fcf57600080fd5b6000610fdd84828501610f2d565b91505092915050565b60008060408385031215610ff957600080fd5b600061100785828601610f2d565b925050602061101885828601610f2d565b9150509250929050565b600061102e8383611200565b60208301905092915050565b6110438161152f565b82525050565b611052816114e7565b82525050565b6000611063826114ad565b61106d81856114c5565b93506110788361149d565b8060005b838110156110a95781516110908882611022565b975061109b836114b8565b92505060018101905061107c565b5085935050505092915050565b6110bf816114f9565b82525050565b60006110d26017836114d6565b91506110dd826115dd565b602082019050919050565b60006110f56016836114d6565b915061110082611606565b602082019050919050565b6000611118603c836114d6565b91506111238261162f565b604082019050919050565b600061113b600c836114d6565b91506111468261167e565b602082019050919050565b600061115e6003836114d6565b9150611169826116a7565b602082019050919050565b60006111816025836114d6565b915061118c826116d0565b604082019050919050565b60006111a4600c836114d6565b91506111af8261171f565b602082019050919050565b60006111c76023836114d6565b91506111d282611748565b604082019050919050565b60006111ea6024836114d6565b91506111f582611797565b604082019050919050565b61120981611525565b82525050565b61121881611525565b82525050565b60006020820190506112336000830184611049565b92915050565b600060608201905061124e600083018661103a565b61125b6020830185611049565b611268604083018461120f565b949350505050565b60006040820190506112856000830185611049565b6112926020830184611049565b9392505050565b600060a0820190506112ae6000830188611049565b6112bb602083018761120f565b6112c8604083018661120f565b6112d5606083018561120f565b6112e260808301846110b6565b9695505050505050565b600060208201905081810360008301526113068184611058565b905092915050565b60006020820190508181036000830152611327816110c5565b9050919050565b60006020820190508181036000830152611347816110e8565b9050919050565b600060208201905081810360008301526113678161110b565b9050919050565b600060608201905081810360008301526113878161112e565b90506113966020830185611049565b6113a3604083018461120f565b9392505050565b600060608201905081810360008301526113c381611151565b90506113d26020830185611049565b6113df604083018461120f565b9392505050565b600060208201905081810360008301526113ff81611174565b9050919050565b6000606082019050818103600083015261141f81611197565b905061142e6020830185611049565b61143b604083018461120f565b9392505050565b6000602082019050818103600083015261145b816111ba565b9050919050565b6000602082019050818103600083015261147b816111dd565b9050919050565b6000602082019050611497600083018461120f565b92915050565b6000819050602082019050919050565b600081519050919050565b6000602082019050919050565b600082825260208201905092915050565b600082825260208201905092915050565b60006114f282611505565b9050919050565b60008115159050919050565b600073ffffffffffffffffffffffffffffffffffffffff82169050919050565b6000819050919050565b600061153a82611541565b9050919050565b600061154c82611553565b9050919050565b600061155e82611505565b9050919050565b600061157082611525565b91507fffffffffffffffffffffffffffffffffffffffffffffffffffffffffffffffff8214156115a3576115a26115ae565b5b600182019050919050565b7f4e487b7100000000000000000000000000000000000000000000000000000000600052601160045260246000fd5b7f4e6f20616374697665206f726465722070726573656e74000000000000000000600082015250565b7f54686520707269636520697320696e636f727265637400000000000000000000600082015250565b7f436f6e7472616374206e6565647320746f20626520617070726f76656420746f60008201527f207472616e66657220746865206b6974747920696e2066757475726500000000602082015250565b7f437265617465206f666665720000000000000000000000000000000000000000600082015250565b7f4275790000000000000000000000000000000000000000000000000000000000600082015250565b7f596f2063616e206e6f742073656c6c207477696365207468652073616d65206f60008201527f6666657273000000000000000000000000000000000000000000000000000000602082015250565b7f52656d6f7665206f666665720000000000000000000000000000000000000000600082015250565b7f596f7520617265206e6f7420746865206f776e6572206f662074686174206b6960008201527f7474790000000000000000000000000000000000000000000000000000000000602082015250565b7f596f7520617265206e6f74207468652073656c6c6572206f662074686973206b60008201527f6974747900000000000000000000000000000000000000000000000000000000602082015250565b6117ef816114e7565b81146117fa57600080fd5b50565b611806816114f9565b811461181157600080fd5b50565b61181d81611525565b811461182857600080fd5b5056fea26469706673582212207fb446717baf9f200d886ce6d411e6a5e3d0eba7737a8094b690f3ba2cc1447864736f6c63430008030033",
  "immutableReferences": {},
  "source": "// SPDX-License-Identifier: MIT\n\npragma solidity ^0.8.3;\n\nimport \"./Kittycontract.sol\";\nimport \"./Ownable.sol\";\n\n\ncontract KittyMarketplace is Ownable {\n\n    kittyContract private _kittyContract;\n\n    struct Offer{\n        address payable seller;\n        uint256 price;\n        uint256 index;\n        uint256 tokenId;\n        bool active;\n    }\n\n    Offer[] offers;\n\n    event MarketTransaction(string TxType, address owner, uint256 tokenId);\n\n    mapping(uint256 => Offer) tokenIdToOffer;\n\n    function setKittyContract(address _kittyContractAddress) public onlyOwner{\n        _kittyContract = kittyContract(_kittyContractAddress);\n    }\n\n    constructor(address _kittyContractAddress) public {\n        setKittyContract(_kittyContractAddress);\n    }\n\n    function getOffer(uint256 _tokenId) external view returns ( address seller, uint256 price, uint256 index, uint256 tokenId, bool active){\n        Offer storage offer = tokenIdToOffer[_tokenId];\n        return(\n            offer.seller,\n            offer.price,\n            offer.index,\n            offer.tokenId,\n            offer.active\n        );\n    }\n\n    function getAllTokenOnSale() external view  returns(uint256[] memory listOfOffers){\n        uint256 totalOffers = offers.length;\n\n        if(totalOffers == 0){\n            return new uint256[](0);\n        } else{\n            uint256[] memory result = new uint256[](totalOffers);\n\n            uint256 offerId;\n\n            for(offerId = 0; offerId<totalOffers; offerId++){\n                if(offers[offerId].active == true){\n                    result[offerId] = offers[offerId].tokenId;\n                }\n            }\n\n            return result;\n        }\n\n    }\n\n    function _ownsKitty(address _address, uint256 _tokenId) internal view returns(bool){\n        return (_kittyContract.ownerOf(_tokenId)==_address);\n    }\n\n    function setOffer(uint256 _price, uint256 _tokenId) public{\n        require(_ownsKitty(msg.sender, _tokenId), \"You are not the owner of that kitty\");\n        require(tokenIdToOffer[_tokenId].active == false, \"Yo can not sell twice the same offers\");\n        require(_kittyContract.isApprovedForAll(msg.sender, address(this)), \"Contract needs to be approved to tranfer the kitty in future\");\n\n    Offer memory _offer = Offer({\n        seller: payable(msg.sender),\n        price: _price,\n        active: true,\n        tokenId: _tokenId,\n        index: offers.length\n    });\n\n    tokenIdToOffer[_tokenId]=_offer;\n    offers.push(_offer);\n\n    emit MarketTransaction(\"Create offer\", msg.sender, _tokenId);\n    }\n    function removeOffer(uint256 _tokenId) public{\n        Offer memory offer = tokenIdToOffer[_tokenId];\n        require(offer.seller == msg.sender, \"You are not the seller of this kitty\");\n\n    delete tokenIdToOffer[_tokenId];\n    offers[offer.index].active = false;\n\n    emit MarketTransaction(\"Remove offer\", msg.sender, _tokenId);\n\n    }\n    function buyKitty(uint256 _tokenId) public payable{\n\n        Offer memory offer = tokenIdToOffer[_tokenId];\n        require(msg.value == offer.price, \"The price is incorrect\");\n        require(tokenIdToOffer[_tokenId].active == true, \"No active order present\");\n\n        //Important: delete the kitty from the mapping BEFORE paying out in order to prevent re-entrancy\n        delete tokenIdToOffer[_tokenId];\n        offers[tokenIdToOffer[_tokenId].index].active == false;\n\n        // Transfer funds to the seller\n\n        if (offer.price>0){\n            offer.seller.transfer(offer.price);\n        }\n\n        //Transfer ownership\n\n        _kittyContract.transferFrom(offer.seller, msg.sender, _tokenId);\n\n        emit MarketTransaction(\"Buy\", msg.sender, _tokenId);\n\n    }\n}",
  "sourcePath": "/Users/margaritagyorgiev/Desktop/IOT/Ethereum course advanced/CryptoKitties_Clone/academy-kitties-template/contracts/KittyMarketplace.sol",
  "compiler": {
    "name": "solc",
    "version": "0.8.3+commit.8d00100c.Emscripten.clang"
  },
  "schemaVersion": "3.3.4",
  "updatedAt": "2021-06-25T23:59:37.897Z",
  "networkType": "ethereum",
  "devdoc": {
    "kind": "dev",
    "methods": {},
    "version": 1
  },
  "userdoc": {
    "kind": "user",
    "methods": {},
    "version": 1
  }
}