{
  "contractName": "kittyContract",
  "abi": [
    {
      "anonymous": false,
      "inputs": [
        {
          "indexed": true,
          "internalType": "address",
          "name": "owner",
          "type": "address"
        },
        {
          "indexed": true,
          "internalType": "address",
          "name": "approved",
          "type": "address"
        },
        {
          "indexed": true,
          "internalType": "uint256",
          "name": "tokenId",
          "type": "uint256"
        }
      ],
      "name": "Approval",
      "type": "event"
    },
    {
      "anonymous": false,
      "inputs": [
        {
          "indexed": true,
          "internalType": "address",
          "name": "owner",
          "type": "address"
        },
        {
          "indexed": true,
          "internalType": "address",
          "name": "operator",
          "type": "address"
        },
        {
          "indexed": false,
          "internalType": "bool",
          "name": "approved",
          "type": "bool"
        }
      ],
      "name": "ApprovalForAll",
      "type": "event"
    },
    {
      "anonymous": false,
      "inputs": [
        {
          "indexed": false,
          "internalType": "address",
          "name": "owner",
          "type": "address"
        },
        {
          "indexed": false,
          "internalType": "uint256",
          "name": "newKittenId",
          "type": "uint256"
        },
        {
          "indexed": false,
          "internalType": "uint256",
          "name": "mumId",
          "type": "uint256"
        },
        {
          "indexed": false,
          "internalType": "uint256",
          "name": "dadId",
          "type": "uint256"
        },
        {
          "indexed": false,
          "internalType": "uint256",
          "name": "genes",
          "type": "uint256"
        }
      ],
      "name": "Birth",
      "type": "event"
    },
    {
      "anonymous": false,
      "inputs": [
        {
          "indexed": true,
          "internalType": "address",
          "name": "from",
          "type": "address"
        },
        {
          "indexed": true,
          "internalType": "address",
          "name": "to",
          "type": "address"
        },
        {
          "indexed": true,
          "internalType": "uint256",
          "name": "tokenId",
          "type": "uint256"
        }
      ],
      "name": "Transfer",
      "type": "event"
    },
    {
      "inputs": [],
      "name": "CREATION_LIMIT_GEN0",
      "outputs": [
        {
          "internalType": "uint256",
          "name": "",
          "type": "uint256"
        }
      ],
      "stateMutability": "view",
      "type": "function",
      "constant": true
    },
    {
      "inputs": [],
      "name": "gen0Counter",
      "outputs": [
        {
          "internalType": "uint256",
          "name": "",
          "type": "uint256"
        }
      ],
      "stateMutability": "view",
      "type": "function",
      "constant": true
    },
    {
      "inputs": [
        {
          "internalType": "uint256",
          "name": "",
          "type": "uint256"
        }
      ],
      "name": "kittyIndexToApproved",
      "outputs": [
        {
          "internalType": "address",
          "name": "",
          "type": "address"
        }
      ],
      "stateMutability": "view",
      "type": "function",
      "constant": true
    },
    {
      "inputs": [
        {
          "internalType": "uint256",
          "name": "",
          "type": "uint256"
        }
      ],
      "name": "kittyIndexToOwner",
      "outputs": [
        {
          "internalType": "address",
          "name": "",
          "type": "address"
        }
      ],
      "stateMutability": "view",
      "type": "function",
      "constant": true
    },
    {
      "inputs": [],
      "name": "owner",
      "outputs": [
        {
          "internalType": "address",
          "name": "",
          "type": "address"
        }
      ],
      "stateMutability": "view",
      "type": "function",
      "constant": true
    },
    {
      "inputs": [],
      "name": "tokenName",
      "outputs": [
        {
          "internalType": "string",
          "name": "",
          "type": "string"
        }
      ],
      "stateMutability": "view",
      "type": "function",
      "constant": true
    },
    {
      "inputs": [],
      "name": "tokenSymbol",
      "outputs": [
        {
          "internalType": "string",
          "name": "",
          "type": "string"
        }
      ],
      "stateMutability": "view",
      "type": "function",
      "constant": true
    },
    {
      "inputs": [
        {
          "internalType": "bytes4",
          "name": "_interfaceId",
          "type": "bytes4"
        }
      ],
      "name": "supportsInterface",
      "outputs": [
        {
          "internalType": "bool",
          "name": "",
          "type": "bool"
        }
      ],
      "stateMutability": "pure",
      "type": "function",
      "constant": true
    },
    {
      "inputs": [
        {
          "internalType": "uint256",
          "name": "_mumId",
          "type": "uint256"
        },
        {
          "internalType": "uint256",
          "name": "_dadId",
          "type": "uint256"
        }
      ],
      "name": "breed",
      "outputs": [],
      "stateMutability": "nonpayable",
      "type": "function"
    },
    {
      "inputs": [
        {
          "internalType": "uint256",
          "name": "_genes",
          "type": "uint256"
        }
      ],
      "name": "createKittyGen0",
      "outputs": [
        {
          "internalType": "uint256",
          "name": "",
          "type": "uint256"
        }
      ],
      "stateMutability": "nonpayable",
      "type": "function"
    },
    {
      "inputs": [
        {
          "internalType": "uint256",
          "name": "_tokenId",
          "type": "uint256"
        }
      ],
      "name": "getKitty",
      "outputs": [
        {
          "internalType": "uint256",
          "name": "genes",
          "type": "uint256"
        },
        {
          "internalType": "uint256",
          "name": "birthTime",
          "type": "uint256"
        },
        {
          "internalType": "uint256",
          "name": "mumId",
          "type": "uint256"
        },
        {
          "internalType": "uint256",
          "name": "dadId",
          "type": "uint256"
        },
        {
          "internalType": "uint256",
          "name": "generation",
          "type": "uint256"
        }
      ],
      "stateMutability": "view",
      "type": "function",
      "constant": true
    },
    {
      "inputs": [
        {
          "internalType": "address",
          "name": "owner",
          "type": "address"
        }
      ],
      "name": "balanceOf",
      "outputs": [
        {
          "internalType": "uint256",
          "name": "",
          "type": "uint256"
        }
      ],
      "stateMutability": "view",
      "type": "function",
      "constant": true
    },
    {
      "inputs": [],
      "name": "totalSupply",
      "outputs": [
        {
          "internalType": "uint256",
          "name": "",
          "type": "uint256"
        }
      ],
      "stateMutability": "view",
      "type": "function",
      "constant": true
    },
    {
      "inputs": [],
      "name": "name",
      "outputs": [
        {
          "internalType": "string",
          "name": "",
          "type": "string"
        }
      ],
      "stateMutability": "pure",
      "type": "function",
      "constant": true
    },
    {
      "inputs": [],
      "name": "symbol",
      "outputs": [
        {
          "internalType": "string",
          "name": "",
          "type": "string"
        }
      ],
      "stateMutability": "pure",
      "type": "function",
      "constant": true
    },
    {
      "inputs": [
        {
          "internalType": "uint256",
          "name": "_tokenId",
          "type": "uint256"
        }
      ],
      "name": "ownerOf",
      "outputs": [
        {
          "internalType": "address",
          "name": "",
          "type": "address"
        }
      ],
      "stateMutability": "view",
      "type": "function",
      "constant": true
    },
    {
      "inputs": [
        {
          "internalType": "address",
          "name": "_from",
          "type": "address"
        },
        {
          "internalType": "address",
          "name": "_to",
          "type": "address"
        },
        {
          "internalType": "uint256",
          "name": "_tokenId",
          "type": "uint256"
        }
      ],
      "name": "safeTransferFrom",
      "outputs": [],
      "stateMutability": "nonpayable",
      "type": "function"
    },
    {
      "inputs": [
        {
          "internalType": "address",
          "name": "_from",
          "type": "address"
        },
        {
          "internalType": "address",
          "name": "_to",
          "type": "address"
        },
        {
          "internalType": "uint256",
          "name": "_tokenId",
          "type": "uint256"
        },
        {
          "internalType": "bytes",
          "name": "_data",
          "type": "bytes"
        }
      ],
      "name": "safeTransferFrom",
      "outputs": [],
      "stateMutability": "nonpayable",
      "type": "function"
    },
    {
      "inputs": [
        {
          "internalType": "address",
          "name": "_from",
          "type": "address"
        },
        {
          "internalType": "address",
          "name": "_to",
          "type": "address"
        },
        {
          "internalType": "uint256",
          "name": "_tokenId",
          "type": "uint256"
        }
      ],
      "name": "transferFrom",
      "outputs": [],
      "stateMutability": "nonpayable",
      "type": "function"
    },
    {
      "inputs": [
        {
          "internalType": "address",
          "name": "_to",
          "type": "address"
        },
        {
          "internalType": "uint256",
          "name": "_tokenId",
          "type": "uint256"
        }
      ],
      "name": "transfer",
      "outputs": [],
      "stateMutability": "nonpayable",
      "type": "function"
    },
    {
      "inputs": [
        {
          "internalType": "address",
          "name": "_approved",
          "type": "address"
        },
        {
          "internalType": "uint256",
          "name": "_tokenId",
          "type": "uint256"
        }
      ],
      "name": "approve",
      "outputs": [],
      "stateMutability": "nonpayable",
      "type": "function"
    },
    {
      "inputs": [
        {
          "internalType": "address",
          "name": "_operator",
          "type": "address"
        },
        {
          "internalType": "bool",
          "name": "approved",
          "type": "bool"
        }
      ],
      "name": "setApprovalForAll",
      "outputs": [],
      "stateMutability": "nonpayable",
      "type": "function"
    },
    {
      "inputs": [
        {
          "internalType": "uint256",
          "name": "_tokenId",
          "type": "uint256"
        }
      ],
      "name": "getApproved",
      "outputs": [
        {
          "internalType": "address",
          "name": "",
          "type": "address"
        }
      ],
      "stateMutability": "view",
      "type": "function",
      "constant": true
    },
    {
      "inputs": [
        {
          "internalType": "address",
          "name": "_owner",
          "type": "address"
        },
        {
          "internalType": "address",
          "name": "_operator",
          "type": "address"
        }
      ],
      "name": "isApprovedForAll",
      "outputs": [
        {
          "internalType": "bool",
          "name": "",
          "type": "bool"
        }
      ],
      "stateMutability": "view",
      "type": "function",
      "constant": true
    },
    {
      "inputs": [
        {
          "internalType": "address",
          "name": "_owner",
          "type": "address"
        }
      ],
      "name": "tokensOfOwner",
      "outputs": [
        {
          "internalType": "uint256[]",
          "name": "ownerTokens",
          "type": "uint256[]"
        }
      ],
      "stateMutability": "view",
      "type": "function",
      "constant": true
    }
  ],
  "bytecode": "0x608060405234801561001057600080fd5b50336000806101000a81548173ffffffffffffffffffffffffffffffffffffffff021916908373ffffffffffffffffffffffffffffffffffffffff160217905550612441806100606000396000f3fe608060405234801561001057600080fd5b50600436106101735760003560e01c80638462151c116100de578063b483433011610097578063d9ecad7b11610071578063d9ecad7b14610472578063e985e9c51461048e578063e98b7f4d146104be578063ef5e94aa146104f257610173565b8063b483433014610408578063b88d4fde14610426578063d5a776ca1461044257610173565b80638462151c146103345780638da5cb5b1461036457806395d89b4114610382578063a22cb465146103a0578063a45f4bfc146103bc578063a9059cbb146103ec57610173565b806342842e0e1161013057806342842e0e1461024c578063481af3d3146102685780636352211e146102985780636c02a931146102c857806370a08231146102e65780637b61c3201461031657610173565b806301ffc9a71461017857806306fdde03146101a8578063081812fc146101c6578063095ea7b3146101f657806318160ddd1461021257806323b872dd14610230575b600080fd5b610192600480360381019061018d9190611b11565b610510565b60405161019f9190611e54565b60405180910390f35b6101b06105b0565b6040516101bd9190611e6f565b60405180910390f35b6101e060048036038101906101db9190611b63565b6105ed565b6040516101ed9190611d78565b60405180910390f35b610210600480360381019061020b9190611ad5565b61063b565b005b61021a6106ed565b6040516102279190611f11565b60405180910390f35b61024a600480360381019061024591906119ca565b6106fa565b005b610266600480360381019061026191906119ca565b6107c2565b005b610282600480360381019061027d9190611b63565b6107e2565b60405161028f9190611d78565b60405180910390f35b6102b260048036038101906102ad9190611b63565b610815565b6040516102bf9190611d78565b60405180910390f35b6102d0610852565b6040516102dd9190611e6f565b60405180910390f35b61030060048036038101906102fb9190611965565b61088b565b60405161030d9190611f11565b60405180910390f35b61031e6108d4565b60405161032b9190611e6f565b60405180910390f35b61034e60048036038101906103499190611965565b61090d565b60405161035b9190611e32565b60405180910390f35b61036c610b08565b6040516103799190611d78565b60405180910390f35b61038a610b2c565b6040516103979190611e6f565b60405180910390f35b6103ba60048036038101906103b59190611a99565b610b69565b005b6103d660048036038101906103d19190611b63565b610c15565b6040516103e39190611d78565b60405180910390f35b61040660048036038101906104019190611ad5565b610c48565b005b610410610d7f565b60405161041d9190611f11565b60405180910390f35b610440600480360381019061043b9190611a19565b610d84565b005b61045c60048036038101906104579190611b63565b610e93565b6040516104699190611f11565b60405180910390f35b61048c60048036038101906104879190611b8c565b610f2b565b005b6104a860048036038101906104a3919061198e565b611072565b6040516104b59190611e54565b60405180910390f35b6104d860048036038101906104d39190611b63565b611106565b6040516104e9959493929190611f2c565b60405180910390f35b6104fa6111e2565b6040516105079190611f11565b60405180910390f35b60006301ffc9a760e01b7bffffffffffffffffffffffffffffffffffffffffffffffffffffffff1916827bffffffffffffffffffffffffffffffffffffffffffffffffffffffff191614806105a957506380ac58cd60e01b7bffffffffffffffffffffffffffffffffffffffffffffffffffffffff1916827bffffffffffffffffffffffffffffffffffffffffffffffffffffffff1916145b9050919050565b60606040518060400160405280601081526020017f4d61726761726974614b69747469657300000000000000000000000000000000815250905090565b6000600280549050821061060057600080fd5b6005600083815260200190815260200160002060009054906101000a900473ffffffffffffffffffffffffffffffffffffffff169050919050565b61064533826111e8565b610684576040517f08c379a000000000000000000000000000000000000000000000000000000000815260040161067b90611eb1565b60405180910390fd5b61068e8282611254565b808273ffffffffffffffffffffffffffffffffffffffff163373ffffffffffffffffffffffffffffffffffffffff167f8c5be1e5ebec7d5bd14f71427d1e84f3dd0314c0f7b2291e5b200ac8c7c3b92560405160405180910390a45050565b6000600280549050905090565b61070483826111e8565b61070d57600080fd5b600073ffffffffffffffffffffffffffffffffffffffff168273ffffffffffffffffffffffffffffffffffffffff16141561074757600080fd5b600280549050811061075857600080fd5b8273ffffffffffffffffffffffffffffffffffffffff163373ffffffffffffffffffffffffffffffffffffffff161480610798575061079733826112aa565b5b806107a957506107a88333611072565b5b6107b257600080fd5b6107bd338383611316565b505050565b6107dd838383604051806020016040528060008152506114dd565b505050565b60056020528060005260406000206000915054906101000a900473ffffffffffffffffffffffffffffffffffffffff1681565b60006004600083815260200190815260200160002060009054906101000a900473ffffffffffffffffffffffffffffffffffffffff169050919050565b6040518060400160405280601081526020017f4d61726761726974614b6974746965730000000000000000000000000000000081525081565b6000600360008373ffffffffffffffffffffffffffffffffffffffff1673ffffffffffffffffffffffffffffffffffffffff168152602001908152602001600020549050919050565b6040518060400160405280600281526020017f4d4b00000000000000000000000000000000000000000000000000000000000081525081565b6060600061091a8361088b565b9050600081141561099d57600067ffffffffffffffff811115610966577f4e487b7100000000000000000000000000000000000000000000000000000000600052604160045260246000fd5b6040519080825280602002602001820160405280156109945781602001602082028036833780820191505090505b50915050610b03565b60008167ffffffffffffffff8111156109df577f4e487b7100000000000000000000000000000000000000000000000000000000600052604160045260246000fd5b604051908082528060200260200182016040528015610a0d5781602001602082028036833780820191505090505b5090506000610a1a6106ed565b9050600080600190505b828111610afa578673ffffffffffffffffffffffffffffffffffffffff166004600083815260200190815260200160002060009054906101000a900473ffffffffffffffffffffffffffffffffffffffff1673ffffffffffffffffffffffffffffffffffffffff161415610ae75780848381518110610acc577f4e487b7100000000000000000000000000000000000000000000000000000000600052603260045260246000fd5b6020026020010181815250508180610ae3906121d6565b9250505b8080610af2906121d6565b915050610a24565b83955050505050505b919050565b60008054906101000a900473ffffffffffffffffffffffffffffffffffffffff1681565b60606040518060400160405280600281526020017f4d4b000000000000000000000000000000000000000000000000000000000000815250905090565b3373ffffffffffffffffffffffffffffffffffffffff168273ffffffffffffffffffffffffffffffffffffffff161415610ba257600080fd5b610bac8282611503565b8173ffffffffffffffffffffffffffffffffffffffff163373ffffffffffffffffffffffffffffffffffffffff167f17307eab39ab6107e8899845ad3d59bd9653f200f220920489ca2b5937696c3183604051610c099190611e54565b60405180910390a35050565b60046020528060005260406000206000915054906101000a900473ffffffffffffffffffffffffffffffffffffffff1681565b600073ffffffffffffffffffffffffffffffffffffffff168273ffffffffffffffffffffffffffffffffffffffff161415610cb8576040517f08c379a0000000000000000000000000000000000000000000000000000000008152600401610caf90611ed1565b60405180910390fd5b3073ffffffffffffffffffffffffffffffffffffffff168273ffffffffffffffffffffffffffffffffffffffff161415610d27576040517f08c379a0000000000000000000000000000000000000000000000000000000008152600401610d1e90611e91565b60405180910390fd5b610d3133826111e8565b610d70576040517f08c379a0000000000000000000000000000000000000000000000000000000008152600401610d6790611eb1565b60405180910390fd5b610d7b338383611316565b5050565b600a81565b610d8e85846111e8565b610d9757600080fd5b600073ffffffffffffffffffffffffffffffffffffffff168473ffffffffffffffffffffffffffffffffffffffff161415610dd157600080fd5b6002805490508310610de257600080fd5b8473ffffffffffffffffffffffffffffffffffffffff163373ffffffffffffffffffffffffffffffffffffffff161480610e225750610e2133846112aa565b5b80610e335750610e328533611072565b5b610e3c57600080fd5b610e8c85858585858080601f016020809104026020016040519081016040528093929190818152602001838380828437600081840152601f19601f820116905080830192505050505050506114dd565b5050505050565b60008060009054906101000a900473ffffffffffffffffffffffffffffffffffffffff1673ffffffffffffffffffffffffffffffffffffffff163373ffffffffffffffffffffffffffffffffffffffff1614610eee57600080fd5b600a60015410610efd57600080fd5b60016000815480929190610f10906121d6565b9190505550610f246000808460003361159b565b9050919050565b610f3533836111e8565b610f74576040517f08c379a0000000000000000000000000000000000000000000000000000000008152600401610f6b90611ef1565b60405180910390fd5b610f7e33826111e8565b610fbd576040517f08c379a0000000000000000000000000000000000000000000000000000000008152600401610fb490611ef1565b60405180910390fd5b600080610fc983611106565b94505050509150600080610fdc86611106565b945050505091506000610fef8584611728565b905060008285101561101e576001836110089190611ff0565b90506002816110179190612046565b905061105a565b82851115611049576001856110339190611ff0565b90506002816110429190612046565b9050611059565b6001836110569190611ff0565b90505b5b611067888883853361159b565b505050505050505050565b6000600660008473ffffffffffffffffffffffffffffffffffffffff1673ffffffffffffffffffffffffffffffffffffffff16815260200190815260200160002060008373ffffffffffffffffffffffffffffffffffffffff1673ffffffffffffffffffffffffffffffffffffffff16815260200190815260200160002060009054906101000a900460ff16905092915050565b60008060008060008060028781548110611149577f4e487b7100000000000000000000000000000000000000000000000000000000600052603260045260246000fd5b906000526020600020906002020190508060010160009054906101000a900467ffffffffffffffff1667ffffffffffffffff1694508060010160089054906101000a900463ffffffff1663ffffffff16935080600101600c9054906101000a900463ffffffff1663ffffffff1692508060010160109054906101000a900461ffff1661ffff169150806000015495505091939590929450565b60015481565b60008273ffffffffffffffffffffffffffffffffffffffff166004600084815260200190815260200160002060009054906101000a900473ffffffffffffffffffffffffffffffffffffffff1673ffffffffffffffffffffffffffffffffffffffff1614905092915050565b816005600083815260200190815260200160002060006101000a81548173ffffffffffffffffffffffffffffffffffffffff021916908373ffffffffffffffffffffffffffffffffffffffff1602179055505050565b60008273ffffffffffffffffffffffffffffffffffffffff166005600084815260200190815260200160002060009054906101000a900473ffffffffffffffffffffffffffffffffffffffff1673ffffffffffffffffffffffffffffffffffffffff1614905092915050565b600360008373ffffffffffffffffffffffffffffffffffffffff1673ffffffffffffffffffffffffffffffffffffffff1681526020019081526020016000206000815480929190611366906121d6565b9190505550816004600083815260200190815260200160002060006101000a81548173ffffffffffffffffffffffffffffffffffffffff021916908373ffffffffffffffffffffffffffffffffffffffff160217905550600073ffffffffffffffffffffffffffffffffffffffff168373ffffffffffffffffffffffffffffffffffffffff161461147d57600360008473ffffffffffffffffffffffffffffffffffffffff1673ffffffffffffffffffffffffffffffffffffffff1681526020019081526020016000206000815480929190611441906121ac565b91905055506005600082815260200190815260200160002060006101000a81549073ffffffffffffffffffffffffffffffffffffffff02191690555b808273ffffffffffffffffffffffffffffffffffffffff168473ffffffffffffffffffffffffffffffffffffffff167fddf252ad1be2c89b69c2b068fc378daa952ba7f163c4a11628f55a4df523b3ef60405160405180910390a4505050565b6114e8848484611316565b6114f48484848461177f565b6114fd57600080fd5b50505050565b80600660003373ffffffffffffffffffffffffffffffffffffffff1673ffffffffffffffffffffffffffffffffffffffff16815260200190815260200160002060008473ffffffffffffffffffffffffffffffffffffffff1673ffffffffffffffffffffffffffffffffffffffff16815260200190815260200160002060006101000a81548160ff0219169083151502179055505050565b6000806040518060a001604052808681526020014267ffffffffffffffff1681526020018863ffffffff1681526020018763ffffffff1681526020018561ffff16815250905060028190806001815401808255809150506001900390600052602060002090600202016000909190919091506000820151816000015560208201518160010160006101000a81548167ffffffffffffffff021916908367ffffffffffffffff16021790555060408201518160010160086101000a81548163ffffffff021916908363ffffffff160217905550606082015181600101600c6101000a81548163ffffffff021916908363ffffffff16021790555060808201518160010160106101000a81548161ffff021916908361ffff1602179055505050600060016002805490506116cd91906120d1565b90507f0a5311bd2a6608f08a180df2ee7c5946819a649b204b554bb8e39825b2c50ad584828a8a8a604051611706959493929190611ddf565b60405180910390a161171a60008583611316565b809250505095945050505050565b6000806305f5e1008461173b9190612046565b905060006305f5e1008461174f919061221f565b905060006305f5e100836117639190612077565b905081816117719190611ff0565b905080935050505092915050565b600061178a84611899565b6117975760019050611891565b60008473ffffffffffffffffffffffffffffffffffffffff1663150b7a02338887876040518563ffffffff1660e01b81526004016117d89493929190611d93565b602060405180830381600087803b1580156117f257600080fd5b505af1158015611806573d6000803e3d6000fd5b505050506040513d601f19601f8201168201806040525081019061182a9190611b3a565b90507f150b7a023d4804d13e8c85fb27262cb750cf6ba9f9dd3bb30d90f482ceeb4b1f7bffffffffffffffffffffffffffffffffffffffffffffffffffffffff1916817bffffffffffffffffffffffffffffffffffffffffffffffffffffffff1916149150505b949350505050565b600080823b905060008163ffffffff1611915050919050565b6000813590506118c1816123af565b92915050565b6000813590506118d6816123c6565b92915050565b6000813590506118eb816123dd565b92915050565b600081519050611900816123dd565b92915050565b60008083601f84011261191857600080fd5b8235905067ffffffffffffffff81111561193157600080fd5b60208301915083600182028301111561194957600080fd5b9250929050565b60008135905061195f816123f4565b92915050565b60006020828403121561197757600080fd5b6000611985848285016118b2565b91505092915050565b600080604083850312156119a157600080fd5b60006119af858286016118b2565b92505060206119c0858286016118b2565b9150509250929050565b6000806000606084860312156119df57600080fd5b60006119ed868287016118b2565b93505060206119fe868287016118b2565b9250506040611a0f86828701611950565b9150509250925092565b600080600080600060808688031215611a3157600080fd5b6000611a3f888289016118b2565b9550506020611a50888289016118b2565b9450506040611a6188828901611950565b935050606086013567ffffffffffffffff811115611a7e57600080fd5b611a8a88828901611906565b92509250509295509295909350565b60008060408385031215611aac57600080fd5b6000611aba858286016118b2565b9250506020611acb858286016118c7565b9150509250929050565b60008060408385031215611ae857600080fd5b6000611af6858286016118b2565b9250506020611b0785828601611950565b9150509250929050565b600060208284031215611b2357600080fd5b6000611b31848285016118dc565b91505092915050565b600060208284031215611b4c57600080fd5b6000611b5a848285016118f1565b91505092915050565b600060208284031215611b7557600080fd5b6000611b8384828501611950565b91505092915050565b60008060408385031215611b9f57600080fd5b6000611bad85828601611950565b9250506020611bbe85828601611950565b9150509250929050565b6000611bd48383611d5a565b60208301905092915050565b611be981612105565b82525050565b6000611bfa82611f8f565b611c048185611fbd565b9350611c0f83611f7f565b8060005b83811015611c40578151611c278882611bc8565b9750611c3283611fb0565b925050600181019050611c13565b5085935050505092915050565b611c5681612117565b82525050565b6000611c6782611f9a565b611c718185611fce565b9350611c81818560208601612179565b611c8a816122ae565b840191505092915050565b6000611ca082611fa5565b611caa8185611fdf565b9350611cba818560208601612179565b611cc3816122ae565b840191505092915050565b6000611cdb602383611fdf565b9150611ce6826122bf565b604082019050919050565b6000611cfe602183611fdf565b9150611d098261230e565b604082019050919050565b6000611d21601783611fdf565b9150611d2c8261235d565b602082019050919050565b6000611d44601f83611fdf565b9150611d4f82612386565b602082019050919050565b611d638161216f565b82525050565b611d728161216f565b82525050565b6000602082019050611d8d6000830184611be0565b92915050565b6000608082019050611da86000830187611be0565b611db56020830186611be0565b611dc26040830185611d69565b8181036060830152611dd48184611c5c565b905095945050505050565b600060a082019050611df46000830188611be0565b611e016020830187611d69565b611e0e6040830186611d69565b611e1b6060830185611d69565b611e286080830184611d69565b9695505050505050565b60006020820190508181036000830152611e4c8184611bef565b905092915050565b6000602082019050611e696000830184611c4d565b92915050565b60006020820190508181036000830152611e898184611c95565b905092915050565b60006020820190508181036000830152611eaa81611cce565b9050919050565b60006020820190508181036000830152611eca81611cf1565b9050919050565b60006020820190508181036000830152611eea81611d14565b9050919050565b60006020820190508181036000830152611f0a81611d37565b9050919050565b6000602082019050611f266000830184611d69565b92915050565b600060a082019050611f416000830188611d69565b611f4e6020830187611d69565b611f5b6040830186611d69565b611f686060830185611d69565b611f756080830184611d69565b9695505050505050565b6000819050602082019050919050565b600081519050919050565b600081519050919050565b600081519050919050565b6000602082019050919050565b600082825260208201905092915050565b600082825260208201905092915050565b600082825260208201905092915050565b6000611ffb8261216f565b91506120068361216f565b9250827fffffffffffffffffffffffffffffffffffffffffffffffffffffffffffffffff0382111561203b5761203a612250565b5b828201905092915050565b60006120518261216f565b915061205c8361216f565b92508261206c5761206b61227f565b5b828204905092915050565b60006120828261216f565b915061208d8361216f565b9250817fffffffffffffffffffffffffffffffffffffffffffffffffffffffffffffffff04831182151516156120c6576120c5612250565b5b828202905092915050565b60006120dc8261216f565b91506120e78361216f565b9250828210156120fa576120f9612250565b5b828203905092915050565b60006121108261214f565b9050919050565b60008115159050919050565b60007fffffffff0000000000000000000000000000000000000000000000000000000082169050919050565b600073ffffffffffffffffffffffffffffffffffffffff82169050919050565b6000819050919050565b60005b8381101561219757808201518184015260208101905061217c565b838111156121a6576000848401525b50505050565b60006121b78261216f565b915060008214156121cb576121ca612250565b5b600182039050919050565b60006121e18261216f565b91507fffffffffffffffffffffffffffffffffffffffffffffffffffffffffffffffff82141561221457612213612250565b5b600182019050919050565b600061222a8261216f565b91506122358361216f565b9250826122455761224461227f565b5b828206905092915050565b7f4e487b7100000000000000000000000000000000000000000000000000000000600052601160045260246000fd5b7f4e487b7100000000000000000000000000000000000000000000000000000000600052601260045260246000fd5b6000601f19601f8301169050919050565b7f4552433732313a2063616e6e6f74207472616e7366657220746f20796f75727360008201527f656c660000000000000000000000000000000000000000000000000000000000602082015250565b7f4552433732313a20796f7520646f206e6f74206f776e207468697320746f6b6560008201527f6e00000000000000000000000000000000000000000000000000000000000000602082015250565b7f4552433732313a20696e76616c69642061646472657373000000000000000000600082015250565b7f546865207573657220646f6573206e6f74206f776e2074686520746f6b656e00600082015250565b6123b881612105565b81146123c357600080fd5b50565b6123cf81612117565b81146123da57600080fd5b50565b6123e681612123565b81146123f157600080fd5b50565b6123fd8161216f565b811461240857600080fd5b5056fea26469706673582212203f3e31c918e07b63b789eef5b76ba43c39b8f4984b8faf61d1b72cde0a2d7c6064736f6c63430008030033",
  "immutableReferences": {},
  "source": "// SPDX-License-Identifier: MIT\n\npragma solidity ^0.8.3;\n\nimport \"./Ownable.sol\";\nimport \"./IERC721.sol\";\nimport \"./IERC721Receiver.sol\";\n\ncontract kittyContract is IERC721, Ownable {\n    \n    uint256 public constant CREATION_LIMIT_GEN0=10;\n    string public constant tokenName = \"MargaritaKitties\";\n    string public constant tokenSymbol = \"MK\";\n\n    bytes4 internal constant MAGIC_ERC721_RECEIVED = bytes4(keccak256(\"onERC721Received(address,address,uint256,bytes)\"));\n    bytes4 private constant __INTERFACE_TO_ERC721 = 0x80ac58cd;\n    bytes4 private constant __INTERFACE_TO_ERC165 = 0x01ffc9a7;\n\n\n    uint256 public gen0Counter;\n    \n    event Birth(\n        address owner,\n        uint256 newKittenId,\n        uint256 mumId,\n        uint256 dadId,\n        uint256 genes\n    );\n    \n    struct Kitty{\n        uint256 genes;\n        uint64 birthTime;\n        uint32 mumId;\n        uint32 dadId;\n        uint16 generation;\n    }\n\n    Kitty[] kitties;\n\n    mapping (address => uint256) ownershipTokenCount;\n    mapping (uint256 => address) public kittyIndexToOwner;\n    mapping (uint256 => address) public kittyIndexToApproved;\n    mapping (address => mapping(address => bool)) private _operatorApprovals;\n\nfunction supportsInterface( bytes4 _interfaceId) external pure returns (bool){\n    return (_interfaceId == __INTERFACE_TO_ERC165 || _interfaceId == __INTERFACE_TO_ERC721);\n}\n\nfunction breed(uint256 _mumId, uint256 _dadId) public {\n    require(_owns(msg.sender, _mumId), \"The user does not own the token\");\n    require(_owns(msg.sender, _dadId), \"The user does not own the token\");\n\n    (uint256 dadDna,,,,uint256 DadGeneration) = getKitty(_dadId);\n    (uint256 mumDna,,,,uint256 MumGeneration) = getKitty(_mumId);\n    uint256 newDna = _mixDna(dadDna, mumDna);\n\n    uint256 kidGen = 0;\n\n    if (DadGeneration < MumGeneration){\n        kidGen = MumGeneration + 1;\n        kidGen /=2;\n    } else if (DadGeneration > MumGeneration){\n        kidGen = DadGeneration + 1;\n        kidGen /=2;\n    } else{\n        kidGen = MumGeneration + 1;\n    }\n\n    _createKitty(_mumId, _dadId, kidGen, newDna, msg.sender);\n}\n\nfunction createKittyGen0(uint256 _genes) public onlyOwner returns(uint256){\n    require(gen0Counter< CREATION_LIMIT_GEN0);\n\n    gen0Counter++;\n\n    return _createKitty(0, 0, _genes, 0, msg.sender);\n\n}\n\nfunction getKitty(uint256 _tokenId) public view returns(\n        uint256 genes, \n        uint256 birthTime, \n        uint256 mumId, \n        uint256 dadId, \n        uint256 generation){\n\n            Kitty storage kitty = kitties[_tokenId];\n\n        birthTime = uint256(kitty.birthTime);\n        mumId = uint256(kitty.mumId);\n        dadId = uint256(kitty.dadId);\n        generation = uint256(kitty.generation);\n        genes = kitty.genes;\n}\n\nfunction _createKitty(\n    uint256 _mumId,\n    uint256 _dadId,\n    uint256 _genes,\n    uint256 _generation,\n    address _owner\n) private returns (uint256){\n    Kitty memory _kitty = Kitty({\n        genes: _genes,\n        birthTime: uint64(block.timestamp),\n        mumId: uint32(_mumId),\n        dadId: uint32(_dadId),\n        generation: uint16(_generation)\n    });\n\n    kitties.push(_kitty);\n\n    uint256 newKittenId = kitties.length -1;\n\n    emit Birth(_owner, newKittenId, _mumId, _dadId, _genes);\n\n    _transfer(address(0), _owner, newKittenId);\n\n    return newKittenId;\n}\n\n\nfunction balanceOf(address owner) public view override returns (uint256){\n    return ownershipTokenCount[owner];\n}\n\nfunction totalSupply() public view override returns (uint256){\n    return kitties.length;\n}\n\nfunction name() external pure override returns (string memory){\n    return tokenName;\n}\n\nfunction symbol() external pure override returns (string memory){\n    return tokenSymbol;\n}\n\nfunction ownerOf(uint256 _tokenId) external view override returns (address){\n    return kittyIndexToOwner[_tokenId];\n}\n\n\nfunction _safeTransfer(address _from, address _to, uint256 _tokenId, bytes memory _data) internal{\n    _transfer(_from, _to, _tokenId);\n    require(_checkERC721Support(_from, _to, _tokenId, _data));\n\n}\n\nfunction safeTransferFrom(address _from, address _to, uint256 _tokenId, bytes calldata _data) override external{\n    require(_owns(_from, _tokenId));\n    require(_to != address(0));\n    require(_tokenId < kitties.length);\n    require(msg.sender == _from || _approvedFor(msg.sender, _tokenId) || isApprovedForAll(_from, msg.sender));\n\n    _safeTransfer(_from, _to, _tokenId, _data );\n}\n\nfunction safeTransferFrom(address _from, address _to, uint256 _tokenId) override external{\n    _safeTransfer(_from, _to, _tokenId, \"\");\n}\n\n\nfunction transferFrom(address _from, address _to, uint256 _tokenId) override public {\n    require(_owns(_from, _tokenId));\n    require(_to != address(0));\n    require(_tokenId < kitties.length);\n    require(msg.sender == _from || _approvedFor(msg.sender, _tokenId) || isApprovedForAll(_from, msg.sender));\n\n    _transfer(msg.sender, _to, _tokenId);\n}\n\n\nfunction transfer(address _to, uint256 _tokenId) public override {\n    require (_to != address(0), \"ERC721: invalid address\");\n    require (_to != address(this), \"ERC721: cannot transfer to yourself\");\n    require (_owns(msg.sender,_tokenId), \"ERC721: you do not own this token\");\n\n    _transfer(msg.sender, _to, _tokenId);\n}\n\nfunction _transfer(address _from, address _to, uint256 _tokenId) internal {\n    ownershipTokenCount[_to]++;\n    kittyIndexToOwner[_tokenId] = _to;\n\n    if(_from != address(0)){\n        ownershipTokenCount[_from]--;\n        delete kittyIndexToApproved[_tokenId];\n    }\n\nemit Transfer(_from, _to, _tokenId);\n}\n\nfunction approve(address _approved, uint256 _tokenId) override public {\n    require (_owns(msg.sender, _tokenId), \"ERC721: you do not own this token\");\n    \n    _approve(_approved, _tokenId);\n    emit Approval(msg.sender, _approved, _tokenId);\n}\n\nfunction setApprovalForAll(address _operator, bool approved) override external{\n    require (_operator != msg.sender);\n\n    _setApprovalForAll(_operator, approved);\n    emit ApprovalForAll(msg.sender, _operator, approved);\n}\n\nfunction _setApprovalForAll(address _operator, bool approved) internal{\n_operatorApprovals[msg.sender][_operator] = approved;\n}\n\nfunction getApproved(uint256 _tokenId) external view override returns (address){\n    require (_tokenId < kitties.length); //Token must exist;\n\n    return kittyIndexToApproved[_tokenId];\n}\n\nfunction isApprovedForAll(address _owner, address _operator) public view override returns (bool){\n    return _operatorApprovals[_owner][_operator];\n}\n\nfunction _approve(address _approved, uint256 _tokenId) internal{\n    kittyIndexToApproved[_tokenId] = _approved;\n}\n\nfunction _owns(address _claimant, uint256 _tokenId) internal view returns(bool){\n    return kittyIndexToOwner[_tokenId]==_claimant;\n}\nfunction _approvedFor(address _claimant, uint256 _tokenId) internal view returns(bool){\n    return kittyIndexToApproved[_tokenId]==_claimant;\n    }\n\nfunction _checkERC721Support(address _from, address _to, uint256 _tokenId, bytes memory _data) internal returns(bool){\n    if(!_isContract(_to)){\n        return true;\n    }\n    bytes4 returnData = IERC721Receiver(_to).onERC721Received(msg.sender, _from, _tokenId, _data);\n    return returnData == MAGIC_ERC721_RECEIVED;\n}\n\nfunction _isContract(address _to) view internal returns(bool){\n    uint32 size;\n    assembly{\n        size := extcodesize(_to)\n    }\n    return size > 0;\n}\n\nfunction _mixDna(uint256 _mumId, uint256 _dadId) internal pure returns(uint256){\n    uint256 firstHalf = _mumId / 100000000;\n    uint256 secondHalf = _dadId % 100000000;\n\n    uint256 newDna = firstHalf * 100000000;\n    newDna = newDna + secondHalf;\n\n    return newDna;\n}\n\nfunction tokensOfOwner(address _owner) public view returns(uint256[] memory ownerTokens) {\n    uint256 tokenCount = balanceOf(_owner);\n\n    if (tokenCount == 0) {\n        return new uint256[](0);\n    } else {\n        uint256[] memory result = new uint256[](tokenCount);\n        uint256 totalCats = totalSupply();\n        uint256 resultIndex = 0;\n\n        uint256 catId;\n\n        for (catId = 1; catId <= totalCats; catId++) {\n            if (kittyIndexToOwner[catId] == _owner) {\n                result[resultIndex] = catId;\n                resultIndex++;\n            }\n        }\n\n        return result;\n    }\n}\n}\n",
  "sourcePath": "/Users/margaritagyorgiev/Desktop/IOT/Ethereum course advanced/CryptoKitties_Clone/academy-kitties-template/contracts/kittyContract.sol",
  "compiler": {
    "name": "solc",
    "version": "0.8.3+commit.8d00100c.Emscripten.clang"
  },
  "schemaVersion": "3.3.4",
  "updatedAt": "2021-06-25T23:59:37.867Z",
  "networkType": "ethereum",
  "devdoc": {
    "kind": "dev",
    "methods": {
      "approve(address,uint256)": {
        "details": "The zero address indicates there is no approved address.  Throws unless `msg.sender` is the current NFT owner, or an authorized  operator of the current owner.",
        "params": {
          "_approved": "The new approved NFT controller",
          "_tokenId": "The NFT to approve"
        }
      },
      "balanceOf(address)": {
        "details": "Returns the number of tokens in ``owner``'s account."
      },
      "getApproved(uint256)": {
        "details": "Throws if `_tokenId` is not a valid NFT.",
        "params": {
          "_tokenId": "The NFT to find the approved address for"
        },
        "returns": {
          "_0": "The approved address for this NFT, or the zero address if there is none"
        }
      },
      "isApprovedForAll(address,address)": {
        "params": {
          "_operator": "The address that acts on behalf of the owner",
          "_owner": "The address that owns the NFTs"
        },
        "returns": {
          "_0": "True if `_operator` is an approved operator for `_owner`, false otherwise"
        }
      },
      "safeTransferFrom(address,address,uint256)": {
        "details": "This works identically to the other function with an extra data parameter,  except this function just sets data to \"\".",
        "params": {
          "_from": "The current owner of the NFT",
          "_to": "The new owner",
          "_tokenId": "The NFT to transfer"
        }
      },
      "transferFrom(address,address,uint256)": {
        "details": "Throws unless `msg.sender` is the current owner, an authorized  operator, or the approved address for this NFT. Throws if `_from` is  not the current owner. Throws if `_to` is the zero address. Throws if  `_tokenId` is not a valid NFT.",
        "params": {
          "_from": "The current owner of the NFT",
          "_to": "The new owner",
          "_tokenId": "The NFT to transfer"
        }
      }
    },
    "version": 1
  },
  "userdoc": {
    "kind": "user",
    "methods": {
      "approve(address,uint256)": {
        "notice": "Change or reaffirm the approved address for an NFT"
      },
      "getApproved(uint256)": {
        "notice": "Get the approved address for a single NFT"
      },
      "isApprovedForAll(address,address)": {
        "notice": "Query if an address is an authorized operator for another address"
      },
      "safeTransferFrom(address,address,uint256)": {
        "notice": "Transfers the ownership of an NFT from one address to another address"
      },
      "transferFrom(address,address,uint256)": {
        "notice": "Transfer ownership of an NFT -- THE CALLER IS RESPONSIBLE  TO CONFIRM THAT `_to` IS CAPABLE OF RECEIVING NFTS OR ELSE  THEY MAY BE PERMANENTLY LOST"
      }
    },
    "version": 1
  }
}