{
  "contractName": "KittyMarketplace",
  "abi": [
    {
      "inputs": [
        {
          "internalType": "address",
          "name": "_kittyContractAddress",
          "type": "address"
        }
      ],
      "stateMutability": "nonpayable",
      "type": "constructor"
    },
    {
      "anonymous": false,
      "inputs": [
        {
          "indexed": false,
          "internalType": "string",
          "name": "TxType",
          "type": "string"
        },
        {
          "indexed": false,
          "internalType": "address",
          "name": "owner",
          "type": "address"
        },
        {
          "indexed": false,
          "internalType": "uint256",
          "name": "tokenId",
          "type": "uint256"
        }
      ],
      "name": "MarketTransaction",
      "type": "event"
    },
    {
      "inputs": [],
      "name": "owner",
      "outputs": [
        {
          "internalType": "address",
          "name": "",
          "type": "address"
        }
      ],
      "stateMutability": "view",
      "type": "function",
      "constant": true
    },
    {
      "inputs": [
        {
          "internalType": "address",
          "name": "_kittyContractAddress",
          "type": "address"
        }
      ],
      "name": "setkittyContract",
      "outputs": [],
      "stateMutability": "nonpayable",
      "type": "function"
    },
    {
      "inputs": [
        {
          "internalType": "uint256",
          "name": "_tokenId",
          "type": "uint256"
        }
      ],
      "name": "getOffer",
      "outputs": [
        {
          "internalType": "address",
          "name": "seller",
          "type": "address"
        },
        {
          "internalType": "uint256",
          "name": "price",
          "type": "uint256"
        },
        {
          "internalType": "uint256",
          "name": "index",
          "type": "uint256"
        },
        {
          "internalType": "uint256",
          "name": "tokenId",
          "type": "uint256"
        },
        {
          "internalType": "bool",
          "name": "active",
          "type": "bool"
        }
      ],
      "stateMutability": "view",
      "type": "function",
      "constant": true
    },
    {
      "inputs": [],
      "name": "getAllTokenOnSale",
      "outputs": [
        {
          "internalType": "uint256[]",
          "name": "listOfOffers",
          "type": "uint256[]"
        }
      ],
      "stateMutability": "view",
      "type": "function",
      "constant": true
    },
    {
      "inputs": [
        {
          "internalType": "uint256",
          "name": "_price",
          "type": "uint256"
        },
        {
          "internalType": "uint256",
          "name": "_tokenId",
          "type": "uint256"
        }
      ],
      "name": "setOffer",
      "outputs": [],
      "stateMutability": "nonpayable",
      "type": "function"
    },
    {
      "inputs": [
        {
          "internalType": "uint256",
          "name": "_tokenId",
          "type": "uint256"
        }
      ],
      "name": "removeOffer",
      "outputs": [],
      "stateMutability": "nonpayable",
      "type": "function"
    },
    {
      "inputs": [
        {
          "internalType": "uint256",
          "name": "_tokenId",
          "type": "uint256"
        }
      ],
      "name": "buyKitty",
      "outputs": [],
      "stateMutability": "payable",
      "type": "function",
      "payable": true
    }
  ],
  "bytecode": "0x60806040523480156200001157600080fd5b50604051620019a6380380620019a6833981810160405281019062000037919062000143565b336000806101000a81548173ffffffffffffffffffffffffffffffffffffffff021916908373ffffffffffffffffffffffffffffffffffffffff16021790555062000088816200008f60201b60201c565b50620001c8565b60008054906101000a900473ffffffffffffffffffffffffffffffffffffffff1673ffffffffffffffffffffffffffffffffffffffff163373ffffffffffffffffffffffffffffffffffffffff1614620000e857600080fd5b80600160006101000a81548173ffffffffffffffffffffffffffffffffffffffff021916908373ffffffffffffffffffffffffffffffffffffffff16021790555050565b6000815190506200013d81620001ae565b92915050565b6000602082840312156200015c576200015b620001a9565b5b60006200016c848285016200012c565b91505092915050565b6000620001828262000189565b9050919050565b600073ffffffffffffffffffffffffffffffffffffffff82169050919050565b600080fd5b620001b98162000175565b8114620001c557600080fd5b50565b6117ce80620001d86000396000f3fe6080604052600436106100705760003560e01c80638da5cb5b1161004e5780638da5cb5b1461010a578063941b055b1461013557806395a0f9c71461015e578063ae5310f61461018757610070565b80634579268a1461007557806349b3709f146100b65780638174fbfb146100e1575b600080fd5b34801561008157600080fd5b5061009c60048036038101906100979190610ebf565b6101a3565b6040516100ad9594939291906111a3565b60405180910390f35b3480156100c257600080fd5b506100cb61021b565b6040516100d891906111f6565b60405180910390f35b3480156100ed57600080fd5b5061010860048036038101906101039190610e38565b61037c565b005b34801561011657600080fd5b5061011f610418565b60405161012c9190611128565b60405180910390f35b34801561014157600080fd5b5061015c60048036038101906101579190610eec565b61043c565b005b34801561016a57600080fd5b5061018560048036038101906101809190610ebf565b6107b1565b005b6101a1600480360381019061019c9190610ebf565b6109bc565b005b6000806000806000806003600088815260200190815260200160002090508060000160009054906101000a900473ffffffffffffffffffffffffffffffffffffffff168160010154826002015483600301548460040160009054906101000a900460ff16955095509550955095505091939590929450565b606060006002805490509050600081141561028257600067ffffffffffffffff81111561024b5761024a611516565b5b6040519080825280602002602001820160405280156102795781602001602082028036833780820191505090505b50915050610379565b60008167ffffffffffffffff81111561029e5761029d611516565b5b6040519080825280602002602001820160405280156102cc5781602001602082028036833780820191505090505b50905060005b828110156103725760011515600282815481106102f2576102f16114e7565b5b906000526020600020906005020160040160009054906101000a900460ff161515141561035f576002818154811061032d5761032c6114e7565b5b906000526020600020906005020160030154828281518110610352576103516114e7565b5b6020026020010181815250505b808061036a9061146f565b9150506102d2565b8193505050505b90565b60008054906101000a900473ffffffffffffffffffffffffffffffffffffffff1673ffffffffffffffffffffffffffffffffffffffff163373ffffffffffffffffffffffffffffffffffffffff16146103d457600080fd5b80600160006101000a81548173ffffffffffffffffffffffffffffffffffffffff021916908373ffffffffffffffffffffffffffffffffffffffff16021790555050565b60008054906101000a900473ffffffffffffffffffffffffffffffffffffffff1681565b6104463382610d01565b610485576040517f08c379a000000000000000000000000000000000000000000000000000000000815260040161047c9061134c565b60405180910390fd5b600015156003600083815260200190815260200160002060040160009054906101000a900460ff161515146104ef576040517f08c379a00000000000000000000000000000000000000000000000000000000081526004016104e6906112f0565b60405180910390fd5b600160009054906101000a900473ffffffffffffffffffffffffffffffffffffffff1673ffffffffffffffffffffffffffffffffffffffff1663e985e9c533306040518363ffffffff1660e01b815260040161054c92919061117a565b60206040518083038186803b15801561056457600080fd5b505afa158015610578573d6000803e3d6000fd5b505050506040513d601f19601f8201168201806040525081019061059c9190610e92565b6105db576040517f08c379a00000000000000000000000000000000000000000000000000000000081526004016105d290611258565b60405180910390fd5b60006040518060a001604052803373ffffffffffffffffffffffffffffffffffffffff1681526020018481526020016002805490508152602001838152602001600115158152509050806003600084815260200190815260200160002060008201518160000160006101000a81548173ffffffffffffffffffffffffffffffffffffffff021916908373ffffffffffffffffffffffffffffffffffffffff16021790555060208201518160010155604082015181600201556060820151816003015560808201518160040160006101000a81548160ff021916908315150217905550905050600281908060018154018082558091505060019003906000526020600020906005020160009091909190915060008201518160000160006101000a81548173ffffffffffffffffffffffffffffffffffffffff021916908373ffffffffffffffffffffffffffffffffffffffff16021790555060208201518160010155604082015181600201556060820151816003015560808201518160040160006101000a81548160ff02191690831515021790555050507fd99e4fad9ad6313b1feb588fa8e605e3a9873172f2024330c35dd2b4041a438633836040516107a4929190611278565b60405180910390a1505050565b6000600360008381526020019081526020016000206040518060a00160405290816000820160009054906101000a900473ffffffffffffffffffffffffffffffffffffffff1673ffffffffffffffffffffffffffffffffffffffff1673ffffffffffffffffffffffffffffffffffffffff1681526020016001820154815260200160028201548152602001600382015481526020016004820160009054906101000a900460ff16151515158152505090503373ffffffffffffffffffffffffffffffffffffffff16816000015173ffffffffffffffffffffffffffffffffffffffff16146108d4576040517f08c379a00000000000000000000000000000000000000000000000000000000081526004016108cb9061136c565b60405180910390fd5b60036000838152602001908152602001600020600080820160006101000a81549073ffffffffffffffffffffffffffffffffffffffff02191690556001820160009055600282016000905560038201600090556004820160006101000a81549060ff0219169055505060006002826040015181548110610957576109566114e7565b5b906000526020600020906005020160040160006101000a81548160ff0219169083151502179055507fd99e4fad9ad6313b1feb588fa8e605e3a9873172f2024330c35dd2b4041a438633836040516109b0929190611310565b60405180910390a15050565b6000600360008381526020019081526020016000206040518060a00160405290816000820160009054906101000a900473ffffffffffffffffffffffffffffffffffffffff1673ffffffffffffffffffffffffffffffffffffffff1673ffffffffffffffffffffffffffffffffffffffff1681526020016001820154815260200160028201548152602001600382015481526020016004820160009054906101000a900460ff161515151581525050905080602001513414610ab3576040517f08c379a0000000000000000000000000000000000000000000000000000000008152600401610aaa90611238565b60405180910390fd5b600115156003600084815260200190815260200160002060040160009054906101000a900460ff16151514610b1d576040517f08c379a0000000000000000000000000000000000000000000000000000000008152600401610b1490611218565b60405180910390fd5b60036000838152602001908152602001600020600080820160006101000a81549073ffffffffffffffffffffffffffffffffffffffff02191690556001820160009055600282016000905560038201600090556004820160006101000a81549060ff02191690555050600015156002600360008581526020019081526020016000206002015481548110610bb457610bb36114e7565b5b906000526020600020906005020160040160009054906101000a90505050600081602001511115610c2f57806000015173ffffffffffffffffffffffffffffffffffffffff166108fc82602001519081150290604051600060405180830381858888f19350505050158015610c2d573d6000803e3d6000fd5b505b600160009054906101000a900473ffffffffffffffffffffffffffffffffffffffff1673ffffffffffffffffffffffffffffffffffffffff166323b872dd826000015133856040518463ffffffff1660e01b8152600401610c9293929190611143565b600060405180830381600087803b158015610cac57600080fd5b505af1158015610cc0573d6000803e3d6000fd5b505050507fd99e4fad9ad6313b1feb588fa8e605e3a9873172f2024330c35dd2b4041a43863383604051610cf59291906112b4565b60405180910390a15050565b60008273ffffffffffffffffffffffffffffffffffffffff16600160009054906101000a900473ffffffffffffffffffffffffffffffffffffffff1673ffffffffffffffffffffffffffffffffffffffff16636352211e846040518263ffffffff1660e01b8152600401610d75919061138c565b60206040518083038186803b158015610d8d57600080fd5b505afa158015610da1573d6000803e3d6000fd5b505050506040513d601f19601f82011682018060405250810190610dc59190610e65565b73ffffffffffffffffffffffffffffffffffffffff1614905092915050565b600081359050610df381611753565b92915050565b600081519050610e0881611753565b92915050565b600081519050610e1d8161176a565b92915050565b600081359050610e3281611781565b92915050565b600060208284031215610e4e57610e4d611545565b5b6000610e5c84828501610de4565b91505092915050565b600060208284031215610e7b57610e7a611545565b5b6000610e8984828501610df9565b91505092915050565b600060208284031215610ea857610ea7611545565b5b6000610eb684828501610e0e565b91505092915050565b600060208284031215610ed557610ed4611545565b5b6000610ee384828501610e23565b91505092915050565b60008060408385031215610f0357610f02611545565b5b6000610f1185828601610e23565b9250506020610f2285828601610e23565b9150509250929050565b6000610f38838361110a565b60208301905092915050565b610f4d81611439565b82525050565b610f5c816113f1565b82525050565b6000610f6d826113b7565b610f7781856113cf565b9350610f82836113a7565b8060005b83811015610fb3578151610f9a8882610f2c565b9750610fa5836113c2565b925050600181019050610f86565b5085935050505092915050565b610fc981611403565b82525050565b6000610fdc6017836113e0565b9150610fe78261154a565b602082019050919050565b6000610fff6016836113e0565b915061100a82611573565b602082019050919050565b6000611022603c836113e0565b915061102d8261159c565b604082019050919050565b6000611045600c836113e0565b9150611050826115eb565b602082019050919050565b60006110686003836113e0565b915061107382611614565b602082019050919050565b600061108b6025836113e0565b91506110968261163d565b604082019050919050565b60006110ae600c836113e0565b91506110b98261168c565b602082019050919050565b60006110d16023836113e0565b91506110dc826116b5565b604082019050919050565b60006110f46024836113e0565b91506110ff82611704565b604082019050919050565b6111138161142f565b82525050565b6111228161142f565b82525050565b600060208201905061113d6000830184610f53565b92915050565b60006060820190506111586000830186610f44565b6111656020830185610f53565b6111726040830184611119565b949350505050565b600060408201905061118f6000830185610f53565b61119c6020830184610f53565b9392505050565b600060a0820190506111b86000830188610f53565b6111c56020830187611119565b6111d26040830186611119565b6111df6060830185611119565b6111ec6080830184610fc0565b9695505050505050565b600060208201905081810360008301526112108184610f62565b905092915050565b6000602082019050818103600083015261123181610fcf565b9050919050565b6000602082019050818103600083015261125181610ff2565b9050919050565b6000602082019050818103600083015261127181611015565b9050919050565b6000606082019050818103600083015261129181611038565b90506112a06020830185610f53565b6112ad6040830184611119565b9392505050565b600060608201905081810360008301526112cd8161105b565b90506112dc6020830185610f53565b6112e96040830184611119565b9392505050565b600060208201905081810360008301526113098161107e565b9050919050565b60006060820190508181036000830152611329816110a1565b90506113386020830185610f53565b6113456040830184611119565b9392505050565b60006020820190508181036000830152611365816110c4565b9050919050565b60006020820190508181036000830152611385816110e7565b9050919050565b60006020820190506113a16000830184611119565b92915050565b6000819050602082019050919050565b600081519050919050565b6000602082019050919050565b600082825260208201905092915050565b600082825260208201905092915050565b60006113fc8261140f565b9050919050565b60008115159050919050565b600073ffffffffffffffffffffffffffffffffffffffff82169050919050565b6000819050919050565b60006114448261144b565b9050919050565b60006114568261145d565b9050919050565b60006114688261140f565b9050919050565b600061147a8261142f565b91507fffffffffffffffffffffffffffffffffffffffffffffffffffffffffffffffff8214156114ad576114ac6114b8565b5b600182019050919050565b7f4e487b7100000000000000000000000000000000000000000000000000000000600052601160045260246000fd5b7f4e487b7100000000000000000000000000000000000000000000000000000000600052603260045260246000fd5b7f4e487b7100000000000000000000000000000000000000000000000000000000600052604160045260246000fd5b600080fd5b7f4e6f20616374697665206f726465722070726573656e74000000000000000000600082015250565b7f54686520707269636520697320696e636f727265637400000000000000000000600082015250565b7f436f6e7472616374206e6565647320746f20626520617070726f76656420746f60008201527f207472616e66657220746865206b6974747920696e2066757475726500000000602082015250565b7f437265617465206f666665720000000000000000000000000000000000000000600082015250565b7f4275790000000000000000000000000000000000000000000000000000000000600082015250565b7f596f2063616e206e6f742073656c6c207477696365207468652073616d65206f60008201527f6666657273000000000000000000000000000000000000000000000000000000602082015250565b7f52656d6f7665206f666665720000000000000000000000000000000000000000600082015250565b7f596f7520617265206e6f7420746865206f776e6572206f662074686174206b6960008201527f7474790000000000000000000000000000000000000000000000000000000000602082015250565b7f596f7520617265206e6f74207468652073656c6c6572206f662074686973206b60008201527f6974747900000000000000000000000000000000000000000000000000000000602082015250565b61175c816113f1565b811461176757600080fd5b50565b61177381611403565b811461177e57600080fd5b50565b61178a8161142f565b811461179557600080fd5b5056fea26469706673582212201241124f89fffa7e0b392c6b7cca144ad0ebefe1e2d6e55591f997b54ce2658c64736f6c63430008060033",
  "immutableReferences": {},
  "source": "// SPDX-License-Identifier: MIT\n\npragma solidity ^0.8.3;\n\nimport \"./kittyContract.sol\";\nimport \"./Ownable.sol\";\n\n\ncontract KittyMarketplace is Ownable {\n\n    kittyContract private _kittyContract;\n\n    struct Offer{\n        address payable seller;\n        uint256 price;\n        uint256 index;\n        uint256 tokenId;\n        bool active;\n    }\n\n    Offer[] offers;\n\n    event MarketTransaction(string TxType, address owner, uint256 tokenId);\n\n    mapping(uint256 => Offer) tokenIdToOffer;\n\n    function setkittyContract(address _kittyContractAddress) public onlyOwner{\n        _kittyContract = kittyContract(_kittyContractAddress);\n    }\n\n    constructor(address _kittyContractAddress) public {\n        setkittyContract(_kittyContractAddress);\n    }\n\n    function getOffer(uint256 _tokenId) external view returns ( address seller, uint256 price, uint256 index, uint256 tokenId, bool active){\n        Offer storage offer = tokenIdToOffer[_tokenId];\n        return(\n            offer.seller,\n            offer.price,\n            offer.index,\n            offer.tokenId,\n            offer.active\n        );\n    }\n\n    function getAllTokenOnSale() external view  returns(uint256[] memory listOfOffers){\n        uint256 totalOffers = offers.length;\n\n        if(totalOffers == 0){\n            return new uint256[](0);\n        } else{\n            uint256[] memory result = new uint256[](totalOffers);\n\n            uint256 offerId;\n\n            for(offerId = 0; offerId<totalOffers; offerId++){\n                if(offers[offerId].active == true){\n                    result[offerId] = offers[offerId].tokenId;\n                }\n            }\n\n            return result;\n        }\n\n    }\n\n    function _ownsKitty(address _address, uint256 _tokenId) internal view returns(bool){\n        return (_kittyContract.ownerOf(_tokenId)==_address);\n    }\n\n    function setOffer(uint256 _price, uint256 _tokenId) public{\n        require(_ownsKitty(msg.sender, _tokenId), \"You are not the owner of that kitty\");\n        require(tokenIdToOffer[_tokenId].active == false, \"Yo can not sell twice the same offers\");\n        require(_kittyContract.isApprovedForAll(msg.sender, address(this)), \"Contract needs to be approved to tranfer the kitty in future\");\n\n    Offer memory _offer = Offer({\n        seller: payable(msg.sender),\n        price: _price,\n        active: true,\n        tokenId: _tokenId,\n        index: offers.length\n    });\n\n    tokenIdToOffer[_tokenId]=_offer;\n    offers.push(_offer);\n\n    emit MarketTransaction(\"Create offer\", msg.sender, _tokenId);\n    }\n    function removeOffer(uint256 _tokenId) public{\n        Offer memory offer = tokenIdToOffer[_tokenId];\n        require(offer.seller == msg.sender, \"You are not the seller of this kitty\");\n\n    delete tokenIdToOffer[_tokenId];\n    offers[offer.index].active = false;\n\n    emit MarketTransaction(\"Remove offer\", msg.sender, _tokenId);\n\n    }\n    function buyKitty(uint256 _tokenId) public payable{\n\n        Offer memory offer = tokenIdToOffer[_tokenId];\n        require(msg.value == offer.price, \"The price is incorrect\");\n        require(tokenIdToOffer[_tokenId].active == true, \"No active order present\");\n\n        //Important: delete the kitty from the mapping BEFORE paying out in order to prevent re-entrancy\n        delete tokenIdToOffer[_tokenId];\n        offers[tokenIdToOffer[_tokenId].index].active == false;\n\n        // Transfer funds to the seller\n\n        if (offer.price>0){\n            offer.seller.transfer(offer.price);\n        }\n\n        //Transfer ownership\n\n        _kittyContract.transferFrom(offer.seller, msg.sender, _tokenId);\n\n        emit MarketTransaction(\"Buy\", msg.sender, _tokenId);\n\n    }\n}",
  "sourcePath": "/Users/margaritagyorgiev/Desktop/IOT/Ethereum course advanced/CryptoKitties_Clone/academy-kitties-template/contracts/kittyMarketplace.sol",
  "compiler": {
    "name": "solc",
    "version": "0.8.6+commit.11564f7e.Emscripten.clang"
  },
  "schemaVersion": "3.3.4",
  "updatedAt": "2021-07-04T21:29:57.341Z",
  "networkType": "ethereum",
  "devdoc": {
    "kind": "dev",
    "methods": {},
    "version": 1
  },
  "userdoc": {
    "kind": "user",
    "methods": {},
    "version": 1
  }
}