{
  "contractName": "kittyContract",
  "abi": [
    {
      "anonymous": false,
      "inputs": [
        {
          "indexed": true,
          "internalType": "address",
          "name": "owner",
          "type": "address"
        },
        {
          "indexed": true,
          "internalType": "address",
          "name": "approved",
          "type": "address"
        },
        {
          "indexed": true,
          "internalType": "uint256",
          "name": "tokenId",
          "type": "uint256"
        }
      ],
      "name": "Approval",
      "type": "event"
    },
    {
      "anonymous": false,
      "inputs": [
        {
          "indexed": true,
          "internalType": "address",
          "name": "owner",
          "type": "address"
        },
        {
          "indexed": true,
          "internalType": "address",
          "name": "operator",
          "type": "address"
        },
        {
          "indexed": false,
          "internalType": "bool",
          "name": "approved",
          "type": "bool"
        }
      ],
      "name": "ApprovalForAll",
      "type": "event"
    },
    {
      "anonymous": false,
      "inputs": [
        {
          "indexed": false,
          "internalType": "address",
          "name": "owner",
          "type": "address"
        },
        {
          "indexed": false,
          "internalType": "uint256",
          "name": "newKittenId",
          "type": "uint256"
        },
        {
          "indexed": false,
          "internalType": "uint256",
          "name": "mumId",
          "type": "uint256"
        },
        {
          "indexed": false,
          "internalType": "uint256",
          "name": "dadId",
          "type": "uint256"
        },
        {
          "indexed": false,
          "internalType": "uint256",
          "name": "genes",
          "type": "uint256"
        }
      ],
      "name": "Birth",
      "type": "event"
    },
    {
      "anonymous": false,
      "inputs": [
        {
          "indexed": true,
          "internalType": "address",
          "name": "from",
          "type": "address"
        },
        {
          "indexed": true,
          "internalType": "address",
          "name": "to",
          "type": "address"
        },
        {
          "indexed": true,
          "internalType": "uint256",
          "name": "tokenId",
          "type": "uint256"
        }
      ],
      "name": "Transfer",
      "type": "event"
    },
    {
      "inputs": [],
      "name": "CREATION_LIMIT_GEN0",
      "outputs": [
        {
          "internalType": "uint256",
          "name": "",
          "type": "uint256"
        }
      ],
      "stateMutability": "view",
      "type": "function"
    },
    {
      "inputs": [],
      "name": "gen0Counter",
      "outputs": [
        {
          "internalType": "uint256",
          "name": "",
          "type": "uint256"
        }
      ],
      "stateMutability": "view",
      "type": "function"
    },
    {
      "inputs": [
        {
          "internalType": "uint256",
          "name": "",
          "type": "uint256"
        }
      ],
      "name": "kittyIndexToApproved",
      "outputs": [
        {
          "internalType": "address",
          "name": "",
          "type": "address"
        }
      ],
      "stateMutability": "view",
      "type": "function"
    },
    {
      "inputs": [
        {
          "internalType": "uint256",
          "name": "",
          "type": "uint256"
        }
      ],
      "name": "kittyIndexToOwner",
      "outputs": [
        {
          "internalType": "address",
          "name": "",
          "type": "address"
        }
      ],
      "stateMutability": "view",
      "type": "function"
    },
    {
      "inputs": [],
      "name": "owner",
      "outputs": [
        {
          "internalType": "address",
          "name": "",
          "type": "address"
        }
      ],
      "stateMutability": "view",
      "type": "function"
    },
    {
      "inputs": [],
      "name": "tokenName",
      "outputs": [
        {
          "internalType": "string",
          "name": "",
          "type": "string"
        }
      ],
      "stateMutability": "view",
      "type": "function"
    },
    {
      "inputs": [],
      "name": "tokenSymbol",
      "outputs": [
        {
          "internalType": "string",
          "name": "",
          "type": "string"
        }
      ],
      "stateMutability": "view",
      "type": "function"
    },
    {
      "inputs": [
        {
          "internalType": "uint256",
          "name": "_genes",
          "type": "uint256"
        }
      ],
      "name": "createKittyGen0",
      "outputs": [
        {
          "internalType": "uint256",
          "name": "",
          "type": "uint256"
        }
      ],
      "stateMutability": "nonpayable",
      "type": "function"
    },
    {
      "inputs": [
        {
          "internalType": "uint256",
          "name": "_tokenId",
          "type": "uint256"
        }
      ],
      "name": "getKitty",
      "outputs": [
        {
          "internalType": "uint256",
          "name": "genes",
          "type": "uint256"
        },
        {
          "internalType": "uint256",
          "name": "birthTime",
          "type": "uint256"
        },
        {
          "internalType": "uint256",
          "name": "mumId",
          "type": "uint256"
        },
        {
          "internalType": "uint256",
          "name": "dadId",
          "type": "uint256"
        },
        {
          "internalType": "uint256",
          "name": "generation",
          "type": "uint256"
        }
      ],
      "stateMutability": "view",
      "type": "function"
    },
    {
      "inputs": [
        {
          "internalType": "address",
          "name": "owner",
          "type": "address"
        }
      ],
      "name": "balanceOf",
      "outputs": [
        {
          "internalType": "uint256",
          "name": "",
          "type": "uint256"
        }
      ],
      "stateMutability": "view",
      "type": "function"
    },
    {
      "inputs": [],
      "name": "totalSupply",
      "outputs": [
        {
          "internalType": "uint256",
          "name": "",
          "type": "uint256"
        }
      ],
      "stateMutability": "view",
      "type": "function"
    },
    {
      "inputs": [],
      "name": "name",
      "outputs": [
        {
          "internalType": "string",
          "name": "",
          "type": "string"
        }
      ],
      "stateMutability": "pure",
      "type": "function"
    },
    {
      "inputs": [],
      "name": "symbol",
      "outputs": [
        {
          "internalType": "string",
          "name": "",
          "type": "string"
        }
      ],
      "stateMutability": "pure",
      "type": "function"
    },
    {
      "inputs": [
        {
          "internalType": "uint256",
          "name": "_tokenId",
          "type": "uint256"
        }
      ],
      "name": "ownerOf",
      "outputs": [
        {
          "internalType": "address",
          "name": "",
          "type": "address"
        }
      ],
      "stateMutability": "view",
      "type": "function"
    },
    {
      "inputs": [
        {
          "internalType": "address",
          "name": "_from",
          "type": "address"
        },
        {
          "internalType": "address",
          "name": "_to",
          "type": "address"
        },
        {
          "internalType": "uint256",
          "name": "_tokenId",
          "type": "uint256"
        }
      ],
      "name": "safeTransferFrom",
      "outputs": [],
      "stateMutability": "nonpayable",
      "type": "function"
    },
    {
      "inputs": [
        {
          "internalType": "address",
          "name": "_from",
          "type": "address"
        },
        {
          "internalType": "address",
          "name": "_to",
          "type": "address"
        },
        {
          "internalType": "uint256",
          "name": "_tokenId",
          "type": "uint256"
        },
        {
          "internalType": "bytes",
          "name": "_data",
          "type": "bytes"
        }
      ],
      "name": "safeTransferFrom",
      "outputs": [],
      "stateMutability": "nonpayable",
      "type": "function"
    },
    {
      "inputs": [
        {
          "internalType": "address",
          "name": "_from",
          "type": "address"
        },
        {
          "internalType": "address",
          "name": "_to",
          "type": "address"
        },
        {
          "internalType": "uint256",
          "name": "_tokenId",
          "type": "uint256"
        }
      ],
      "name": "transferFrom",
      "outputs": [],
      "stateMutability": "nonpayable",
      "type": "function"
    },
    {
      "inputs": [
        {
          "internalType": "address",
          "name": "_to",
          "type": "address"
        },
        {
          "internalType": "uint256",
          "name": "_tokenId",
          "type": "uint256"
        }
      ],
      "name": "transfer",
      "outputs": [],
      "stateMutability": "nonpayable",
      "type": "function"
    },
    {
      "inputs": [
        {
          "internalType": "address",
          "name": "_approved",
          "type": "address"
        },
        {
          "internalType": "uint256",
          "name": "_tokenId",
          "type": "uint256"
        }
      ],
      "name": "approve",
      "outputs": [],
      "stateMutability": "nonpayable",
      "type": "function"
    },
    {
      "inputs": [
        {
          "internalType": "address",
          "name": "_operator",
          "type": "address"
        },
        {
          "internalType": "bool",
          "name": "approved",
          "type": "bool"
        }
      ],
      "name": "setApprovalForAll",
      "outputs": [],
      "stateMutability": "nonpayable",
      "type": "function"
    },
    {
      "inputs": [
        {
          "internalType": "uint256",
          "name": "_tokenId",
          "type": "uint256"
        }
      ],
      "name": "getApproved",
      "outputs": [
        {
          "internalType": "address",
          "name": "",
          "type": "address"
        }
      ],
      "stateMutability": "view",
      "type": "function"
    },
    {
      "inputs": [
        {
          "internalType": "address",
          "name": "_owner",
          "type": "address"
        },
        {
          "internalType": "address",
          "name": "_operator",
          "type": "address"
        }
      ],
      "name": "isApprovedForAll",
      "outputs": [
        {
          "internalType": "bool",
          "name": "",
          "type": "bool"
        }
      ],
      "stateMutability": "view",
      "type": "function"
    }
  ],
  "bytecode": "0x608060405234801561001057600080fd5b50336000806101000a81548173ffffffffffffffffffffffffffffffffffffffff021916908373ffffffffffffffffffffffffffffffffffffffff160217905550611c54806100606000396000f3fe608060405234801561001057600080fd5b50600436106101425760003560e01c80638da5cb5b116100b8578063b48343301161007c578063b483433014610377578063b88d4fde14610395578063d5a776ca146103b1578063e985e9c5146103e1578063e98b7f4d14610411578063ef5e94aa1461044557610142565b80638da5cb5b146102d357806395d89b41146102f1578063a22cb4651461030f578063a45f4bfc1461032b578063a9059cbb1461035b57610142565b806342842e0e1161010a57806342842e0e146101eb578063481af3d3146102075780636352211e146102375780636c02a9311461026757806370a08231146102855780637b61c320146102b557610142565b806306fdde0314610147578063081812fc14610165578063095ea7b31461019557806318160ddd146101b157806323b872dd146101cf575b600080fd5b61014f610463565b60405161015c9190611845565b60405180910390f35b61017f600480360381019061017a919061163f565b6104a0565b60405161018c9190611770565b60405180910390f35b6101af60048036038101906101aa91906115da565b6104ee565b005b6101b96105a0565b6040516101c691906118c7565b60405180910390f35b6101e960048036038101906101e491906114cf565b6105ad565b005b610205600480360381019061020091906114cf565b610675565b005b610221600480360381019061021c919061163f565b610695565b60405161022e9190611770565b60405180910390f35b610251600480360381019061024c919061163f565b6106c8565b60405161025e9190611770565b60405180910390f35b61026f610705565b60405161027c9190611845565b60405180910390f35b61029f600480360381019061029a919061146a565b61073e565b6040516102ac91906118c7565b60405180910390f35b6102bd610787565b6040516102ca9190611845565b60405180910390f35b6102db6107c0565b6040516102e89190611770565b60405180910390f35b6102f96107e4565b6040516103069190611845565b60405180910390f35b6103296004803603810190610324919061159e565b610821565b005b6103456004803603810190610340919061163f565b6108cd565b6040516103529190611770565b60405180910390f35b610375600480360381019061037091906115da565b610900565b005b61037f610a37565b60405161038c91906118c7565b60405180910390f35b6103af60048036038101906103aa919061151e565b610a3c565b005b6103cb60048036038101906103c6919061163f565b610b4b565b6040516103d891906118c7565b60405180910390f35b6103fb60048036038101906103f69190611493565b610be3565b604051610408919061182a565b60405180910390f35b61042b6004803603810190610426919061163f565b610c77565b60405161043c9594939291906118e2565b60405180910390f35b61044d610d53565b60405161045a91906118c7565b60405180910390f35b60606040518060400160405280601081526020017f4d61726761726974614b69747469657300000000000000000000000000000000815250905090565b600060028054905082106104b357600080fd5b6005600083815260200190815260200160002060009054906101000a900473ffffffffffffffffffffffffffffffffffffffff169050919050565b6104f83382610d59565b610537576040517f08c379a000000000000000000000000000000000000000000000000000000000815260040161052e90611887565b60405180910390fd5b6105418282610dc5565b808273ffffffffffffffffffffffffffffffffffffffff163373ffffffffffffffffffffffffffffffffffffffff167f8c5be1e5ebec7d5bd14f71427d1e84f3dd0314c0f7b2291e5b200ac8c7c3b92560405160405180910390a45050565b6000600280549050905090565b6105b78382610d59565b6105c057600080fd5b600073ffffffffffffffffffffffffffffffffffffffff168273ffffffffffffffffffffffffffffffffffffffff1614156105fa57600080fd5b600280549050811061060b57600080fd5b8273ffffffffffffffffffffffffffffffffffffffff163373ffffffffffffffffffffffffffffffffffffffff16148061064b575061064a3382610e1b565b5b8061065c575061065b8333610be3565b5b61066557600080fd5b610670338383610e87565b505050565b6106908383836040518060200160405280600081525061104e565b505050565b60056020528060005260406000206000915054906101000a900473ffffffffffffffffffffffffffffffffffffffff1681565b60006004600083815260200190815260200160002060009054906101000a900473ffffffffffffffffffffffffffffffffffffffff169050919050565b6040518060400160405280601081526020017f4d61726761726974614b6974746965730000000000000000000000000000000081525081565b6000600360008373ffffffffffffffffffffffffffffffffffffffff1673ffffffffffffffffffffffffffffffffffffffff168152602001908152602001600020549050919050565b6040518060400160405280600281526020017f4d4b00000000000000000000000000000000000000000000000000000000000081525081565b60008054906101000a900473ffffffffffffffffffffffffffffffffffffffff1681565b60606040518060400160405280600281526020017f4d4b000000000000000000000000000000000000000000000000000000000000815250905090565b3373ffffffffffffffffffffffffffffffffffffffff168273ffffffffffffffffffffffffffffffffffffffff16141561085a57600080fd5b6108648282611074565b8173ffffffffffffffffffffffffffffffffffffffff163373ffffffffffffffffffffffffffffffffffffffff167f17307eab39ab6107e8899845ad3d59bd9653f200f220920489ca2b5937696c31836040516108c1919061182a565b60405180910390a35050565b60046020528060005260406000206000915054906101000a900473ffffffffffffffffffffffffffffffffffffffff1681565b600073ffffffffffffffffffffffffffffffffffffffff168273ffffffffffffffffffffffffffffffffffffffff161415610970576040517f08c379a0000000000000000000000000000000000000000000000000000000008152600401610967906118a7565b60405180910390fd5b3073ffffffffffffffffffffffffffffffffffffffff168273ffffffffffffffffffffffffffffffffffffffff1614156109df576040517f08c379a00000000000000000000000000000000000000000000000000000000081526004016109d690611867565b60405180910390fd5b6109e93382610d59565b610a28576040517f08c379a0000000000000000000000000000000000000000000000000000000008152600401610a1f90611887565b60405180910390fd5b610a33338383610e87565b5050565b600a81565b610a468584610d59565b610a4f57600080fd5b600073ffffffffffffffffffffffffffffffffffffffff168473ffffffffffffffffffffffffffffffffffffffff161415610a8957600080fd5b6002805490508310610a9a57600080fd5b8473ffffffffffffffffffffffffffffffffffffffff163373ffffffffffffffffffffffffffffffffffffffff161480610ada5750610ad93384610e1b565b5b80610aeb5750610aea8533610be3565b5b610af457600080fd5b610b4485858585858080601f016020809104026020016040519081016040528093929190818152602001838380828437600081840152601f19601f8201169050808301925050505050505061104e565b5050505050565b60008060009054906101000a900473ffffffffffffffffffffffffffffffffffffffff1673ffffffffffffffffffffffffffffffffffffffff163373ffffffffffffffffffffffffffffffffffffffff1614610ba657600080fd5b600a60015410610bb557600080fd5b60016000815480929190610bc890611a72565b9190505550610bdc6000808460003361110c565b9050919050565b6000600660008473ffffffffffffffffffffffffffffffffffffffff1673ffffffffffffffffffffffffffffffffffffffff16815260200190815260200160002060008373ffffffffffffffffffffffffffffffffffffffff1673ffffffffffffffffffffffffffffffffffffffff16815260200190815260200160002060009054906101000a900460ff16905092915050565b60008060008060008060028781548110610cba577f4e487b7100000000000000000000000000000000000000000000000000000000600052603260045260246000fd5b906000526020600020906002020190508060010160009054906101000a900467ffffffffffffffff1667ffffffffffffffff1694508060010160089054906101000a900463ffffffff1663ffffffff16935080600101600c9054906101000a900463ffffffff1663ffffffff1692508060010160109054906101000a900461ffff1661ffff169150806000015495505091939590929450565b60015481565b60008273ffffffffffffffffffffffffffffffffffffffff166004600084815260200190815260200160002060009054906101000a900473ffffffffffffffffffffffffffffffffffffffff1673ffffffffffffffffffffffffffffffffffffffff1614905092915050565b816005600083815260200190815260200160002060006101000a81548173ffffffffffffffffffffffffffffffffffffffff021916908373ffffffffffffffffffffffffffffffffffffffff1602179055505050565b60008273ffffffffffffffffffffffffffffffffffffffff166005600084815260200190815260200160002060009054906101000a900473ffffffffffffffffffffffffffffffffffffffff1673ffffffffffffffffffffffffffffffffffffffff1614905092915050565b600360008373ffffffffffffffffffffffffffffffffffffffff1673ffffffffffffffffffffffffffffffffffffffff1681526020019081526020016000206000815480929190610ed790611a72565b9190505550816004600083815260200190815260200160002060006101000a81548173ffffffffffffffffffffffffffffffffffffffff021916908373ffffffffffffffffffffffffffffffffffffffff160217905550600073ffffffffffffffffffffffffffffffffffffffff168373ffffffffffffffffffffffffffffffffffffffff1614610fee57600360008473ffffffffffffffffffffffffffffffffffffffff1673ffffffffffffffffffffffffffffffffffffffff1681526020019081526020016000206000815480929190610fb290611a48565b91905055506005600082815260200190815260200160002060006101000a81549073ffffffffffffffffffffffffffffffffffffffff02191690555b808273ffffffffffffffffffffffffffffffffffffffff168473ffffffffffffffffffffffffffffffffffffffff167fddf252ad1be2c89b69c2b068fc378daa952ba7f163c4a11628f55a4df523b3ef60405160405180910390a4505050565b611059848484610e87565b61106584848484611299565b61106e57600080fd5b50505050565b80600660003373ffffffffffffffffffffffffffffffffffffffff1673ffffffffffffffffffffffffffffffffffffffff16815260200190815260200160002060008473ffffffffffffffffffffffffffffffffffffffff1673ffffffffffffffffffffffffffffffffffffffff16815260200190815260200160002060006101000a81548160ff0219169083151502179055505050565b6000806040518060a001604052808681526020014267ffffffffffffffff1681526020018863ffffffff1681526020018763ffffffff1681526020018561ffff16815250905060028190806001815401808255809150506001900390600052602060002090600202016000909190919091506000820151816000015560208201518160010160006101000a81548167ffffffffffffffff021916908367ffffffffffffffff16021790555060408201518160010160086101000a81548163ffffffff021916908363ffffffff160217905550606082015181600101600c6101000a81548163ffffffff021916908363ffffffff16021790555060808201518160010160106101000a81548161ffff021916908361ffff16021790555050506000600160028054905061123e919061196d565b90507f0a5311bd2a6608f08a180df2ee7c5946819a649b204b554bb8e39825b2c50ad584828a8a8a6040516112779594939291906117d7565b60405180910390a161128b60008583610e87565b809250505095945050505050565b60006112a4846113b3565b6112b157600190506113ab565b60008473ffffffffffffffffffffffffffffffffffffffff1663150b7a02338887876040518563ffffffff1660e01b81526004016112f2949392919061178b565b602060405180830381600087803b15801561130c57600080fd5b505af1158015611320573d6000803e3d6000fd5b505050506040513d601f19601f820116820180604052508101906113449190611616565b90507f150b7a023d4804d13e8c85fb27262cb750cf6ba9f9dd3bb30d90f482ceeb4b1f7bffffffffffffffffffffffffffffffffffffffffffffffffffffffff1916817bffffffffffffffffffffffffffffffffffffffffffffffffffffffff1916149150505b949350505050565b600080823b905060008163ffffffff1611915050919050565b6000813590506113db81611bc2565b92915050565b6000813590506113f081611bd9565b92915050565b60008151905061140581611bf0565b92915050565b60008083601f84011261141d57600080fd5b8235905067ffffffffffffffff81111561143657600080fd5b60208301915083600182028301111561144e57600080fd5b9250929050565b60008135905061146481611c07565b92915050565b60006020828403121561147c57600080fd5b600061148a848285016113cc565b91505092915050565b600080604083850312156114a657600080fd5b60006114b4858286016113cc565b92505060206114c5858286016113cc565b9150509250929050565b6000806000606084860312156114e457600080fd5b60006114f2868287016113cc565b9350506020611503868287016113cc565b925050604061151486828701611455565b9150509250925092565b60008060008060006080868803121561153657600080fd5b6000611544888289016113cc565b9550506020611555888289016113cc565b945050604061156688828901611455565b935050606086013567ffffffffffffffff81111561158357600080fd5b61158f8882890161140b565b92509250509295509295909350565b600080604083850312156115b157600080fd5b60006115bf858286016113cc565b92505060206115d0858286016113e1565b9150509250929050565b600080604083850312156115ed57600080fd5b60006115fb858286016113cc565b925050602061160c85828601611455565b9150509250929050565b60006020828403121561162857600080fd5b6000611636848285016113f6565b91505092915050565b60006020828403121561165157600080fd5b600061165f84828501611455565b91505092915050565b611671816119a1565b82525050565b611680816119b3565b82525050565b600061169182611935565b61169b818561194b565b93506116ab818560208601611a15565b6116b481611aea565b840191505092915050565b60006116ca82611940565b6116d4818561195c565b93506116e4818560208601611a15565b6116ed81611aea565b840191505092915050565b600061170560238361195c565b915061171082611afb565b604082019050919050565b600061172860218361195c565b915061173382611b4a565b604082019050919050565b600061174b60178361195c565b915061175682611b99565b602082019050919050565b61176a81611a0b565b82525050565b60006020820190506117856000830184611668565b92915050565b60006080820190506117a06000830187611668565b6117ad6020830186611668565b6117ba6040830185611761565b81810360608301526117cc8184611686565b905095945050505050565b600060a0820190506117ec6000830188611668565b6117f96020830187611761565b6118066040830186611761565b6118136060830185611761565b6118206080830184611761565b9695505050505050565b600060208201905061183f6000830184611677565b92915050565b6000602082019050818103600083015261185f81846116bf565b905092915050565b60006020820190508181036000830152611880816116f8565b9050919050565b600060208201905081810360008301526118a08161171b565b9050919050565b600060208201905081810360008301526118c08161173e565b9050919050565b60006020820190506118dc6000830184611761565b92915050565b600060a0820190506118f76000830188611761565b6119046020830187611761565b6119116040830186611761565b61191e6060830185611761565b61192b6080830184611761565b9695505050505050565b600081519050919050565b600081519050919050565b600082825260208201905092915050565b600082825260208201905092915050565b600061197882611a0b565b915061198383611a0b565b92508282101561199657611995611abb565b5b828203905092915050565b60006119ac826119eb565b9050919050565b60008115159050919050565b60007fffffffff0000000000000000000000000000000000000000000000000000000082169050919050565b600073ffffffffffffffffffffffffffffffffffffffff82169050919050565b6000819050919050565b60005b83811015611a33578082015181840152602081019050611a18565b83811115611a42576000848401525b50505050565b6000611a5382611a0b565b91506000821415611a6757611a66611abb565b5b600182039050919050565b6000611a7d82611a0b565b91507fffffffffffffffffffffffffffffffffffffffffffffffffffffffffffffffff821415611ab057611aaf611abb565b5b600182019050919050565b7f4e487b7100000000000000000000000000000000000000000000000000000000600052601160045260246000fd5b6000601f19601f8301169050919050565b7f4552433732313a2063616e6e6f74207472616e7366657220746f20796f75727360008201527f656c660000000000000000000000000000000000000000000000000000000000602082015250565b7f4552433732313a20796f7520646f206e6f74206f776e207468697320746f6b6560008201527f6e00000000000000000000000000000000000000000000000000000000000000602082015250565b7f4552433732313a20696e76616c69642061646472657373000000000000000000600082015250565b611bcb816119a1565b8114611bd657600080fd5b50565b611be2816119b3565b8114611bed57600080fd5b50565b611bf9816119bf565b8114611c0457600080fd5b50565b611c1081611a0b565b8114611c1b57600080fd5b5056fea2646970667358221220fcd8d570f3570ce8d117a3a418999011f901e6cb529bcf54f46813f1675ec21364736f6c63430008030033",
  "immutableReferences": {},
  "source": "// SPDX-License-Identifier: MIT\n\npragma solidity ^0.8.3;\n\nimport \"./Ownable.sol\";\nimport \"./IERC721.sol\";\nimport \"./IERC721Receiver.sol\";\n\ncontract kittyContract is IERC721, Ownable {\n    \n    uint256 public constant CREATION_LIMIT_GEN0=10;\n    string public constant tokenName = \"MargaritaKitties\";\n    string public constant tokenSymbol = \"MK\";\n\n    bytes4 internal constant MAGIC_ERC721_RECEIVED = bytes4(keccak256(\"onERC721Received(address,address,uint256,bytes)\"));\n\n    uint256 public gen0Counter;\n    \n    event Birth(\n        address owner,\n        uint256 newKittenId,\n        uint256 mumId,\n        uint256 dadId,\n        uint256 genes\n    );\n    \n    struct Kitty{\n        uint256 genes;\n        uint64 birthTime;\n        uint32 mumId;\n        uint32 dadId;\n        uint16 generation;\n    }\n\n    Kitty[] kitties;\n\n\n    mapping (address => uint256) ownershipTokenCount;\n    mapping (uint256 => address) public kittyIndexToOwner;\n    mapping (uint256 => address) public kittyIndexToApproved;\n    mapping (address => mapping(address => bool)) private _operatorApprovals;\n\nfunction createKittyGen0(uint256 _genes) public onlyOwner returns(uint256){\n    require(gen0Counter< CREATION_LIMIT_GEN0);\n\n    gen0Counter++;\n\n    return _createKitty(0, 0, _genes, 0, msg.sender);\n\n}\n\nfunction getKitty(uint256 _tokenId) external view returns(\n        uint256 genes, \n        uint256 birthTime, \n        uint256 mumId, \n        uint256 dadId, \n        uint256 generation){\n\n            Kitty storage kitty = kitties[_tokenId];\n\n        birthTime = uint256(kitty.birthTime);\n        mumId = uint256(kitty.mumId);\n        dadId = uint256(kitty.dadId);\n        generation = uint256(kitty.generation);\n        genes = kitty.genes;\n}\n\nfunction _createKitty(\n    uint256 _mumId,\n    uint256 _dadId,\n    uint256 _genes,\n    uint256 _generation,\n    address _owner\n) private returns (uint256){\n    Kitty memory _kitty = Kitty({\n        genes: _genes,\n        birthTime: uint64(block.timestamp),\n        mumId: uint32(_mumId),\n        dadId: uint32(_dadId),\n        generation: uint16(_generation)\n    });\n\n    kitties.push(_kitty);\n\n    uint256 newKittenId = kitties.length -1;\n\n    emit Birth(_owner, newKittenId, _mumId, _dadId, _genes);\n\n    _transfer(address(0), _owner, newKittenId);\n\n    return newKittenId;\n}\n\n\nfunction balanceOf(address owner) external view override returns (uint256){\n    return ownershipTokenCount[owner];\n}\n\nfunction totalSupply() external view override returns (uint256){\n    return kitties.length;\n}\n\nfunction name() external pure override returns (string memory){\n    return tokenName;\n}\n\nfunction symbol() external pure override returns (string memory){\n    return tokenSymbol;\n}\n\nfunction ownerOf(uint256 _tokenId) external view override returns (address){\n    return kittyIndexToOwner[_tokenId];\n}\n\nfunction _safeTransfer(address _from, address _to, uint256 _tokenId, bytes memory _data) internal{\n    _transfer(_from, _to, _tokenId);\n    require(_checkERC721Support(_from, _to, _tokenId, _data));\n\n}\n\nfunction safeTransferFrom(address _from, address _to, uint256 _tokenId, bytes calldata _data) override external{\n    require(_owns(_from, _tokenId));\n    require(_to != address(0));\n    require(_tokenId < kitties.length);\n    require(msg.sender == _from || _approvedFor(msg.sender, _tokenId) || isApprovedForAll(_from, msg.sender));\n\n    _safeTransfer(_from, _to, _tokenId, _data );\n}\n\nfunction safeTransferFrom(address _from, address _to, uint256 _tokenId) override external{\n    _safeTransfer(_from, _to, _tokenId, \"\");\n}\n\n\nfunction transferFrom(address _from, address _to, uint256 _tokenId) override public {\n    require(_owns(_from, _tokenId));\n    require(_to != address(0));\n    require(_tokenId < kitties.length);\n    require(msg.sender == _from || _approvedFor(msg.sender, _tokenId) || isApprovedForAll(_from, msg.sender));\n\n    _transfer(msg.sender, _to, _tokenId);\n}\n\n\nfunction transfer(address _to, uint256 _tokenId) public override {\n    require (_to != address(0), \"ERC721: invalid address\");\n    require (_to != address(this), \"ERC721: cannot transfer to yourself\");\n    require (_owns(msg.sender,_tokenId), \"ERC721: you do not own this token\");\n\n    _transfer(msg.sender, _to, _tokenId);\n}\n\nfunction _transfer(address _from, address _to, uint256 _tokenId) internal {\n    ownershipTokenCount[_to]++;\n    kittyIndexToOwner[_tokenId] = _to;\n\n    if(_from != address(0)){\n        ownershipTokenCount[_from]--;\n        delete kittyIndexToApproved[_tokenId];\n    }\n\nemit Transfer(_from, _to, _tokenId);\n}\n\nfunction approve(address _approved, uint256 _tokenId) override public {\n    require (_owns(msg.sender, _tokenId), \"ERC721: you do not own this token\");\n    \n    _approve(_approved, _tokenId);\n    emit Approval(msg.sender, _approved, _tokenId);\n}\n\nfunction setApprovalForAll(address _operator, bool approved) override external{\n    require (_operator != msg.sender);\n\n    _setApprovalForAll(_operator, approved);\n    emit ApprovalForAll(msg.sender, _operator, approved);\n}\n\nfunction _setApprovalForAll(address _operator, bool approved) internal{\n_operatorApprovals[msg.sender][_operator] = approved;\n}\n\nfunction getApproved(uint256 _tokenId) external view override returns (address){\n    require (_tokenId < kitties.length); //Token must exist;\n\n    return kittyIndexToApproved[_tokenId];\n}\n\nfunction isApprovedForAll(address _owner, address _operator) public view override returns (bool){\n    return _operatorApprovals[_owner][_operator];\n}\n\nfunction _approve(address _approved, uint256 _tokenId) internal{\n    kittyIndexToApproved[_tokenId] = _approved;\n}\n\nfunction _owns(address _claimant, uint256 _tokenId) internal view returns(bool){\n    return kittyIndexToOwner[_tokenId]==_claimant;\n}\nfunction _approvedFor(address _claimant, uint256 _tokenId) internal view returns(bool){\n    return kittyIndexToApproved[_tokenId]==_claimant;\n    }\n\nfunction _checkERC721Support(address _from, address _to, uint256 _tokenId, bytes memory _data) internal returns(bool){\n    if(!_isContract(_to)){\n        return true;\n    }\n    bytes4 returnData = IERC721Receiver(_to).onERC721Received(msg.sender, _from, _tokenId, _data);\n    return returnData == MAGIC_ERC721_RECEIVED;\n}\n\nfunction _isContract(address _to) view internal returns(bool){\n    uint32 size;\n    assembly{\n        size := extcodesize(_to)\n    }\n    return size > 0;\n}\n\n}\n",
  "sourcePath": "/Users/margaritagyorgiev/Desktop/IOT/Ethereum course advanced/CryptoKitties_Clone/academy-kitties-template/contracts/kittyContract.sol",
  "compiler": {
    "name": "solc",
    "version": "0.8.3+commit.8d00100c.Emscripten.clang"
  },
  "schemaVersion": "3.3.4",
  "updatedAt": "2021-06-17T20:32:24.086Z",
  "devdoc": {
    "kind": "dev",
    "methods": {
      "approve(address,uint256)": {
        "details": "The zero address indicates there is no approved address.  Throws unless `msg.sender` is the current NFT owner, or an authorized  operator of the current owner.",
        "params": {
          "_approved": "The new approved NFT controller",
          "_tokenId": "The NFT to approve"
        }
      },
      "balanceOf(address)": {
        "details": "Returns the number of tokens in ``owner``'s account."
      },
      "getApproved(uint256)": {
        "details": "Throws if `_tokenId` is not a valid NFT.",
        "params": {
          "_tokenId": "The NFT to find the approved address for"
        },
        "returns": {
          "_0": "The approved address for this NFT, or the zero address if there is none"
        }
      },
      "isApprovedForAll(address,address)": {
        "params": {
          "_operator": "The address that acts on behalf of the owner",
          "_owner": "The address that owns the NFTs"
        },
        "returns": {
          "_0": "True if `_operator` is an approved operator for `_owner`, false otherwise"
        }
      },
      "safeTransferFrom(address,address,uint256)": {
        "details": "This works identically to the other function with an extra data parameter,  except this function just sets data to \"\".",
        "params": {
          "_from": "The current owner of the NFT",
          "_to": "The new owner",
          "_tokenId": "The NFT to transfer"
        }
      },
      "transferFrom(address,address,uint256)": {
        "details": "Throws unless `msg.sender` is the current owner, an authorized  operator, or the approved address for this NFT. Throws if `_from` is  not the current owner. Throws if `_to` is the zero address. Throws if  `_tokenId` is not a valid NFT.",
        "params": {
          "_from": "The current owner of the NFT",
          "_to": "The new owner",
          "_tokenId": "The NFT to transfer"
        }
      }
    },
    "version": 1
  },
  "userdoc": {
    "kind": "user",
    "methods": {
      "approve(address,uint256)": {
        "notice": "Change or reaffirm the approved address for an NFT"
      },
      "getApproved(uint256)": {
        "notice": "Get the approved address for a single NFT"
      },
      "isApprovedForAll(address,address)": {
        "notice": "Query if an address is an authorized operator for another address"
      },
      "safeTransferFrom(address,address,uint256)": {
        "notice": "Transfers the ownership of an NFT from one address to another address"
      },
      "transferFrom(address,address,uint256)": {
        "notice": "Transfer ownership of an NFT -- THE CALLER IS RESPONSIBLE  TO CONFIRM THAT `_to` IS CAPABLE OF RECEIVING NFTS OR ELSE  THEY MAY BE PERMANENTLY LOST"
      }
    },
    "version": 1
  }
}