{
  "contractName": "kittyContract",
  "abi": [
    {
      "anonymous": false,
      "inputs": [
        {
          "indexed": true,
          "internalType": "address",
          "name": "owner",
          "type": "address"
        },
        {
          "indexed": true,
          "internalType": "address",
          "name": "approved",
          "type": "address"
        },
        {
          "indexed": true,
          "internalType": "uint256",
          "name": "tokenId",
          "type": "uint256"
        }
      ],
      "name": "Approval",
      "type": "event"
    },
    {
      "anonymous": false,
      "inputs": [
        {
          "indexed": false,
          "internalType": "address",
          "name": "owner",
          "type": "address"
        },
        {
          "indexed": false,
          "internalType": "uint256",
          "name": "newKittenId",
          "type": "uint256"
        },
        {
          "indexed": false,
          "internalType": "uint256",
          "name": "mumId",
          "type": "uint256"
        },
        {
          "indexed": false,
          "internalType": "uint256",
          "name": "dadId",
          "type": "uint256"
        },
        {
          "indexed": false,
          "internalType": "uint256",
          "name": "genes",
          "type": "uint256"
        }
      ],
      "name": "Birth",
      "type": "event"
    },
    {
      "anonymous": false,
      "inputs": [
        {
          "indexed": true,
          "internalType": "address",
          "name": "from",
          "type": "address"
        },
        {
          "indexed": true,
          "internalType": "address",
          "name": "to",
          "type": "address"
        },
        {
          "indexed": true,
          "internalType": "uint256",
          "name": "tokenId",
          "type": "uint256"
        }
      ],
      "name": "Transfer",
      "type": "event"
    },
    {
      "inputs": [],
      "name": "CREATION_LIMIT_GEN0",
      "outputs": [
        {
          "internalType": "uint256",
          "name": "",
          "type": "uint256"
        }
      ],
      "stateMutability": "view",
      "type": "function",
      "constant": true
    },
    {
      "inputs": [],
      "name": "gen0Counter",
      "outputs": [
        {
          "internalType": "uint256",
          "name": "",
          "type": "uint256"
        }
      ],
      "stateMutability": "view",
      "type": "function",
      "constant": true
    },
    {
      "inputs": [
        {
          "internalType": "uint256",
          "name": "",
          "type": "uint256"
        }
      ],
      "name": "kittyIndexToOwner",
      "outputs": [
        {
          "internalType": "address",
          "name": "",
          "type": "address"
        }
      ],
      "stateMutability": "view",
      "type": "function",
      "constant": true
    },
    {
      "inputs": [],
      "name": "owner",
      "outputs": [
        {
          "internalType": "address",
          "name": "",
          "type": "address"
        }
      ],
      "stateMutability": "view",
      "type": "function",
      "constant": true
    },
    {
      "inputs": [],
      "name": "tokenName",
      "outputs": [
        {
          "internalType": "string",
          "name": "",
          "type": "string"
        }
      ],
      "stateMutability": "view",
      "type": "function",
      "constant": true
    },
    {
      "inputs": [],
      "name": "tokenSymbol",
      "outputs": [
        {
          "internalType": "string",
          "name": "",
          "type": "string"
        }
      ],
      "stateMutability": "view",
      "type": "function",
      "constant": true
    },
    {
      "inputs": [
        {
          "internalType": "uint256",
          "name": "_genes",
          "type": "uint256"
        }
      ],
      "name": "createKittyGen0",
      "outputs": [
        {
          "internalType": "uint256",
          "name": "",
          "type": "uint256"
        }
      ],
      "stateMutability": "nonpayable",
      "type": "function"
    },
    {
      "inputs": [
        {
          "internalType": "uint256",
          "name": "_tokenId",
          "type": "uint256"
        }
      ],
      "name": "getKitty",
      "outputs": [
        {
          "internalType": "uint256",
          "name": "genes",
          "type": "uint256"
        },
        {
          "internalType": "uint256",
          "name": "birthTime",
          "type": "uint256"
        },
        {
          "internalType": "uint256",
          "name": "mumId",
          "type": "uint256"
        },
        {
          "internalType": "uint256",
          "name": "dadId",
          "type": "uint256"
        },
        {
          "internalType": "uint256",
          "name": "generation",
          "type": "uint256"
        }
      ],
      "stateMutability": "view",
      "type": "function",
      "constant": true
    },
    {
      "inputs": [
        {
          "internalType": "address",
          "name": "owner",
          "type": "address"
        }
      ],
      "name": "balanceOf",
      "outputs": [
        {
          "internalType": "uint256",
          "name": "",
          "type": "uint256"
        }
      ],
      "stateMutability": "view",
      "type": "function",
      "constant": true
    },
    {
      "inputs": [],
      "name": "totalSupply",
      "outputs": [
        {
          "internalType": "uint256",
          "name": "",
          "type": "uint256"
        }
      ],
      "stateMutability": "view",
      "type": "function",
      "constant": true
    },
    {
      "inputs": [],
      "name": "name",
      "outputs": [
        {
          "internalType": "string",
          "name": "",
          "type": "string"
        }
      ],
      "stateMutability": "pure",
      "type": "function",
      "constant": true
    },
    {
      "inputs": [],
      "name": "symbol",
      "outputs": [
        {
          "internalType": "string",
          "name": "",
          "type": "string"
        }
      ],
      "stateMutability": "pure",
      "type": "function",
      "constant": true
    },
    {
      "inputs": [
        {
          "internalType": "uint256",
          "name": "_tokenId",
          "type": "uint256"
        }
      ],
      "name": "ownerOf",
      "outputs": [
        {
          "internalType": "address",
          "name": "",
          "type": "address"
        }
      ],
      "stateMutability": "view",
      "type": "function",
      "constant": true
    },
    {
      "inputs": [
        {
          "internalType": "address",
          "name": "_to",
          "type": "address"
        },
        {
          "internalType": "uint256",
          "name": "_tokenId",
          "type": "uint256"
        }
      ],
      "name": "transfer",
      "outputs": [],
      "stateMutability": "nonpayable",
      "type": "function"
    }
  ],
  "bytecode": "0x608060405234801561001057600080fd5b50336000806101000a81548173ffffffffffffffffffffffffffffffffffffffff021916908373ffffffffffffffffffffffffffffffffffffffff160217905550611078806100606000396000f3fe608060405234801561001057600080fd5b50600436106100ea5760003560e01c806395d89b411161008c578063b483433011610066578063b48343301461024f578063d5a776ca1461026d578063e98b7f4d1461029d578063ef5e94aa146102d1576100ea565b806395d89b41146101e5578063a45f4bfc14610203578063a9059cbb14610233576100ea565b80636c02a931116100c85780636c02a9311461015b57806370a08231146101795780637b61c320146101a95780638da5cb5b146101c7576100ea565b806306fdde03146100ef57806318160ddd1461010d5780636352211e1461012b575b600080fd5b6100f76102ef565b6040516101049190610ceb565b60405180910390f35b61011561032c565b6040516101229190610d6d565b60405180910390f35b61014560048036038101906101409190610b94565b610339565b6040516101529190610c7d565b60405180910390f35b610163610376565b6040516101709190610ceb565b60405180910390f35b610193600480360381019061018e9190610b2f565b6103af565b6040516101a09190610d6d565b60405180910390f35b6101b16103f8565b6040516101be9190610ceb565b60405180910390f35b6101cf610431565b6040516101dc9190610c7d565b60405180910390f35b6101ed610455565b6040516101fa9190610ceb565b60405180910390f35b61021d60048036038101906102189190610b94565b610492565b60405161022a9190610c7d565b60405180910390f35b61024d60048036038101906102489190610b58565b6104c5565b005b6102576105fc565b6040516102649190610d6d565b60405180910390f35b61028760048036038101906102829190610b94565b610601565b6040516102949190610d6d565b60405180910390f35b6102b760048036038101906102b29190610b94565b610699565b6040516102c8959493929190610d88565b60405180910390f35b6102d9610775565b6040516102e69190610d6d565b60405180910390f35b60606040518060400160405280601081526020017f4d61726761726974614b69747469657300000000000000000000000000000000815250905090565b6000600280549050905090565b60006004600083815260200190815260200160002060009054906101000a900473ffffffffffffffffffffffffffffffffffffffff169050919050565b6040518060400160405280601081526020017f4d61726761726974614b6974746965730000000000000000000000000000000081525081565b6000600360008373ffffffffffffffffffffffffffffffffffffffff1673ffffffffffffffffffffffffffffffffffffffff168152602001908152602001600020549050919050565b6040518060400160405280600281526020017f4d4b00000000000000000000000000000000000000000000000000000000000081525081565b60008054906101000a900473ffffffffffffffffffffffffffffffffffffffff1681565b60606040518060400160405280600281526020017f4d4b000000000000000000000000000000000000000000000000000000000000815250905090565b60046020528060005260406000206000915054906101000a900473ffffffffffffffffffffffffffffffffffffffff1681565b600073ffffffffffffffffffffffffffffffffffffffff168273ffffffffffffffffffffffffffffffffffffffff161415610535576040517f08c379a000000000000000000000000000000000000000000000000000000000815260040161052c90610d4d565b60405180910390fd5b3073ffffffffffffffffffffffffffffffffffffffff168273ffffffffffffffffffffffffffffffffffffffff1614156105a4576040517f08c379a000000000000000000000000000000000000000000000000000000000815260040161059b90610d0d565b60405180910390fd5b6105ae338261077b565b6105ed576040517f08c379a00000000000000000000000000000000000000000000000000000000081526004016105e490610d2d565b60405180910390fd5b6105f83383836107e7565b5050565b600a81565b60008060009054906101000a900473ffffffffffffffffffffffffffffffffffffffff1673ffffffffffffffffffffffffffffffffffffffff163373ffffffffffffffffffffffffffffffffffffffff161461065c57600080fd5b600a6001541061066b57600080fd5b6001600081548092919061067e90610ec4565b919050555061069260008084600033610978565b9050919050565b600080600080600080600287815481106106dc577f4e487b7100000000000000000000000000000000000000000000000000000000600052603260045260246000fd5b906000526020600020906002020190508060010160009054906101000a900467ffffffffffffffff1667ffffffffffffffff1694508060010160089054906101000a900463ffffffff1663ffffffff16935080600101600c9054906101000a900463ffffffff1663ffffffff1692508060010160109054906101000a900461ffff1661ffff169150806000015495505091939590929450565b60015481565b60008273ffffffffffffffffffffffffffffffffffffffff166004600084815260200190815260200160002060009054906101000a900473ffffffffffffffffffffffffffffffffffffffff1673ffffffffffffffffffffffffffffffffffffffff1614905092915050565b600360008373ffffffffffffffffffffffffffffffffffffffff1673ffffffffffffffffffffffffffffffffffffffff168152602001908152602001600020600081548092919061083790610ec4565b9190505550816004600083815260200190815260200160002060006101000a81548173ffffffffffffffffffffffffffffffffffffffff021916908373ffffffffffffffffffffffffffffffffffffffff160217905550600073ffffffffffffffffffffffffffffffffffffffff168373ffffffffffffffffffffffffffffffffffffffff161461091857600360008473ffffffffffffffffffffffffffffffffffffffff1673ffffffffffffffffffffffffffffffffffffffff168152602001908152602001600020600081548092919061091290610e9a565b91905055505b808273ffffffffffffffffffffffffffffffffffffffff168473ffffffffffffffffffffffffffffffffffffffff167fddf252ad1be2c89b69c2b068fc378daa952ba7f163c4a11628f55a4df523b3ef60405160405180910390a4505050565b6000806040518060a001604052808681526020014267ffffffffffffffff1681526020018863ffffffff1681526020018763ffffffff1681526020018561ffff16815250905060028190806001815401808255809150506001900390600052602060002090600202016000909190919091506000820151816000015560208201518160010160006101000a81548167ffffffffffffffff021916908367ffffffffffffffff16021790555060408201518160010160086101000a81548163ffffffff021916908363ffffffff160217905550606082015181600101600c6101000a81548163ffffffff021916908363ffffffff16021790555060808201518160010160106101000a81548161ffff021916908361ffff160217905550505060006001600280549050610aaa9190610df7565b90507f0a5311bd2a6608f08a180df2ee7c5946819a649b204b554bb8e39825b2c50ad584828a8a8a604051610ae3959493929190610c98565b60405180910390a1610af7600085836107e7565b809250505095945050505050565b600081359050610b1481611014565b92915050565b600081359050610b298161102b565b92915050565b600060208284031215610b4157600080fd5b6000610b4f84828501610b05565b91505092915050565b60008060408385031215610b6b57600080fd5b6000610b7985828601610b05565b9250506020610b8a85828601610b1a565b9150509250929050565b600060208284031215610ba657600080fd5b6000610bb484828501610b1a565b91505092915050565b610bc681610e2b565b82525050565b6000610bd782610ddb565b610be18185610de6565b9350610bf1818560208601610e67565b610bfa81610f3c565b840191505092915050565b6000610c12602383610de6565b9150610c1d82610f4d565b604082019050919050565b6000610c35602183610de6565b9150610c4082610f9c565b604082019050919050565b6000610c58601783610de6565b9150610c6382610feb565b602082019050919050565b610c7781610e5d565b82525050565b6000602082019050610c926000830184610bbd565b92915050565b600060a082019050610cad6000830188610bbd565b610cba6020830187610c6e565b610cc76040830186610c6e565b610cd46060830185610c6e565b610ce16080830184610c6e565b9695505050505050565b60006020820190508181036000830152610d058184610bcc565b905092915050565b60006020820190508181036000830152610d2681610c05565b9050919050565b60006020820190508181036000830152610d4681610c28565b9050919050565b60006020820190508181036000830152610d6681610c4b565b9050919050565b6000602082019050610d826000830184610c6e565b92915050565b600060a082019050610d9d6000830188610c6e565b610daa6020830187610c6e565b610db76040830186610c6e565b610dc46060830185610c6e565b610dd16080830184610c6e565b9695505050505050565b600081519050919050565b600082825260208201905092915050565b6000610e0282610e5d565b9150610e0d83610e5d565b925082821015610e2057610e1f610f0d565b5b828203905092915050565b6000610e3682610e3d565b9050919050565b600073ffffffffffffffffffffffffffffffffffffffff82169050919050565b6000819050919050565b60005b83811015610e85578082015181840152602081019050610e6a565b83811115610e94576000848401525b50505050565b6000610ea582610e5d565b91506000821415610eb957610eb8610f0d565b5b600182039050919050565b6000610ecf82610e5d565b91507fffffffffffffffffffffffffffffffffffffffffffffffffffffffffffffffff821415610f0257610f01610f0d565b5b600182019050919050565b7f4e487b7100000000000000000000000000000000000000000000000000000000600052601160045260246000fd5b6000601f19601f8301169050919050565b7f4552433732313a2063616e6e6f74207472616e7366657220746f20796f75727360008201527f656c660000000000000000000000000000000000000000000000000000000000602082015250565b7f4552433732313a20796f7520646f206e6f74206f776e207468697320746f6b6560008201527f6e00000000000000000000000000000000000000000000000000000000000000602082015250565b7f4552433732313a20696e76616c69642061646472657373000000000000000000600082015250565b61101d81610e2b565b811461102857600080fd5b50565b61103481610e5d565b811461103f57600080fd5b5056fea26469706673582212206dd60de9c3475e4fa043e7ea7dd2b8874474091c8d96448958e77abb838daf5f64736f6c63430008030033",
  "immutableReferences": {},
  "source": "// SPDX-License-Identifier: MIT\n\npragma solidity ^0.8.3;\n\nimport \"./IERC721.sol\";\nimport \"./Ownable.sol\";\n\ncontract kittyContract is IERC721, Ownable {\n\n    string public constant tokenName = \"MargaritaKitties\";\n    string public constant tokenSymbol = \"MK\";\n\n    uint256 public constant CREATION_LIMIT_GEN0=10;\n\n    uint256 public gen0Counter;\n    \n    event Birth(\n        address owner,\n        uint256 newKittenId,\n        uint256 mumId,\n        uint256 dadId,\n        uint256 genes\n    );\n\n    struct Kitty{\n        uint256 genes;\n        uint64 birthTime;\n        uint32 mumId;\n        uint32 dadId;\n        uint16 generation;\n    }\n\n    Kitty[] kitties;\n\n\n    mapping(address => uint256) ownershipTokenCount;\n\n    mapping (uint256 => address) public kittyIndexToOwner;\n\nfunction createKittyGen0(uint256 _genes) public onlyOwner returns(uint256){\n    require(gen0Counter< CREATION_LIMIT_GEN0);\n\n    gen0Counter++;\n\n    return _createKitty(0, 0, _genes, 0, msg.sender);\n\n}\n\nfunction getKitty(uint256 _tokenId) external view returns(\n        uint256 genes, \n        uint256 birthTime, \n        uint256 mumId, \n        uint256 dadId, \n        uint256 generation){\n\n            Kitty storage kitty = kitties[_tokenId];\n\n        birthTime = uint256(kitty.birthTime);\n        mumId = uint256(kitty.mumId);\n        dadId = uint256(kitty.dadId);\n        generation = uint256(kitty.generation);\n        genes = kitty.genes;\n}\n\nfunction _createKitty(\n    uint256 _mumId,\n    uint256 _dadId,\n    uint256 _genes,\n    uint256 _generation,\n    address _owner\n) private returns (uint256){\n    Kitty memory _kitty = Kitty({\n        genes: _genes,\n        birthTime: uint64(block.timestamp),\n        mumId: uint32(_mumId),\n        dadId: uint32(_dadId),\n        generation: uint16(_generation)\n    });\n\n    kitties.push(_kitty);\n\n    uint256 newKittenId = kitties.length -1;\n\n    emit Birth(_owner, newKittenId, _mumId, _dadId, _genes);\n\n    _transfer(address(0), _owner, newKittenId);\n\n    return newKittenId;\n}\n\n\nfunction balanceOf(address owner) external view override returns (uint256){\n    return ownershipTokenCount[owner];\n}\n\nfunction totalSupply() external view override returns (uint256){\n    return kitties.length;\n}\n\nfunction name() external pure override returns (string memory){\n    return tokenName;\n}\n\nfunction symbol() external pure override returns (string memory){\n    return tokenSymbol;\n}\n\nfunction ownerOf(uint256 _tokenId) external view override returns (address){\n    return kittyIndexToOwner[_tokenId];\n}\n\nfunction transfer(address _to, uint256 _tokenId) external override {\n    require (_to != address(0), \"ERC721: invalid address\");\n    require (_to != address(this), \"ERC721: cannot transfer to yourself\");\n    require (_owns(msg.sender,_tokenId), \"ERC721: you do not own this token\");\n\n    _transfer(msg.sender, _to, _tokenId);\n}\n\nfunction _transfer(address _from, address _to, uint256 _tokenId) internal {\n    ownershipTokenCount[_to]++;\n    kittyIndexToOwner[_tokenId] = _to;\n\n    if(_from != address(0)){\n        ownershipTokenCount[_from]--;\n    }\n\nemit Transfer(_from, _to, _tokenId);\n}\n\nfunction _owns(address _claimant, uint256 _tokenId) internal view returns(bool){\n    return kittyIndexToOwner[_tokenId]==_claimant;\n}\n}",
  "sourcePath": "/Users/margaritagyorgiev/Desktop/IOT/Ethereum course advanced/CryptoKitties_Clone/academy-kitties-template/contracts/kittyContract.sol",
  "compiler": {
    "name": "solc",
    "version": "0.8.3+commit.8d00100c.Emscripten.clang"
  },
  "schemaVersion": "3.3.4",
  "updatedAt": "2021-06-10T12:54:16.722Z",
  "networkType": "ethereum",
  "devdoc": {
    "kind": "dev",
    "methods": {
      "balanceOf(address)": {
        "details": "Returns the number of tokens in ``owner``'s account."
      }
    },
    "version": 1
  },
  "userdoc": {
    "kind": "user",
    "methods": {},
    "version": 1
  }
}